:100000000C9484000C9424040C94FD030C94AC0018
:100010000C94AC000C94AC000C94AC000C94AC00B0
:100020000C94AC000C94AC000C94AC000C94AC00A0
:100030000C94AC000C94AC000C94AC000C94AC0090
:100040000C94B3030C94AC000C9471040C944B040A
:100050000C94AC000C94AC000C94AC000C94AC0070
:100060000C94AC000C94AC005B39305D205265639D
:1000700065707465757220343333204D487A207072
:1000800072657400206269747300202F2000436F32
:10009000646520726563753A20005E01011F0103EB
:1000A0000301008A02010A010202010064001E47E6
:1000B000040B0906007C0101060103030100F401A1
:1000C000060E0102020100C2011701010202010134
:1000D0009600023E0106060100C8000382071003D5
:1000E0001000C800820710071003016D0112010300
:1000F000010103010E01240101020201014001245A
:10010000010102020101A30411241FBECFEFD8E0B8
:10011000DEBFCDBF11E0A0E0B1E0EAE3FCE002C049
:1001200005900D92AC31B107D9F722E0ACE1B1E016
:1001300001C01D92A936B207E1F710E0C4E8D0E093
:1001400004C02197FE010E941506C338D107C9F7E4
:100150000E94FA040C941B060C9400000895AF92C0
:10016000BF92CF92DF92EF92FF920F931F93CF93A4
:10017000DF936C017B018B01040F151FEB015E0106
:10018000AE18BF08C017D10759F06991D601ED919B
:10019000FC910190F081E02DC6010995892B79F73A
:1001A000C501DF91CF911F910F91FF90EF90DF90EC
:1001B000CF90BF90AF900895FC01538D448D252FB3
:1001C00030E0842F90E0821B930B541710F0CF96F1
:1001D000089501970895FC01918D828D981761F023
:1001E000A28DAE0FBF2FB11D5D968C91928D9F5F3A
:1001F0009F73928F90E008958FEF9FEF0895FC0119
:10020000918D828D981731F0828DE80FF11D858DCB
:1002100090E008958FEF9FEF0895FC01918D228D5E
:10022000892F90E0805C9F4F821B91098F739927E3
:10023000089589EB91E00E940D0121E0892B09F4DA
:1002400020E0822F089580E090E0892B29F00E9421
:10025000190181110C9400000895FC01A48DA80FD0
:10026000B92FB11DA35ABF4F2C91848D90E00196F8
:100270008F739927848FA689B7892C93A089B18918
:100280008C91837080648C93938D848D981306C0B9
:100290000288F389E02D80818F7D80830895EF921D
:1002A000FF920F931F93CF93DF93EC0181E0888F30
:1002B0009B8D8C8D98131AC0E889F989808185FF00
:1002C00015C09FB7F894EE89FF896083E889F989A2
:1002D00080818370806480839FBF81E090E0DF91A4
:1002E000CF911F910F91FF90EF900895F62E0B8DF7
:1002F00010E00F5F1F4F0F731127E02E8C8D8E11B2
:100300000CC00FB607FCFACFE889F989808185FF18
:10031000F5CFCE010E942D01F1CFEB8DEC0FFD2F1B
:10032000F11DE35AFF4FF0829FB7F8940B8FEA89D3
:10033000FB8980818062CFCF0F931F93CF93DF9390
:100340008C01D0E0C0E0F801EC0FFD1F6491662342
:1003500041F089EB91E00E944F01892B11F0219629
:10036000F2CFCE01DF91CF911F910F910895CF93DE
:10037000DF93EC01888D8823B9F0AA89BB89E889CD
:10038000F9898C9185FD03C0808186FD0DC00FB673
:1003900007FCF7CF8C9185FFF2CF808185FFEDCFF1
:1003A000CE010E942D01E9CFDF91CF9108952F92C8
:1003B0003F924F925F926F927F928F929F92AF92F5
:1003C000BF92CF92DF92EF92FF920F931F93CF9342
:1003D000DF93CDB7DEB765970FB6F894DEBF0FBEDB
:1003E000CDBF9FB7F8948090B0019090B101A090DC
:1003F000B201B090B30186B5A89B07C08F3F29F02A
:100400002FEF821A920AA20AB20A9FBFBA2CA92C15
:10041000982C8824880E911CA11CB11C82E0880CA9
:10042000991CAA1CBB1C8A95D1F78091AA019091B6
:10043000AB012401481A590A4DEC441640E1540618
:1004400008F4E0C08091A8019091A901009789F07B
:100450002091220130912301D201A21BB30B9D01F7
:10046000B7FF03C0319521953109283C31050CF0C7
:10047000C5C001969093A9018093A801029709F045
:10048000BDC01AE9612E10E0712E01E010E020904D
:100490002001309021013B862A8649E050E0B301DB
:1004A000CE0101960E94D6058B816C81681708F4F5
:1004B000682F70E080912201909123010E94DF0556
:1004C0009B014091040150910501649FC001659F0B
:1004D000900D749F900D112464E670E00E94DF057A
:1004E000898541E050E0882311F042E050E08D81A1
:1004F000829FD001839FB00D1124BD87AC878E8170
:10050000829FF001839FF00D1124FF87EE878F817A
:10051000829F1001839F300C1124398A288A888594
:10052000829FD001839FB00D1124BB8BAA8BFA014F
:10053000EE0FFF1FEE5DFE4FC12CD12C76018A8598
:100540009B8501979D8B8C8BAC89BD894A175B0776
:1005500008F041C0CC0CDD1CEE1CFF1C8081918199
:10056000DC012C843D84A219B309B7FF03C0B19507
:10057000A195B109A617B70770F4A281B3812E84A3
:100580003F84A219B309B7FF03C0B195A195B10982
:10059000A617B707E0F0A889B9898A1B9B0B97FFBC
:1005A00003C091958195910986179707D0F48281B0
:1005B00093812A883B888219930997FF03C09195FC
:1005C000819591098617970760F46894C0F84E5F8B
:1005D0005F4F3496B9CF4A855B854830510508F0A6
:1005E00053C00F5F1F4F59E0650E711C0D30110590
:1005F00009F04DCF1092A9011092A801109221018B
:100600001092200180912001909121018334910565
:1006100040F010922101109220011092A901109235
:10062000A80180912001909121019C012F5F3F4FF3
:100630003093210120932001880F991FFC01EE5D6A
:10064000FE4F518240828092AA019092AB01A0920B
:10065000AC01B092AD0165960FB6F894DEBF0FBE47
:10066000CDBFDF91CF911F910F91FF90EF90DF9061
:10067000CF90BF90AF909F908F907F906F905F9042
:100680004F903F902F900895C0925602D0925702FB
:10069000E0925802F09259022C883D8836942794B3
:1006A0003092AF012092AE0130931F0120931E01C2
:1006B00010931D0100931C019DCF8F929F92AF92CA
:1006C000BF920F931F93CF93DF93CDB7DEB7A19760
:1006D0000FB6F894DEBF0FBECDBF19A2423008F4AA
:1006E0004AE08E010F5D1F4F842E912CB12CA12C5E
:1006F000A50194010E94F305E62FB901CA01EA3071
:1007000044F5E05DD801EE938D01232B242B252B9E
:1007100079F790E080E0109769F0FD0101900020EA
:10072000E9F73197AF014A1B5B0BBD0189EB91E003
:100730000E94AF00A1960FB6F894DEBF0FBECDBFEA
:10074000DF91CF911F910F91BF90AF909F908F90AD
:100750000895E95CD7CF42E050E068E171E089EBB1
:1007600091E00C94AF001F920F920FB60F921124DC
:100770002F933F938F939F93AF93BF938091B50136
:100780009091B601A091B701B091B8013091B40138
:1007900023E0230F2D3758F50196A11DB11D20939D
:1007A000B4018093B5019093B601A093B701B093C3
:1007B000B8018091B0019091B101A091B201B091C6
:1007C000B3010196A11DB11D8093B0019093B101B9
:1007D000A093B201B093B301BF91AF919F918F915C
:1007E0003F912F910F900FBE0F901F90189526E804
:1007F000230F0296A11DB11DD2CF1F920F920FB6EB
:100800000F9211242F933F934F935F936F937F9396
:100810008F939F93AF93BF93EF93FF93E091020168
:10082000F09103010995FF91EF91BF91AF919F91D5
:100830008F917F916F915F914F913F912F910F9089
:100840000FBE0F901F9018951F920F920FB60F9228
:1008500011242F933F934F935F936F937F938F93C5
:100860009F93AF93BF93EF93FF93E0910001F091BB
:1008700001010995FF91EF91BF91AF919F918F91E8
:100880007F916F915F914F913F912F910F900FBE8C
:100890000F901F9018951F920F920FB60F92112470
:1008A0002F933F934F935F936F937F938F939F9378
:1008B000AF93BF93EF93FF9389EB91E00E942D01DB
:1008C000FF91EF91BF91AF919F918F917F916F9128
:1008D0005F914F913F912F910F900FBE0F901F90FE
:1008E00018951F920F920FB60F9211242F938F938A
:1008F0009F93EF93FF93E091C901F091CA0180812A
:10090000E091CF01F091D00182FD1BC090818091D8
:10091000D2018F5F8F732091D301821741F0E09154
:10092000D201F0E0E754FE4F958F8093D201FF9102
:10093000EF919F918F912F910F900FBE0F901F906D
:1009400018958081F4CF0F931F93CF93DF93E9EB3A
:10095000F1E01382128288EE93E0A0E0B0E084839D
:100960009583A683B7838AE091E09183808385ECA9
:1009700090E09587848784EC90E09787868780EC69
:1009800090E0918B808B81EC90E0938B828B82EC5A
:1009900090E0958B848B86EC90E0978B868B118E04
:1009A000128E138E148ECAE5D2E00FEF1FEF1B8359
:1009B0000A838AE090E09D838C8349E050E06AE9F5
:1009C00070E080E692E00E94D605198308838CE3EC
:1009D00090E09093050180930401109256021092CA
:1009E00057021092580210925902DF91CF911F9135
:1009F0000F910895789484B5826084BD84B5816038
:100A000084BD85B5826085BD85B5816085BD8091D9
:100A10006E00816080936E00109281008091810051
:100A20008260809381008091810081608093810049
:100A3000809180008160809380008091B10084600B
:100A40008093B1008091B00081608093B00080916C
:100A50007A00846080937A0080917A00826080932B
:100A60007A0080917A00816080937A0080917A0088
:100A7000806880937A001092C100E091C901F091E2
:100A8000CA0182E08083E091C501F091C601108225
:100A9000E091C701F091C8018FEC80831092D101E1
:100AA000E091CD01F091CE0186E08083E091CB0111
:100AB000F091CC01808180618083E091CB01F09145
:100AC000CC01808188608083E091CB01F091CC01E2
:100AD000808180688083E091CB01F091CC0180819E
:100AE0008F7D808310925B0210925A021092560200
:100AF0001092570210925802109259021092AF01B0
:100B00001092AE0187ED91E0909301018093000176
:100B1000809169008C7F816080936900E89A88E603
:100B200090E00E949C010E94AB03C0E0D0E0809165
:100B3000560290915702A0915802B0915902892B08
:100B40008A2B8B2B51F18EE890E00E949C016091E2
:100B500056027091570280915802909159024AE0D2
:100B60000E945D038AE890E00E949C016091AE01C2
:100B70007091AF0190E080E04AE00E945D0384E85C
:100B800090E00E949C010E94AB03109256021092CA
:100B900057021092580210925902209741F20E9477
:100BA0001901882321F20E940000C1CFFB01DC0162
:100BB00002C005900D9241505040D8F70895AA1BED
:100BC000BB1B51E107C0AA1FBB1FA617B70710F038
:100BD000A61BB70B881F991F5A95A9F7809590956A
:100BE000BC01CD010895A1E21A2EAA1BBB1BFD0179
:100BF0000DC0AA1FBB1FEE1FFF1FA217B307E407FC
:100C0000F50720F0A21BB30BE40BF50B661F771F53
:100C1000881F991F1A9469F7609570958095909533
:100C20009B01AC01BD01CF010895EE0FFF1F0590A0
:0A0C3000F491E02D0994F894FFCF31
:100C3A00AE00AE003C00000000004F01AF00DC0037
:0C0C4A00B7010D01EB00FF000D0A0000D7
:00000001FF
