:100000000C94A8000C948B040C9464040C94D00001
:100010000C94D0000C94D0000C94D0000C94D00020
:100020000C94D0000C94D0000C94D0000C94D00010
:100030000C94D0000C94D0000C94D0000C94D00000
:100040000C941A040C94D0000C94D8040C94B204B0
:100050000C94D0000C94D0000C94D0000C94D000E0
:100060000C94D0000C94D000000000002400270065
:100070002A005B38395D20456D65747465757220A2
:10008000343333204D487A207072657400436F64B6
:100090006520656E766F79653A20000000000025C6
:1000A0000028002B000404040404040404020202D7
:1000B00002020203030303030301020408102040A9
:1000C0008001020408102001020408102000000032
:1000D0000800020100000304070000000000000007
:1000E000005E01011F01030301008A02010A0102EF
:1000F00002010064001E47040B0906007C01010692
:100100000103030100F401060E0102020100C20115
:10011000170101020201019600023E0106060100DC
:10012000C80003820710031000C8008207100710E0
:1001300003016D01120103010103010E01240101FC
:1001400002020101400124010102020101000A052D
:1001500011241FBECFEFD8E0DEBFCDBF11E0A0E07D
:10016000B1E0ECEDFEE002C005900D92A032B107C7
:10017000D9F722E0A0E2B1E001C01D92AD36B2078E
:10018000E1F710E0C8EAD0E004C02197FE010E9428
:100190006607C73AD107C9F70E9461050C946C073E
:1001A0000C94000090E0FC01E353FF4F2491FC010C
:1001B000E754FF4F3491FC01EB55FF4FE491EE23E0
:1001C000C9F0222339F0233001F1A8F4213019F1CC
:1001D000223029F1F0E0EE0FFF1FE556FF4FA59109
:1001E000B4918FB7F894EC91611126C030953E23FD
:1001F0003C938FBF08952730A9F02830C9F02430F0
:1002000049F7809180008F7D03C0809180008F77B7
:1002100080938000DFCF84B58F7784BDDBCF84B53A
:100220008F7DFBCF8091B0008F778093B000D2CFCD
:100230008091B0008F7DF9CF3E2BDACF1F93CF9303
:10024000DF93182FD92F80916C0260E0C1E08111FB
:1002500002C061E0C0E0809160020E94D200209163
:10026000640230916502129FC001139F900D11240A
:100270008230910538F0880F991F880F991F0597D4
:100280000197F1F76C2F809160020E94D2002091BB
:10029000640230916502D29FC001D39F900D11245A
:1002A0008230910538F0880F991F880F991F0597A4
:1002B0000197F1F7DF91CF911F9108953FB7F8941F
:1002C0008091B9019091BA01A091BB01B091BC019C
:1002D00026B5A89B05C02F3F19F00196A11DB11DA1
:1002E0003FBFBA2FA92F982F8827BC01CD01620FDD
:1002F000711D811D911D42E0660F771F881F991F98
:100300004A95D1F708950895AF92BF92CF92DF92A8
:10031000EF92FF920F931F93CF93DF936C017B01BA
:100320008B01040F151FEB015E01AE18BF08C0174B
:10033000D10759F06991D601ED91FC910190F081BE
:10034000E02DC6010995892B79F7C501DF91CF9181
:100350001F910F91FF90EF90DF90CF90BF90AF90E3
:100360000895FC01538D448D252F30E0842F90E0BB
:10037000821B930B541710F0CF96089501970895A0
:10038000FC01918D828D981761F0A28DAE0FBF2F69
:10039000B11D5D968C91928D9F5F9F73928F90E0BF
:1003A00008958FEF9FEF0895FC01918D828D98172E
:1003B00031F0828DE80FF11D858D90E008958FEF6B
:1003C0009FEF0895FC01918D228D892F90E0805C34
:1003D0009F4F821B91098F73992708958DEB91E0B0
:1003E0000E94E20121E0892B09F420E0822F089588
:1003F00080E090E0892B29F00E94EE0181110C949D
:1004000000000895FC01A48DA80FB92FB11DA35AB7
:10041000BF4F2C91848D90E001968F739927848F24
:10042000A689B7892C93A089B1898C918370806447
:100430008C93938D848D981306C00288F389E02DE8
:1004400080818F7D80830895EF92FF920F931F9399
:10045000CF93DF93EC0181E0888F9B8D8C8D981377
:100460001AC0E889F989808185FF15C09FB7F89483
:10047000EE89FF896083E889F989808183708064CF
:1004800080839FBF81E090E0DF91CF911F910F911A
:10049000FF90EF900895F62E0B8D10E00F5F1F4F29
:1004A0000F731127E02E8C8D8E110CC00FB607FC38
:1004B000FACFE889F989808185FFF5CFCE010E94C6
:1004C0000202F1CFEB8DEC0FFD2FF11DE35AFF4F30
:1004D000F0829FB7F8940B8FEA89FB898081806254
:1004E000CFCF0F931F93CF93DF938C01D0E0C0E069
:1004F000F801EC0FFD1F6491662341F08DEB91E054
:100500000E942402892B11F02196F2CFCE01DF91B7
:10051000CF911F910F910895CF93DF93EC01888DB8
:100520008823B9F0AA89BB89E889F9898C9185FD6E
:1005300003C0808186FD0DC00FB607FCF7CF8C91FC
:1005400085FFF2CF808185FFEDCFCE010E940202B0
:10055000E9CFDF91CF9108952F923F924F925F9212
:100560006F927F928F929F92AF92BF92CF92DF92C3
:10057000EF92FF920F931F93CF93DF93CDB7DEB728
:1005800065970FB6F894DEBF0FBECDBF0E945E0127
:100590006B017C018091AE019091AF012601481A58
:1005A000590A4DEC441640E1540608F4E0C080912D
:1005B000AC019091AD01009789F020912601309116
:1005C00027011201221A330A910137FE03C0319527
:1005D00021953109283C31050CF0C5C00196909356
:1005E000AD018093AC01029709F0BDC091EE692E78
:1005F00090E0792E01E010E0209024013090250158
:100600003B862A8649E050E0B301CE0101960E9464
:1006100027078B816C81681708F4682F70E0809140
:100620002601909127010E9430079B01409108010B
:1006300050910901649FC001659F900D749F900DBA
:10064000112464E670E00E9430078985A1E0B0E0E3
:10065000882311F0A2E0B0E08D81829FA001839FEA
:10066000500D11245D874C878E81829F1001839FDE
:10067000300C11243F862E868F81829FA001839F9C
:10068000500D1124598B488B8885829F1001839FC0
:10069000300C11243B8A2A8AFD01EE0FFF1FEA5D10
:1006A000FE4F812C912C54014A855B8541505109A4
:1006B0005D8B4C8B8C899D89A817B90708F040C0C9
:1006C000880C991CAA1CBB1C80819181AC012C84D4
:1006D0003D844219530957FF03C051954195510973
:1006E0004617570770F4428153812E843F84421984
:1006F000530957FF03C051954195510946175707B4
:10070000E0F048895989841B950B97FF03C09195A8
:100710008195910986179707C8F4828193812A8869
:100720003B888219930997FF03C0919581959109A0
:100730008617970758F4689480F812963496BACFC3
:100740004A855B854830510508F053C00F5F1F4F45
:1007500059E0650E711C0D30110509F04DCF109256
:10076000AD011092AC0110922501109224018091EC
:100770002401909125018334910540F010922501C8
:10078000109224011092AD011092AC0180912401CD
:10079000909125019C012F5F3F4F309325012093BD
:1007A0002401880F991FFC01EA5DFE4F51824082AF
:1007B000C092AE01D092AF01E092B001F092B101CF
:1007C00065960FB6F894DEBF0FBECDBFDF91CF9117
:1007D0001F910F91FF90EF90DF90CF90BF90AF905F
:1007E0009F908F907F906F905F904F903F902F9051
:1007F000089580925A0290925B02A0925C02B0929D
:100800005D022C883D88369427943092B301209263
:10081000B201309323012093220110932101009310
:1008200020019DCF42E050E06CE171E08DEB91E062
:100830000C9484011F920F920FB60F9211242F93E4
:100840003F938F939F93AF93BF938091B501909106
:10085000B601A091B701B091B8013091B40123E085
:10086000230F2D3758F50196A11DB11D2093B4011A
:100870008093B5019093B601A093B701B093B801EE
:100880008091B9019091BA01A091BB01B091BC01D6
:100890000196A11DB11D8093B9019093BA01A09357
:1008A000BB01B093BC01BF91AF919F918F913F91DC
:1008B0002F910F900FBE0F901F90189526E8230FD1
:1008C0000296A11DB11DD2CF1F920F920FB60F92AB
:1008D00011242F933F934F935F936F937F938F9345
:1008E0009F93AF93BF93EF93FF93E0910201F09139
:1008F00003010995FF91EF91BF91AF919F918F9166
:100900007F916F915F914F913F912F910F900FBE0B
:100910000F901F9018951F920F920FB60F921124EF
:100920002F933F934F935F936F937F938F939F93F7
:10093000AF93BF93EF93FF93E0910001F09101011A
:100940000995FF91EF91BF91AF919F918F917F9109
:100950006F915F914F913F912F910F900FBE0F902C
:100960001F9018951F920F920FB60F9211242F937C
:100970003F934F935F936F937F938F939F93AF9327
:10098000BF93EF93FF938DEB91E00E940202FF91E2
:10099000EF91BF91AF919F918F917F916F915F91F7
:1009A0004F913F912F910F900FBE0F901F90189570
:1009B0001F920F920FB60F9211242F938F939F9334
:1009C000EF93FF93E091CD01F091CE018081E09112
:1009D000D301F091D40182FD1BC090818091D6019A
:1009E0008F5F8F732091D701821741F0E091D6017C
:1009F000F0E0E354FE4F958F8093D601FF91EF9185
:100A00009F918F912F910F900FBE0F901F9018956F
:100A10008081F4CF0F931F93CF93DF93EDEBF1E041
:100A20001382128288EE93E0A0E0B0E08483958385
:100A3000A683B7838EE091E09183808385EC90E07C
:100A40009587848784EC90E09787868780EC90E098
:100A5000918B808B81EC90E0938B828B82EC90E089
:100A6000958B848B86EC90E0978B868B118E128E03
:100A7000138E148ECEE5D2E00FEF1FEF1B830A8397
:100A80008AE090E09D838C8349E050E061EE70E065
:100A900084E692E00E942707198308838CE390E0A4
:100AA000909309018093080110925A0210925B0200
:100AB00010925C0210925D02DF91CF911F910F9115
:100AC0000895CF93DF93CDB7DEB7A1970FB6F89413
:100AD000DEBF0FBECDBF789484B5826084BD84B57F
:100AE000816084BD85B5826085BD85B5816085BD29
:100AF00080916E00816080936E00109281008091E1
:100B00008100826080938100809181008160809368
:100B10008100809180008160809380008091B1008D
:100B200084608093B1008091B00081608093B000B8
:100B300080917A00846080937A0080917A0082604C
:100B400080937A0080917A00816080937A0080910E
:100B50007A00806880937A001092C100E091CD0104
:100B6000F091CE0182E08083E091C901F091CA0149
:100B70001082E091CB01F091CC018FEC8083109238
:100B8000D501E091D101F091D20186E08083E0911E
:100B9000CF01F091D001808180618083E091CF010D
:100BA000F091D001808188608083E091CF01F09145
:100BB000D001808180688083E091CF01F091D001E5
:100BC00080818F7D80838AE090E0909361028093A2
:100BD0006002E3ECF0E02491EFEAF0E084918823F6
:100BE00099F090E0880F991FFC01E859FF4FA591FB
:100BF000B491FC01E556FF4F859194918FB7F8941D
:100C0000EC91E22BEC938FBF85E090E09093630230
:100C10008093620282E790E00E9471020E941204B7
:100C20004AE0442E512C612C712C22242A94322C1F
:100C30008091600290916102019609F48CC08090CD
:100C4000040190900501A0900601B0900701009169
:100C50005E0210915F020F3F1007A1F0023070F4A6
:100C6000F801FF27013009F441C0E898EE0FFF1F9B
:100C7000E050FF4F83E891E09183808330925F02E0
:100C800020925E02D12CC12C80916202909163026D
:100C9000C816D90694F527E1E22EF12C81E090E008
:100CA000A0E0B0E00E2C04C0880F991FAA1FBB1F44
:100CB0000A94D2F788219921AA21BB21892B8A2B5A
:100CC0008B2BB1F080916A0290916B020E941E0101
:100CD00091E0E91AF10810F780916602909167029D
:100CE0000E941E01FFEFCF1ADF0ACECFE998BECFD8
:100CF0008091680290916902E9CF60E08091600282
:100D00000E94D2000F3F100731F110935F02009351
:100D10005E0210925A0210925B0210925C021092D4
:100D20005D021092B3011092B2010230A0F4F801FA
:100D3000FF27EE0FFF1FE050FF4F2CEA32E0318318
:100D40002083013009F47BC0809169008C7F816031
:100D500080936900E89A8DE890E00E9471022091EA
:100D6000040130910501409106015091070119A23B
:100D70008E010F5D1F4FCA01B901A30192010E94AC
:100D80004407605DF80162938F012115310541052B
:100D9000510589F7309761F001900020E9F731970C
:100DA000AF01401B510BB8018DEB91E00E94840113
:100DB0000E9412048091040190910501A091060106
:100DC000B09107010196A11DB11D8093040190937C
:100DD0000501A0930601B09307010E945E014B013B
:100DE0005C0188EEC82E83E0D82EE12CF12C0E9405
:100DF0005E01681979098A099B09683E734081057B
:100E00009105A8F3F1E0CF1AD108E108F10828EE26
:100E1000820E23E0921EA11CB11CC114D104E10476
:100E2000F10429F780E090E0892B09F401CF0E94BA
:100E3000EE01882309F4FCCE0E940000F9CE8091D7
:100E40006900837F846080936900E99A84CFFB0105
:100E5000DC0102C005900D9241505040D8F7089532
:100E6000AA1BBB1B51E107C0AA1FBB1FA617B707D0
:100E700010F0A61BB70B881F991F5A95A9F78095EC
:100E80009095BC01CD010895A1E21A2EAA1BBB1BAF
:100E9000FD010DC0AA1FBB1FEE1FFF1FA217B30746
:100EA000E407F50720F0A21BB30BE40BF50B661F5C
:100EB000771F881F991F1A9469F760957095809520
:100EC00090959B01AC01BD01CF010895EE0FFF1F6E
:0C0ED0000590F491E02D0994F894FFCFF8
:100EDC0083018301E80300003C00000000002402B1
:100EEC008401B1018C02E201C001D4010D0A0000A1
:00000001FF
