:100000000C945F010C9487010C9487010C94870178
:100010000C9487010C9487010C9487010C94870140
:100020000C9487010C9487010C9487010C94870130
:100030000C9487010C9487010C9487010C94870120
:100040000C94CA050C9487010C943A060C9414067F
:100050000C9487010C9487010C9487010C94870100
:100060000C946C060C9487015B4248313735305D47
:10007000204552524F523A20756E646566696E652E
:1000800064206572726F72005B4248313735305DB3
:10009000204552524F523A206F7468657220657243
:1000A000726F72005B4248313735305D20455252E5
:1000B0004F523A207265636569766564204E41430C
:1000C0004B206F6E207472616E736D6974206F6661
:1000D0002064617461005B4248313735305D2045F2
:1000E00052524F523A207265636569766564204EBC
:1000F00041434B206F6E207472616E736D69742082
:100100006F662061646472657373005B42483137C7
:1001100035305D204552524F523A20746F6F206C3B
:100120006F6E6720666F72207472616E736D697492
:1001300020627566666572005B4248313735305D16
:10014000204552524F523A20756E646566696E655D
:1001500064206572726F72005B4248313735305DE2
:10016000204552524F523A206F7468657220657272
:10017000726F72005B4248313735305D2045525214
:100180004F523A207265636569766564204E41433B
:100190004B206F6E207472616E736D6974206F6690
:1001A0002064617461005B4248313735305D204521
:1001B00052524F523A207265636569766564204EEB
:1001C00041434B206F6E207472616E736D697420B1
:1001D0006F662061646472657373005B42483137F7
:1001E00035305D204552524F523A20746F6F206C6B
:1001F0006F6E6720666F72207472616E736D6974C2
:1002000020627566666572005B32385D2042483157
:1002100037353020707265740042483137353020F0
:10022000696E74726F757661626C652C207665728A
:100230006966696572206C65206361626C616765DF
:10024000005B4248313735305D204465766963652F
:10025000206973206E6F7420636F6E6669677572B4
:1002600065642100206C780045636C616972656D7E
:10027000656E743A200000000000250028002B0065
:10028000040404040404040402020202020203033C
:100290000303030301020408102040800102040844
:1002A00010200102040810200000000800020100D4
:1002B0000003040700000000000000008B07112469
:1002C0001FBECFEFD8E0DEBFCDBF11E0A0E0B1E0B0
:1002D000E6E2FBE102C005900D92A433B107D9F725
:1002E00022E0A4E3B1E001C01D92AE3AB207E1F70B
:1002F00011E0CFE5D1E004C02197FE010E948B0DF3
:10030000CE35D107C9F70E94DB070C94910D0C94F0
:10031000000090E0FC01E855FD4F2491FC01EC56F3
:10032000FD4F3491FC01E058FD4FE491EE23C9F0FC
:10033000222339F0233001F1A8F4213019F12230C1
:1003400029F1F0E0EE0FFF1FEA58FD4FA591B4919F
:100350008FB7F894EC91611126C030953E233C9301
:100360008FBF08952730A9F02830C9F0243049F70D
:10037000809180008F7D03C0809180008F77809373
:100380008000DFCF84B58F7784BDDBCF84B58F7DD0
:10039000FBCF8091B0008F778093B000D2CF809157
:1003A000B0008F7DF9CF3E2BDACF3FB7F894809124
:1003B000F3019091F401A091F501B091F60126B5F9
:1003C000A89B05C02F3F19F00196A11DB11D3FBF8D
:1003D000BA2FA92F982F8827BC01CD01620F711D5C
:1003E000811D911D42E0660F771F881F991F4A9556
:1003F000D1F708958F929F92AF92BF92CF92DF92E2
:10040000EF92FF924B015C010E94D5016B017C01D0
:100410000E94D5016C197D098E099F09683E7340C1
:1004200081059105A8F321E0821A9108A108B1087D
:1004300088EEC80E83E0D81EE11CF11C81149104E3
:10044000A104B10429F7FF90EF90DF90CF90BF9007
:10045000AF909F908F90089508950895AF92BF92A6
:10046000CF92DF92EF92FF920F931F93CF93DF9380
:100470006C017B018B01040F151FEB015E01AE18AF
:10048000BF08C017D10759F06991D601ED91FC91D1
:100490000190F081E02DC6010995892B79F7C501FE
:1004A000DF91CF911F910F91FF90EF90DF90CF9050
:1004B000BF90AF900895FC01538D448D252F30E0FF
:1004C000842F90E0821B930B541710F0CF96089561
:1004D00001970895FC01918D828D981761F0A28D8E
:1004E000AE0FBF2FB11D5D968C91928D9F5F9F7354
:1004F000928F90E008958FEF9FEF0895FC01918D0A
:10050000828D981731F0828DE80FF11D858D90E076
:1005100008958FEF9FEF0895FC01918D228D892F13
:1005200090E0805C9F4F821B91098F7399270895FB
:1005300087EF91E00E948C0221E0892B09F420E0F2
:10054000822F089580E090E0892B29F00E94980284
:1005500081110C9400000895FC01A48DA80FB92FFF
:10056000B11DA35ABF4F2C91848D90E001968F73DB
:100570009927848FA689B7892C93A089B1898C91FA
:10058000837080648C93938D848D981306C0028849
:10059000F389E02D80818F7D80830895EF92FF9213
:1005A0000F931F93CF93DF93EC0181E0888F9B8D96
:1005B0008C8D98131AC0E889F989808185FF15C050
:1005C0009FB7F894EE89FF896083E889F989808173
:1005D0008370806480839FBF81E090E0DF91CF9142
:1005E0001F910F91FF90EF900895F62E0B8D10E064
:1005F0000F5F1F4F0F731127E02E8C8D8E110CC0D3
:100600000FB607FCFACFE889F989808185FFF5CF1D
:10061000CE010E94AC02F1CFEB8DEC0FFD2FF11D4E
:10062000E35AFF4FF0829FB7F8940B8FEA89FB895A
:1006300080818062CFCF0F931F93CF93DF938C0184
:10064000D0E0C0E0F801EC0FFD1F6491662341F09B
:1006500087EF91E00E94CE02892B11F02196F2CF14
:10066000CE01DF91CF911F910F910895CF93DF932A
:10067000EC01888D8823B9F0AA89BB89E889F989BA
:100680008C9185FD03C0808186FD0DC00FB607FCEF
:10069000F7CF8C9185FFF2CF808185FFEDCFCE0122
:1006A0000E94AC02E9CFDF91CF910895DC01ED917A
:1006B000FC910190F081E02D099420917501260FA5
:1006C0003327331F21323105ECF42091C601FC01A0
:1006D00090E080E0243069F082E00895A0917501F7
:1006E0002191AC014B5A5E4FA40FB52FB11D2C9335
:1006F0000196861798F380917501680F60937501D4
:1007000080E0089581E008951092C60181E0809311
:10071000C5011092C00161E082E10E94890161E09F
:1007200083E10E948901E9EBF0E080818E7F808384
:1007300080818D7F808388E48093B80085E48093F6
:10074000BC000895CF93DF9391E0909354018823E8
:10075000B9F0C091B800D091BA008091BC008A7BFA
:100760008093BC0060E082E10E94890160E083E147
:100770000E9489010E948403D093BA00C093B800FC
:10078000DF91CF9108950895E091CD018091CC0142
:10079000E81730F4F0E0E253FE4F808190E00895D6
:1007A0008FEF9FEF08959091CD018091CC012FEFB5
:1007B0003FEF981748F4E92FF0E0E253FE4F208115
:1007C00030E09F5F9093CD01C90108958091CC01E5
:1007D0009091CD01891B990B0895CF92DF92EF92F2
:1007E000FF920F931F93CF93DF937C01CB018A017C
:1007F00020919F01222389F0EB016B01C40ED51ECD
:10080000CC15DD0569F06991D701ED91FC9101905E
:10081000F081E02DC7010995F3CF642F0E945D039D
:10082000C801DF91CF911F910F91FF90EF90DF9062
:10083000CF900895CF93DF931F92CDB7DEB7698332
:1008400020919F012223F9F020919C01203258F041
:1008500021E030E0FC013383228390E080E00F90C0
:10086000DF91CF91089580919D01E82FF0E0EC5C3D
:10087000FE4F998190838F5F80939D0180939C01AF
:1008800081E090E0ECCF61E0CE0101960E945D0333
:10089000F7CFCF92DF92EF92FF920F931F93CF93F8
:1008A000DF93D0919C0181E0D13208F09CC0C091CF
:1008B0009E010E94D5016B017C018091C6018111CE
:1008C0006CC082E08093C60181E08093C5018FEF08
:1008D0008093C4011092C301D093C201A4E3B1E09C
:1008E000E0EAF1E080E0D8138DC01092C101809160
:1008F000C101CC0FC82BC093C1018091C0018130D0
:1009000009F084C01092C0010E94D5016B017C01E6
:100910008091C1018093BB008091C8019091C90171
:10092000A091CA01B091CB01892B8A2B8B2BA1F00E
:100930000E94D5010091C8011091C9012091CA01FE
:100940003091CB016C197D098E099F090617170795
:100950002807390708F442C08091BC0083FDD8CF36
:1009600085EC8093BC000E94D5016B017C018091D5
:10097000C601823009F44CC08091C4018F3F09F454
:1009800069C08091C401803209F466C08091C401BD
:10099000803309F463C084E026C08091C80190913F
:1009A000C901A091CA01B091CB01892B8A2B8B2B55
:1009B00009F483CF0E94D5010091C8011091C901AB
:1009C0002091CA013091CB016C197D098E099F09D4
:1009D000061717072807390708F06FCF8091C7015E
:1009E0000E94A20385E010929D0110929C0110923A
:1009F0009F01DF91CF911F910F91FF90EF90DF90BA
:100A0000CF9008959D9191938F5F6DCF85EEA9CF83
:100A10008091C8019091C901A091CA01B091CB0108
:100A2000892B8A2B8B2B09F4A2CF0E94D501009130
:100A3000C8011091C9012091CA013091CB016C19F4
:100A40007D098E099F09061717072807390708F03F
:100A50008ECFC4CF80E0C7CF82E0C5CF83E0C3CFC5
:100A600090E080E00895FC0101900020E9F73197C3
:100A7000AF01481B590BBC0187EF91E00C942E028B
:100A8000CF93DF930E941B03EC0184E291E00E946C
:100A900033058C0F9D1FDF91CF9108958F929F9208
:100AA000AF92BF920F931F93CF93DF93CDB7DEB773
:100AB000A1970FB6F894DEBF0FBECDBF19A242308A
:100AC00008F44AE08E010F5D1F4F842E912CB12C4B
:100AD000A12CA50194010E94690DE62FB901CA015C
:100AE000EA30F4F4E05DD801EE938D01232B242B42
:100AF000252B79F790E080E0109719F0CD010E9446
:100B00003305A1960FB6F894DEBF0FBECDBFDF91BF
:100B1000CF911F910F91BF90AF909F908F900895AC
:100B2000E95CE1CF85ED8093BC008091C801909194
:100B3000C901A091CA01B091CB010796A11DB11DB9
:100B400023E0B695A795979587952A95D1F720919B
:100B5000BC0024FD03C01092C60108954091C80155
:100B60005091C9016091CA017091CB01452B462B70
:100B7000472B69F30097A105B10541F02AE22A95B8
:100B8000F1F700C00197A109B109E1CF8091C70138
:100B90000C94A2031F920F920FB60F9211242F9361
:100BA0003F938F939F93AF93BF938091EF01909169
:100BB000F001A091F101B091F2013091EE0123E03A
:100BC000230F2D3758F50196A11DB11D2093EE017D
:100BD0008093EF019093F001A093F101B093F201A3
:100BE0008091F3019091F401A091F501B091F6018B
:100BF0000196A11DB11D8093F3019093F401A09380
:100C0000F501B093F601BF91AF919F918F913F9104
:100C10002F910F900FBE0F901F90189526E8230F6D
:100C20000296A11DB11DD2CF1F920F920FB60F9247
:100C300011242F933F934F935F936F937F938F93E1
:100C40009F93AF93BF93EF93FF9387EF91E00E9441
:100C5000AC02FF91EF91BF91AF919F918F917F91E6
:100C60006F915F914F913F912F910F900FBE0F9019
:100C70001F9018951F920F920FB60F9211242F9369
:100C80008F939F93EF93FF93E0910702F0910802F7
:100C90008081E0910D02F0910E0282FD1BC09081D7
:100CA000809110028F5F8F7320911102821741F0A3
:100CB000E0911002F0E0E950FE4F958F8093100212
:100CC000FF91EF919F918F912F910F900FBE0F90F9
:100CD0001F9018958081F4CF1F920F920FB60F923C
:100CE00011242F933F934F935F936F937F938F9331
:100CF0009F93AF93BF93EF93FF938091B900887F49
:100D0000803609F44AC0F0F5883209F4A7C018F516
:100D1000803109F49BC0B8F4882309F4F9C0883005
:100D200009F494C0FF91EF91BF91AF919F918F9182
:100D30007F916F915F914F913F912F910F900FBED7
:100D40000F901F901895883109F488C0803251F7B0
:100D50008093C40114C0803409F49DC040F48033F2
:100D6000B9F38833F9F68093C40185ECB0C08035BF
:100D700009F485C0883509F496C0883499F60E9434
:100D80009205D0CF883909F48CC038F5883729F01E
:100D900050F4883611F0803729F683E08093C6013D
:100DA0001092970157C0883809F47BC0803919F038
:100DB000803809F0B7CF80919701803208F071C078
:100DC000E091970181E08E0F809397018091BB00A5
:100DD000F0E0E958FE4F80833DC0803B39F0E0F4FD
:100DE000803A09F479C0883A09F09CCF84E0809376
:100DF000C6011092760110927501E0919A01F0916E
:100E00009B0109958091750181110FC081E080934C
:100E100075011092550109C0803C09F4A6CF883CA9
:100E200009F4A3CF883B09F07DCFE091760181E002
:100E30008E0F80937601F0E0EB5AFE4F8081809315
:100E4000BB00909176018091750129C08091C1010C
:100E50008093BB0085EC8093BC0064CF9091C3016C
:100E60008091C201981758F5E091C30181E08E0F7F
:100E70008093C301F0E0E056FE4F8081E9CFE0911E
:100E8000C30181E08E0F8093C3018091BB00F0E02D
:100E9000E056FE4F80839091C3018091C201981764
:100EA000C8F285E8D8CFE091C30181E08E0F80932E
:100EB000C3018091BB00F0E0E056FE4F808380913B
:100EC000C50181115CCF81E08093C00184EA8093E9
:100ED000BC001092C60126CF85EC8093BC00109216
:100EE000C60180919701803230F4E0919701F0E0E3
:100EF000E958FE4F10826091970170E0E0919801EF
:100F0000F091990187E791E00995109297010ACF36
:100F10001092C40134CFE7EFF1E01382128248EE61
:100F200053E060E070E0448355836683778384E018
:100F300091E09183808385EC90E09587848784ECB1
:100F400090E09787868780EC90E0918B808B81EC96
:100F500090E0938B828B82EC90E0958B848B86EC77
:100F600090E0978B868B118E128E138E148EA4E9CF
:100F7000B2E013961C921E92129714964D935D93B5
:100F80006D937C93179786E191E011969C938E93D5
:100F9000E0EAF2E085E481834AE959E969E97FE31F
:100FA00042835383648375831782168283E280832E
:100FB000B187A0870895789484B5826084BD84B594
:100FC000816084BD85B5826085BD85B5816085BD44
:100FD00080916E00816080936E00109281008091FC
:100FE0008100826080938100809181008160809384
:100FF0008100809180008160809380008091B100A9
:1010000084608093B1008091B00081608093B000D3
:1010100080917A00846080937A0080917A00826067
:1010200080937A0080917A00816080937A00809129
:101030007A00806880937A001092C100E0910702E4
:10104000F091080282E08083E0910302F0910402B3
:101050001082E0910502F09106028FEC80831092DD
:101060000F02E0910B02F0910C0286E08083E09188
:101070000902F0910A02808180618083E091090277
:10108000F0910A02808188608083E0910902F091EA
:101090000A02808180688083E0910902F0910A024F
:1010A00080818F7D80831092CD011092CC011092AF
:1010B0009D0110929C010E9484038CE292E0909327
:1010C0009B0180939A018DE292E090939901809325
:1010D000980123E22093A0028091A8029091A90296
:1010E000D1E0D0939F0120939E01DC01ED91FC9112
:1010F0000190F081E02D60E109958091A802909126
:10110000A9020E944904C82F6AE070E080E090E0E4
:101110000E94FA01C23009F49EC048F4CC23B1F019
:101120008BED91E0C13059F088E391E008C084E78D
:1011300091E0C33021F088E591E0C430A9F70E9426
:10114000400589E192E00E944005FFCF80E190E0F8
:101150009093A7028093A6022FB7F8948091EF0195
:101160009091F001A091F101B091F2012FBF809315
:10117000AA029093AB02A093AC02B093AD0280910F
:10118000A8029091A9022091A002D0939F012093E0
:101190009E0110929D0110929C0162E470E00E94F9
:1011A00056038091A8029091A9020E944904C82F79
:1011B0008091A8029091A9022091A002D0939F0152
:1011C00020939E0110929D0110929C0165E670E0B3
:1011D0000E9456038091A8029091A9020E9449049E
:1011E000C82B8091A8029091A9022091A002D093CF
:1011F0009F0120939E0110929D0110929C0160918D
:10120000A6027091A7020E9456038091A8029091B5
:10121000A9020E944904C82B6AE070E080E090E0D7
:101220000E94FA01C23009F45EC050F4CC23B1F040
:101230008BE091E0C13009F482CF88E690E07FCF67
:1012400084EA90E0C33009F47ACF88E890E0C430B3
:1012500009F475CFF2CF86EA91E071CF85E48093EF
:10126000A10288E092E00E94400525EE822ED5EC96
:1012700030E0A32E30E0B32EC1E099249A948091FF
:10128000A6029091A702892B89F581E492E00E9441
:101290004005C12CD12CE12C90ECF92E88E692E08F
:1012A0000E941B03A7019601C701B6010E94640DAD
:1012B000882309F45CC187E291E00E94330584E64B
:1012C00092E00E94400564EF71E080E090E00E94AF
:1012D000FA01A114B10499F20E949802882379F2CC
:1012E0000E940000CCCF86ED90E029CFF090A002C4
:1012F0000E94D5012B013C018091C601811162C081
:10130000C093C601C093C5019092C4011092C3015D
:10131000C093C201C093C1018091C101FF0CF82AA2
:10132000F092C1018091C001813009F0F2C01092A9
:10133000C0010E94D5016B017C018091C1018093A5
:10134000BB008091C8019091C901A091CA01B091E0
:10135000CB01892B8A2B8B2BA1F00E94D5014090C9
:10136000C8015090C9016090CA017090CB016C19FE
:101370007D098E099F09461657066806790608F406
:1013800042C08091BC0083FDD8CFD093BC000E94A6
:10139000D5016B017C018091C601813009F4BCC08C
:1013A0008091C301823008F0D9C08091C301A0EAC6
:1013B000B1E0EEECF1E090E0981751F12D9121931E
:1013C0009F5FFACF8091C8019091C901A091CA0195
:1013D000B091CB01892B8A2B8B2B09F48DCF0E94E6
:1013E000D5012091C8013091C9014091CA015091A5
:1013F000CB0164197509860997092617370748072D
:10140000590708F079CF8091C7010E94A20380E0BC
:101410001092CD018093CC01823009F0A1C080915F
:10142000A8029091A902DC01ED91FC910284F38560
:10143000E02D0995182F00E08091A8029091A90253
:10144000DC01ED91FC910284F385E02D0995802B60
:10145000912BBC0190E080E00E94400C6B017C016C
:101460002FB7F8948091EF019091F001A091F101D4
:10147000B091F2012FBF8093AA029093AB02A09388
:10148000AC02B093AD0220E030E040E85FEBC70172
:10149000B6010E949A0B882309F400CF6091A10243
:1014A0006534A9F070E090E080E00E94400C9B0160
:1014B000AC0160E070E08AE892E40E949F0B9B011F
:1014C000AC01C701B6010E94F70C6B017C01809151
:1014D000A6029091A7028132910511F0419751F433
:1014E00020E030E040E05FE3C701B6010E94F70C66
:1014F0006B017C012091A2023091A3024091A402D1
:101500005091A502C701B6010E949F0B6B017C019F
:10151000C5CE8092BC003BCF8091C8019091C9019B
:10152000A091CA01B091CB01892B8A2B8B2B09F496
:1015300032CF0E94D5014090C8015090C9016090FF
:10154000CA017090CB016C197D098E099F0946165E
:1015500057066806790608F01ECF55CF82E027CFE0
:10156000C12CD12C80E8E82E8FEBF82E79CF260104
:101570003701E89477F82FEF3FEF4FE75FE7C301BC
:10158000B2010E94640D81110DC02FEF3FEF4FE7B4
:101590005FE7C301B2010E949A0B18161CF48BE29C
:1015A00091E08BCE2FEF3FEF4FE75FE4C701B6012D
:1015B0000E94F20C18161CF48FE291E07ECE2FEF01
:1015C0003FEF4FE75FECC701B6010E949A0B87FD22
:1015D000F3CF20E030E0A901C701B6010E949A0BC9
:1015E00087FF09C06DE287EF91E00E94CE02F7FA13
:1015F000F094F7F8F0942DEC3CEC4CE45DE3C7017B
:10160000B6010E942E0B2B013C010E94110C6B01B4
:101610007C010E94400C9B01AC01C301B2010E94FD
:101620002D0B2B013C014AE0C701B6010E944E057B
:101630006EE287EF91E00E94CE0220E030E040E2CF
:1016400051E4C301B2010E94F70C0E94110C90E01A
:1016500080E04AE00E944E0532CE5058BB27AA27B0
:101660000E94450B0C94B80C0E94AA0C38F00E9402
:10167000B10C20F039F49F3F19F426F40C94A70C18
:101680000EF4E095E7FB0C94A10CE92F0E94C90C25
:1016900058F3BA17620773078407950720F079F4A7
:1016A000A6F50C94EB0C0EF4E0950B2EBA2FA02DA2
:1016B0000B01B90190010C01CA01A0011124FF27FF
:1016C000591B99F0593F50F4503E68F11A16F040FA
:1016D000A22F232F342F4427585FF3CF46953795F9
:1016E0002795A795F0405395C9F77EF41F16BA0BBE
:1016F000620B730B840BBAF09150A1F0FF0FBB1F6C
:10170000661F771F881FC2F70EC0BA0F621F731FB4
:10171000841F48F4879577956795B795F7959E3F11
:1017200008F0B0CF9395880F08F09927EE0F9795A2
:10173000879508950E947D0C08F481E008950E9429
:10174000B30B0C94B80C0E94B10C58F00E94AA0C78
:1017500040F029F45F3F29F00C94A10C51110C9436
:10176000EC0C0C94A70C0E94C90C68F39923B1F3FC
:10177000552391F3951B550BBB27AA2762177307B7
:10178000840738F09F5F5F4F220F331F441FAA1F4B
:10179000A9F335D00E2E3AF0E0E832D09150504007
:1017A000E695001CCAF72BD0FE2F29D0660F771FB5
:1017B000881FBB1F261737074807AB07B0E809F09B
:1017C000BB0B802DBF01FF2793585F4F3AF09E3F20
:1017D000510578F00C94A10C0C94EC0C5F3FE4F3F1
:1017E000983ED4F3869577956795B795F7959F5F63
:1017F000C9F7880F911D9695879597F90895E1E0AF
:10180000660F771F881FBB1F621773078407BA070D
:1018100020F0621B730B840BBA0BEE1F88F7E09568
:1018200008950E94D10C88F09F5798F0B92F9927FE
:10183000B751B0F0E1F0660F771F881F991F1AF0BB
:10184000BA95C9F714C0B13091F00E94EB0CB1E029
:1018500008950C94EB0C672F782F8827B85F39F028
:10186000B93FCCF3869577956795B395D9F73EF454
:1018700090958095709561957F4F8F4F9F4F0895FC
:10188000E89409C097FB3EF490958095709561951A
:101890007F4F8F4F9F4F9923A9F0F92F96E9BB27D0
:1018A0009395F695879577956795B795F111F8CF4C
:1018B000FAF4BB0F11F460FF1BC06F5F7F4F8F4FB7
:1018C0009F4F16C0882311F096E911C0772321F0AD
:1018D0009EE8872F762F05C0662371F096E8862F45
:1018E00070E060E02AF09A95660F771F881FDAF79C
:1018F000880F9695879597F90895990F0008550FC9
:10190000AA0BE0E8FEEF16161706E807F907C0F085
:1019100012161306E407F50798F0621B730B840B8D
:10192000950B39F40A2661F0232B242B252B21F467
:1019300008950A2609F4A140A6958FEF811D811D07
:10194000089597F99F6780E870E060E008959FEF41
:1019500080EC089500240A94161617061806090646
:10196000089500240A941216130614060506089515
:10197000092E0394000C11F4882352F0BB0F40F49D
:10198000BF2B11F460FF04C06F5F7F4F8F4F9F4FDD
:10199000089557FD9058440F551F59F05F3F71F05F
:1019A0004795880F97FB991F61F09F3F79F08795C6
:1019B0000895121613061406551FF2CF4695F1DF4F
:1019C00008C0161617061806991FF1CF86957105DF
:1019D000610508940895E894BB2766277727CB0113
:1019E00097F908950E947D0C08F48FEF08950E94E6
:1019F0000A0D0C94B80C0E94AA0C38F00E94B10C8D
:101A000020F0952311F00C94A10C0C94A70C112438
:101A10000C94EC0C0E94C90C70F3959FC1F3950FC8
:101A200050E0551F629FF001729FBB27F00DB11D62
:101A3000639FAA27F00DB11DAA1F649F6627B00DF2
:101A4000A11D661F829F2227B00DA11D621F739FDB
:101A5000B00DA11D621F839FA00D611D221F749FE9
:101A60003327A00D611D231F849F600D211D822F30
:101A7000762F6A2F11249F5750409AF0F1F0882357
:101A80004AF0EE0FFF1FBB1F661F771F881F915084
:101A90005040A9F79E3F510580F00C94A10C0C9486
:101AA000EC0C5F3FE4F3983ED4F386957795679509
:101AB000B795F795E7959F5FC1F7FE2B880F911DAE
:101AC0009695879597F908950E947D0C880B990B40
:101AD0000895A1E21A2EAA1BBB1BFD010DC0AA1F6F
:101AE000BB1FEE1FFF1FA217B307E407F50720F087
:101AF000A21BB30BE40BF50B661F771F881F991F02
:101B00001A9469F760957095809590959B01AC014A
:101B1000BD01CF010895EE0FFF1F0590F491E02D58
:061B20000994F894FFCFC8
:101B260000000000CE022E025B0236038C026A021F
:101B36007E02000000001A04ED033005C303E6032D
:101B4600D303C4030D0A006E616E00696E66006FF2
:041B560076660000AF
:00000001FF
