:100000000C944F000C9477000C9477000C947700BC
:100010000C9477000C9477000C9477000C94770084
:100020000C9477000C9477000C9477000C94770074
:100030000C9477000C9477000C9477000C94770064
:100040000C941C020C9477000C948C020C946602A5
:100050000C9477000C9477000C9477000C94770044
:100060000C9477000C9477005B35325D204361700F
:100070007465757220646520666C6578696F6E20A2
:10008000707265740020646567002020416E676CA3
:10009000653A2000427275743A200000CD031124A5
:1000A0001FBECFEFD8E0DEBFCDBF11E0A0E0B1E0D2
:1000B000EAEBF8E002C005900D92A631B107D9F73E
:1000C00021E0A6E1B1E001C01D92AC3BB207E1F72F
:1000D00010E0CFE4D0E004C02197FE010E94550457
:1000E000CE34D107C9F70E94BE020C945B040C9475
:1000F00000003FB7F89480911B0190911C01A091E2
:100100001D01B0911E0126B5A89B05C02F3F19F017
:100110000196A11DB11D3FBFBA2FA92F982F882787
:10012000BC01CD01620F711D811D911D42E0660F62
:10013000771F881F991F4A95D1F70895AF92BF92F4
:10014000CF92DF92EF92FF920F931F93CF93DF93A3
:100150006C017B018B01040F151FEB015E01AE18D2
:10016000BF08C017D10759F06991D601ED91FC91F4
:100170000190F081E02DC6010995892B79F7C50121
:10018000DF91CF911F910F91FF90EF90DF90CF9073
:10019000BF90AF900895FC01538D448D252F30E022
:1001A000842F90E0821B930B541710F0CF96089584
:1001B00001970895FC01918D828D981761F0A28DB1
:1001C000AE0FBF2FB11D5D968C91928D9F5F9F7377
:1001D000928F90E008958FEF9FEF0895FC01918D2D
:1001E000828D981731F0828DE80FF11D858D90E09A
:1001F00008958FEF9FEF0895FC01918D228D892F37
:1002000090E0805C9F4F821B91098F73992708951E
:100210008FE191E00E94FC0021E0892B09F420E0AD
:10022000822F089580E090E0892B29F00E94080138
:1002300081110C9400000895FC01A48DA80FB92F22
:10024000B11DA35ABF4F2C91848D90E001968F73FE
:100250009927848FA689B7892C93A089B1898C911D
:10026000837080648C93938D848D981306C002886C
:10027000F389E02D80818F7D80830895EF92FF9236
:100280000F931F93CF93DF93EC0181E0888F9B8DB9
:100290008C8D98131AC0E889F989808185FF15C073
:1002A0009FB7F894EE89FF896083E889F989808196
:1002B0008370806480839FBF81E090E0DF91CF9165
:1002C0001F910F91FF90EF900895F62E0B8D10E087
:1002D0000F5F1F4F0F731127E02E8C8D8E110CC0F6
:1002E0000FB607FCFACFE889F989808185FFF5CF41
:1002F000CE010E941C01F1CFEB8DEC0FFD2FF11D03
:10030000E35AFF4FF0829FB7F8940B8FEA89FB897D
:1003100080818062CFCF0F931F93CF93DF938C01A7
:10032000D0E0C0E0F801EC0FFD1F6491662341F0BE
:100330008FE191E00E943E01892B11F02196F2CFCE
:10034000CE01DF91CF911F910F910895CF93DF934D
:10035000EC01888D8823B9F0AA89BB89E889F989DD
:100360008C9185FD03C0808186FD0DC00FB607FC12
:10037000F7CF8C9185FFF2CF808185FFEDCFCE0145
:100380000E941C01E9CFDF91CF9108958F929F9237
:10039000AF92BF920F931F93CF93DF93CDB7DEB78A
:1003A000A1970FB6F894DEBF0FBECDBF19A24230A1
:1003B00008F44AE08E010F5D1F4F842E912CB12C62
:1003C000A12CA50194010E942404E62FB901CA01C1
:1003D000EA3044F5E05DD801EE938D01232B242B08
:1003E000252B79F790E080E0109769F0FD010190EE
:1003F0000020E9F73197AF014A1B5B0BBD018FE18C
:1004000091E00E949E00A1960FB6F894DEBF0FBE49
:10041000CDBFDF91CF911F910F91BF90AF909F9073
:100420008F900895E95CD7CF42E050E062E171E03F
:100430008FE191E00C949E001F920F920FB60F92E5
:1004400011242F933F938F939F93AF93BF938091EA
:10045000170190911801A0911901B0911A013091E2
:10046000160123E0230F2D3758F50196A11DB11D6C
:10047000209316018093170190931801A0931901FE
:10048000B0931A0180911B0190911C01A0911D0154
:10049000B0911E010196A11DB11D80931B01909387
:1004A0001C01A0931D01B0931E01BF91AF919F91BC
:1004B0008F913F912F910F900FBE0F901F90189525
:1004C00026E8230F0296A11DB11DD2CF1F920F92D5
:1004D0000FB60F9211242F933F934F935F936F9317
:1004E0007F938F939F93AF93BF93EF93FF938FE18E
:1004F00091E00E941C01FF91EF91BF91AF919F91FC
:100500008F917F916F915F914F913F912F910F90BC
:100510000FBE0F901F9018951F920F920FB60F925B
:1005200011242F938F939F93EF93FF93E0912F01CB
:10053000F09130018081E0913501F091360182FD2A
:100540001BC09081809138018F5F8F73209139019A
:10055000821741F0E0913801F0E0E15EFE4F958FA7
:1005600080933801FF91EF919F918F912F910F9080
:100570000FBE0F901F9018958081F4CF789484B5AA
:10058000826084BD84B5816084BD85B5826085BD8F
:1005900085B5816085BD80916E00816080936E001D
:1005A000109281008091810082608093810080910F
:1005B00081008160809381008091800081608093C0
:1005C00080008091B10084608093B1008091B00080
:1005D00081608093B00080917A00846080937A007B
:1005E00080917A00826080937A0080917A008160A5
:1005F00080937A0080917A00806880937A001092CC
:10060000C100E0912F01F091300182E08083E09100
:100610002B01F0912C011082E0912D01F0912E011F
:100620008FEC808310923701E0913301F091340117
:1006300086E08083E0913101F09132018081806118
:100640008083E0913101F091320180818860808364
:10065000E0913101F0913201808180688083E091E6
:100660003101F091320180818F7D808388E690E0B6
:100670000E948B010E94140210E496E0492E55243A
:100680005A94652C752CC0E0D0E010937C008091CA
:100690007A00806480937A0080917A0086FDFCCF96
:1006A000C0907800D09079000D2C000CEE08FF0867
:1006B000A70196012C5B324041095109AAE5B0E03F
:1006C0000E941904A30192010E94FA0349015A01F0
:1006D00084E990E00E948B014AE0C701B601F7FE71
:1006E0000DC06DE28FE191E00E943E016627772701
:1006F000CB016C197D098E099F094AE00E94C60151
:100700008AE890E00E948B014AE0C501B401B7FE7F
:100710000DC06DE28FE191E00E943E0166277727D0
:10072000CB01681979098A099B094AE00E94C60130
:1007300085E890E00E948B010E9414020E947900DB
:100740004B015C0188ECC82ED12CE12CF12C0E94CD
:100750007900681979098A099B09683E7340810507
:100760009105A8F321E0C21AD108E108F10888EE4A
:10077000880E83E0981EA11CB11CC114D104E104B1
:10078000F10429F7209709F480CF0E9408018823FB
:1007900009F47BCF0E94000078CFEFE1F1E01382F3
:1007A000128288EE93E0A0E0B0E084839583A68374
:1007B000B78384E091E09183808385EC90E0958716
:1007C000848784EC90E09787868780EC90E0918B1B
:1007D000808B81EC90E0938B828B82EC90E0958B08
:1007E000848B86EC90E0978B868B118E128E138E05
:1007F000148E0895052E97FB1EF400940E94110498
:1008000057FD07D00E94240407FC03D04EF40C943B
:10081000110450954095309521953F4F4F4F5F4FB4
:10082000089590958095709561957F4F8F4F9F4F5C
:1008300008950E944604A59F900DB49F900DA49F1B
:10084000800D911D11240895A1E21A2EAA1BBB1B35
:10085000FD010DC0AA1FBB1FEE1FFF1FA217B3078C
:10086000E407F50720F0A21BB30BE40BF50B661FA2
:10087000771F881F991F1A9469F760957095809566
:1008800090959B01AC01BD01CF010895A29FB001DD
:10089000B39FC001A39F700D811D1124911DB29FB4
:1008A000700D811D1124911D0895EE0FFF1F0590FD
:0A08B000F491E02D0994F894FFCFB5
:1008BA00000000003E019E00CB00A601FC00DA0009
:0608CA00EE000D0A000023
:00000001FF
