:100000000C9489000C94B1000C94B1000C94B100D4
:100010000C94B1000C94B1000C94B1000C94B1009C
:100020000C94B1000C94B1000C94B1000C94B1008C
:100030000C94B1000C94B1000C94B1000C94B1007C
:100040000C94BA020C94B1000C942A030C9404038F
:100050000C94B1000C94B1000C94B1000C94B1005C
:100060000C94B1000C94B1000000000025002800A1
:100070002B0000000000240027002A005B33365DBF
:10008000204B592D30323420707265742C207A65E3
:10009000726F203D20000000000023002600290090
:1000A000040404040404040402020202020203031E
:1000B0000303030301020408102040800102040826
:1000C00010200102040810200000000800020100B6
:1000D0000003040700000000000000006E6F6E00C7
:1000E00064657061737365002020536575696C3AAF
:1000F0002000202028706F6C65202D2900202028EA
:10010000706F6C65202B29004368616D703A200088
:10011000BF0411241FBECFEFD8E0DEBFCDBF11E07A
:10012000A0E0B1E0EAE6FAE002C005900D92A83145
:10013000B107D9F721E0A8E1B1E001C01D92AE3BC3
:10014000B207E1F710E0C9E8D0E004C02197FE0152
:100150000E942D05C838D107C9F70E945C030C9492
:1001600033050C94000080E480937C0080917A0039
:10017000806480937A0080917A0086FDFCCF809124
:1001800078009091790008953FB7F89480911D010F
:1001900090911E01A0911F01B091200126B5A89B4E
:1001A00005C02F3F19F00196A11DB11D3FBFBA2F09
:1001B000A92F982F8827BC01CD01620F711D811DC9
:1001C000911D42E0660F771F881F991F4A95D1F74E
:1001D00008958F929F92AF92BF92CF92DF92EF924B
:1001E000FF924B015C010E94C4006B017C010E94E4
:1001F000C4006C197D098E099F09683E7340810512
:100200009105A8F321E0821A9108A108B10888EEAF
:10021000C80E83E0D81EE11CF11C81149104A104D6
:10022000B10429F7FF90EF90DF90CF90BF90AF908F
:100230009F908F900895AF92BF92CF92DF92EF92EE
:10024000FF920F931F93CF93DF936C017B018B0180
:10025000040F151FEB015E01AE18BF08C017D107D0
:1002600059F06991D601ED91FC910190F081E02D5A
:10027000C6010995892B79F7C501DF91CF911F91AF
:100280000F91FF90EF90DF90CF90BF90AF900895C7
:10029000FC01538D448D252F30E0842F90E0821B8C
:1002A000930B541710F0CF96089501970895FC0111
:1002B000918D828D981761F0A28DAE0FBF2FB11D69
:1002C0005D968C91928D9F5F9F73928F90E00895C1
:1002D0008FEF9FEF0895FC01918D828D981731F07B
:1002E000828DE80FF11D858D90E008958FEF9FEFCF
:1002F0000895FC01918D228D892F90E0805C9F4FA5
:10030000821B91098F739927089581E291E00E94E1
:10031000790121E0892B09F420E0822F089580E003
:1003200090E0892B29F00E94850181110C94000036
:100330000895FC01A48DA80FB92FB11DA35ABF4F7A
:100340002C91848D90E001968F739927848FA689D4
:10035000B7892C93A089B1898C91837080648C9328
:10036000938D848D981306C00288F389E02D8081D7
:100370008F7D80830895EF92FF920F931F93CF9309
:10038000DF93EC0181E0888F9B8D8C8D98131AC0D0
:10039000E889F989808185FF15C09FB7F894EE89B7
:1003A000FF896083E889F989808183708064808314
:1003B0009FBF81E090E0DF91CF911F910F91FF905F
:1003C000EF900895F62E0B8D10E00F5F1F4F0F7307
:1003D0001127E02E8C8D8E110CC00FB607FCFACFC2
:1003E000E889F989808185FFF5CFCE010E949901C6
:1003F000F1CFEB8DEC0FFD2FF11DE35AFF4FF08293
:100400009FB7F8940B8FEA89FB8980818062CFCFF8
:100410000F931F93CF93DF938C01D0E0C0E0F801DE
:10042000EC0FFD1F6491662341F081E291E00E9490
:10043000BB01892B11F02196F2CFCE01DF91CF9134
:100440001F910F910895CF93DF93EC01888D88233E
:10045000B9F0AA89BB89E889F9898C9185FD03C027
:10046000808186FD0DC00FB607FCF7CF8C9185FF0C
:10047000F2CF808185FFEDCFCE010E949901E9CFB7
:10048000DF91CF9108958F929F92AF92BF920F9379
:100490001F93CF93DF93CDB7DEB7A1970FB6F89434
:1004A000DEBF0FBECDBF19A2423008F44AE08E0174
:1004B0000F5D1F4F842E912CB12CA12CA50194010E
:1004C0000E94EC04E62FB901CA01EA3044F5E05D70
:1004D000D801EE938D01232B242B252B79F790E067
:1004E00080E0109769F0FD0101900020E9F7319755
:1004F000AF014A1B5B0BBD0181E291E00E941B0131
:10050000A1960FB6F894DEBF0FBECDBFDF91CF919D
:100510001F910F91BF90AF909F908F900895E95CCD
:10052000D7CFCF92DF92EF92FF92CF93DF936B0101
:100530007C016DE281E291E00E94BB01EC01662743
:100540007727CB016C197D098E099F094AE00E942B
:1005500043028C0F9D1FDF91CF91FF90EF90DF90B2
:10056000CF90089542E050E064E171E081E291E0D3
:100570000C941B011F920F920FB60F9211242F9310
:100580003F938F939F93AF93BF9380911901909165
:100590001A01A0911B01B0911C013091180123E0B8
:1005A000230F2D3758F50196A11DB11D2093180179
:1005B0008093190190931A01A0931B01B0931C0121
:1005C00080911D0190911E01A0911F01B091200109
:1005D0000196A11DB11D80931D0190931E01A09352
:1005E0001F01B0932001BF91AF919F918F913F91D7
:1005F0002F910F900FBE0F901F90189526E8230F94
:100600000296A11DB11DD2CF1F920F920FB60F926D
:1006100011242F933F934F935F936F937F938F9307
:100620009F93AF93BF93EF93FF9381E291E00E947A
:100630009901FF91EF91BF91AF919F918F917F9120
:100640006F915F914F913F912F910F900FBE0F903F
:100650001F9018951F920F920FB60F9211242F938F
:100660008F939F93EF93FF93E0913101F0913201CB
:100670008081E0913701F091380182FD1BC09081AB
:1006800080913A018F5F8F7320913B01821741F077
:10069000E0913A01F0E0EF5DFE4F958F80933A01D3
:1006A000FF91EF919F918F912F910F900FBE0F901F
:1006B0001F9018958081F4CF789484B5826084BDB2
:1006C00084B5816084BD85B5826085BD85B5816056
:1006D00085BD80916E00816080936E0010928100D4
:1006E000809181008260809381008091810081608F
:1006F0008093810080918000816080938000809150
:10070000B10084608093B1008091B00081608093DB
:10071000B00080917A00846080937A0080917A00A2
:10072000826080937A0080917A00816080937A0061
:1007300080917A00806880937A001092C100C6EBA5
:10074000D0E0FE01249102EA10E0F80184918823B0
:10075000C9F090E0880F991FFC01EE58FF4FA5915A
:10076000B491FC01E859FF4F459154913FB7F8947B
:100770009C91822F809598239C93FA0190818923E4
:1007800080833FBFE0913101F091320182E08083AC
:10079000E0912D01F0912E011082E0912F01F09156
:1007A00030018FEC808310923901E0913501F09196
:1007B000360186E08083E0913301F091340180813D
:1007C00080618083E0913301F09134018081886001
:1007D0008083E0913301F0913401808180688083CF
:1007E000E0913301F091340180818F7D808334E189
:1007F000A32EB12CC12CD12C76010E94B300092E5E
:10080000000CAA0BBB0BC80ED91EEA1EFB1E6AE029
:1008100070E080E090E00E94E900F1E0AF1AB108DA
:1008200061F7C701B60124E130E040E050E00E94EA
:100830000E05690130930101209300018CE790E0DF
:100840000E940802B601DD0C880B990B97FF4EC081
:100850000E9491020E94B2029AECE92E90E0F92ED9
:1008600020E0C22E20E0D22E0E94B3002091000191
:10087000309101015C01A21AB30A88E091E00E9464
:100880000802B5010B2C000C880B990B97FF32C0A6
:100890000E94910285E1A816B10484F18DEF90E0E9
:1008A0000E94080288EE90E00E940802F7018491FD
:1008B000FE019491F8012491211128C08CED90E063
:1008C0000E9408020E94B20268EC70E080E090E0B2
:1008D0000E94E900C114D10409F4C6CF0E94850129
:1008E000882309F4C1CF0E940000BECF4AE00E94D5
:1008F0004302B0CF4AE00E944302CCCFECEEAE16EA
:10090000EFEFBE067CF682EF90E0CACF882339F085
:100910008330F1F098F4813009F1823019F1E22F3F
:10092000F0E0EE0FFF1FEA56FF4FA591B4918C91B6
:10093000982309F4C3CF80EE90E0C2CF8730A9F0AE
:100940008830C9F0843059F7809180008F7D03C0D2
:10095000809180008F7780938000E1CF84B58F777E
:1009600084BDDDCF84B58F7DFBCF8091B0008F77C4
:100970008093B000D4CF8091B0008F7DF9CFE1E2B9
:10098000F1E01382128288EE93E0A0E0B0E084836D
:100990009583A683B78386E091E09183808385EC7D
:1009A00090E09587848784EC90E09787868780EC39
:1009B00090E0918B808B81EC90E0938B828B82EC2A
:1009C00090E0958B848B86EC90E0978B868B118ED4
:1009D000128E138E148E0895A1E21A2EAA1BBB1B31
:1009E000FD010DC0AA1FBB1FEE1FFF1FA217B307FB
:1009F000E407F50720F0A21BB30BE40BF50B661F11
:100A0000771F881F991F1A9469F7609570958095D4
:100A100090959B01AC01BD01CF010895052E97FB78
:100A20001EF400940E94250557FD07D00E94EC0497
:100A300007FC03D04EF40C94250550954095309555
:100A400021953F4F4F4F5F4F08959095809570953A
:100A500061957F4F8F4F9F4F0895EE0FFF1F0590B9
:0A0A6000F491E02D0994F894FFCF03
:100A6A00000200000000BB011B01480123027901BA
:080A7A0057016B010D0A000099
:00000001FF
