:100000000C94A7000C94CF000C94CF000C943905ED
:100010000C9439050C9439050C94CF000C94CF0046
:100020000C94CF000C94CF000C94CF000C94CF0014
:100030000C94CF000C94CF000C94CF000C94CF0004
:100040000C9497040C94CF000C9407050C94E104D5
:100050000C94CF000C94CF000C94CF000C94CF00E4
:100060000C94CF000C94CF005B36345D204361705C
:1000700074657572206427656D707265696E74654C
:1000800020707265742C20706F73657A20756E20F5
:10009000646F6967740043617074657572206427CA
:1000A000656D707265696E746520696E74726F75C6
:1000B0007661626C6500456D707265696E7465206D
:1000C000696E636F6E6E7565002020636F6E666982
:1000D000616E63652000456D707265696E746520A0
:1000E0007265636F6E6E75652C2049442023000095
:1000F00000000800020100000304070000000000E7
:10010000000000000000002300260029000000007D
:1001100000240027002A0000000000250028002BF2
:1001200000040404040404040402020202020203A0
:1001300003030303030102040810204080010204AA
:1001400008102001020408102000FD056209112496
:100150001FBECFEFD8E0DEBFCDBF11E0A0E0B1E021
:10016000E6E6F3E102C005900D92AE32B107D9F791
:1001700022E0AEE2B1E001C01D92AF36B207E1F776
:1001800010E0C6EAD0E004C02197FE010E94A00959
:10019000C53AD107C9F70E942B070C94A6090C9405
:1001A0000000DF92EF92FF920F931F93CF93DF93A4
:1001B000EC0180914A0290914B026981DC01ED9142
:1001C000FC910190F081E02D099580914A02909177
:1001D0004B02DC01ED91FC910190F081E02D6881F2
:1001E000099580914A0290914B02DC01ED91FC91BE
:1001F0000190F081E02D6A81099580914A029091E9
:100200004B02DC01ED91FC910190F081E02D6B81BE
:10021000099580914A0290914B02DC01ED91FC918D
:100220000190F081E02D6C81099580914A029091B6
:100230004B02DC01ED91FC910190F081E02D6D818C
:10024000099580914A0290914B02DC01ED91FC915D
:100250000190F081E02D6E8109950F8118850E5F68
:100260001F4F80914A0290914B02E12EFF24DC0146
:10027000ED91FC910190F081E02D6E2D099580911A
:100280004A0290914B02DC01ED91FC910190F081CA
:10029000E02D602F09950E0D1F2D111D8E81080F69
:1002A000111DD12C80914A0290914B02DC01ED91FD
:1002B000FC910190F081E02DED2CF12C2F813885FF
:1002C000E216F30660F4EC0EFD1ED70119966C9150
:1002D0000995F7018185080F111DD394E3CF612F94
:1002E000099580914A0290914B02DC01ED91FC91BD
:1002F0000190F081E02D602FDF91CF911F910F9140
:10030000FF90EF90DF9009943FB7F89480917701C8
:1003100090917801A0917901B0917A0126B5A89BBE
:1003200005C02F3F19F00196A11DB11D3FBFBA2F87
:10033000A92F982F8827BC01CD01620F711D811D47
:10034000911D42E0660F771F881F991F4A95D1F7CC
:1003500008958F929F92AF92BF92CF92DF92EF92C9
:10036000FF924B015C010E9484016B017C010E94A1
:1003700084016C197D098E099F09683E73408105CF
:100380009105A8F321E0821A9108A108B10888EE2E
:10039000C80E83E0D81EE11CF11C81149104A10455
:1003A000B10429F7FF90EF90DF90CF90BF90AF900E
:1003B0009F908F900895EF92FF920F931F93CF938A
:1003C000DF93EC01F12CE12C10E000E080914A0277
:1003D00090914B02DC01ED91FC910084F185E02DC0
:1003E0000995892B99F461E070E080E090E00E942B
:1003F000A901BFEFEB1AFB0A88EEE81683E0F806C6
:1004000028F38FEF37C002E010E0E0CF80914A027E
:1004100090914B02DC01ED91FC910284F385E02D7B
:1004200009950930110508F03CC0F801E65EFD4F62
:100430000C94A0092302310241024102410241020F
:10044000460248024B028F3E09F0C0CF18828983D2
:10045000C8010196065F1F4F0034110550F48C014E
:10046000B5CF28813981282B3983288321303F4E0D
:1004700051F28EEFDF91CF911F910F91FF90EF908E
:100480000895FE01E00FF11F8083E2CF8E83E0CF5D
:100490001F828887DDCF2F813885282B38872F83CF
:1004A000D7CFFE01E00FF11F80832F813885C8016F
:1004B00008978217930761F680E0DCCFAF92BF9276
:1004C000CF92DF92EF92FF920F931F93CF93DF9320
:1004D0006C017B018B01040F151FEB015E01AE184F
:1004E000BF08C017D10759F06991D601ED91FC9171
:1004F0000190F081E02DC6010995892B79F7C5019E
:10050000DF91CF911F910F91FF90EF90DF90CF90EF
:10051000BF90AF900895FC01538D448D252F30E09E
:10052000842F90E0821B930B541710F0CF96089500
:1005300001970895FC01918D828D981761F0A28D2D
:10054000AE0FBF2FB11D5D968C91928D9F5F9F73F3
:10055000928F90E008958FEF9FEF0895FC01918DA9
:10056000828D981731F0828DE80FF11D858D90E016
:1005700008958FEF9FEF0895FC01918D228D892FB3
:1005800090E0805C9F4F821B91098F73992708959B
:100590008BE791E00E94BC0221E0892B09F420E066
:1005A000822F089580E090E0892B29F00E94C802F4
:1005B00081110C9400000895FC01A48DA80FB92F9F
:1005C000B11DA35ABF4F2C91848D90E001968F737B
:1005D0009927848FA689B7892C93A089B1898C919A
:1005E000837080648C93938D848D981306C00288E9
:1005F000F389E02D80818F7D80830895EF92FF92B3
:100600000F931F93CF93DF93EC0181E0888F9B8D35
:100610008C8D98131AC0E889F989808185FF15C0EF
:100620009FB7F894EE89FF896083E889F989808112
:100630008370806480839FBF81E090E0DF91CF91E1
:100640001F910F91FF90EF900895F62E0B8D10E003
:100650000F5F1F4F0F731127E02E8C8D8E110CC072
:100660000FB607FCFACFE889F989808185FFF5CFBD
:10067000CE010E94DC02F1CFEB8DEC0FFD2FF11DBE
:10068000E35AFF4FF0829FB7F8940B8FEA89FB89FA
:1006900080818062CFCF0F931F93CF93DF938C0124
:1006A000D0E0C0E0F801EC0FFD1F6491662341F03B
:1006B0008BE791E00E94FE02892B11F02196F2CF88
:1006C000CE01DF91CF911F910F910895CF93DF93CA
:1006D000EC01888D8823B9F0AA89BB89E889F9895A
:1006E0008C9185FD03C0808186FD0DC00FB607FC8F
:1006F000F7CF8C9185FFF2CF808185FFEDCFCE01C2
:100700000E94DC02E9CFDF91CF9108952091700122
:10071000309171012817390771F490916E01809121
:100720006F01981741F0E0916E01F0E0E25DFE4F3D
:10073000808190E008958FEF9FEF08950895EF92E4
:10074000FF920F931F93CF93DF93DC015C96ED90A4
:10075000FC905D97E114F10479F481E090E0139648
:100760009C938E93129790E080E0DF91CF911F9140
:100770000F91FF90EF9008955196ED91FC91529753
:1007800050968C915097982F90950FB75E962C911C
:100790005E97122F127021FD6095F894208111232D
:1007A00019F1282B2083E7012197F1F728E0462F44
:1007B00050E0308160FF1AC0382B3083E701219769
:1007C000F1F7BA0175956795215089F7112381F0EA
:1007D0008081892380830FBF5C968D919C910197C6
:1007E000F1F781E090E0C1CF2923DCCF3923E5CFB9
:1007F0009081892BEFCF20917001309171012817E2
:10080000390761F480916F0120916E0190E0805C66
:100810009F4F821B91098F739927089590E080E084
:100820000895209170013091710128173907B9F4AA
:1008300090916E0180916F01981789F0E0916E019F
:10084000F0E0E25DFE4F808120916E0130E02F5F8D
:100850003F4F2F73332720936E0190E008958FEF61
:100860009FEF089590E080E008958F929F92AF925D
:10087000BF920F931F93CF93DF93CDB7DEB7A197AE
:100880000FB6F894DEBF0FBECDBF19A2423008F4F8
:100890004AE08E010F5D1F4F842E912CB12CA12CAC
:1008A000A50194010E947E09E62FB901CA01EA3030
:1008B00044F5E05DD801EE938D01232B242B252BED
:1008C00079F790E080E0109769F0FD010190002039
:1008D000E9F73197AF014A1B5B0BBD018BE791E054
:1008E0000E945E02A1960FB6F894DEBF0FBECDBF88
:1008F000DF91CF911F910F91BF90AF909F908F90FC
:100900000895E95CD7CF42E050E06AE271E08BE7FE
:1009100091E00C945E02CF93DF930E944B03EC01B5
:100920000E9483048C0F9D1FDF91CF9108951F9229
:100930000F920FB60F9211242F933F938F939F9393
:10094000AF93BF938091730190917401A091750151
:10095000B09176013091720123E0230F2D3758F5C5
:100960000196A11DB11D2093720180937301909394
:100970007401A0937501B0937601809177019091F5
:100980007801A0917901B0917A010196A11DB11D64
:100990008093770190937801A0937901B0937A01C5
:1009A000BF91AF919F918F913F912F910F900FBE6B
:1009B0000F901F90189526E8230F0296A11DB11DD8
:1009C000D2CF1F920F920FB60F9211242F933F9305
:1009D0004F935F936F937F938F939F93AF93BF9347
:1009E000EF93FF938BE791E00E94DC02FF91EF9180
:1009F000BF91AF919F918F917F916F915F914F9137
:100A00003F912F910F900FBE0F901F9018951F923E
:100A10000F920FB60F9211242F938F939F93EF9302
:100A2000FF93E0918B01F0918C018081E091910125
:100A3000F091920182FD1BC09081809194018F5FA3
:100A40008F7320919501821741F0E0919401F0E0BD
:100A5000E558FE4F958F80939401FF91EF919F9100
:100A60008F912F910F900FBE0F901F90189580813E
:100A7000F4CF1F920F920FB60F9211242F933F9332
:100A80004F935F936F937F938F939F93AF93BF9396
:100A9000EF93FF93E0917001F0917101309749F06D
:100AA000A685B7858585968D91FF14C09C91892375
:100AB000A1F4FF91EF91BF91AF919F918F917F91A1
:100AC0006F915F914F913F912F910F900FBE0F90BB
:100AD0001F9018959C91892361F7A389B4899C91F3
:100AE0008589809589238C93868997890197F1F769
:100AF000608D718DA685B785558538E020E0CB01E6
:100B00000197F1F7822F90E095958795282F4C91CA
:100B1000452309F02068315091F7868D81FD20959D
:100B200080916F0190E001968F73992730916E014B
:100B3000381799F0A0916F01B0E0A25DBE4F2C93E1
:100B400080936F01828D938D0197F1F7A389B4890A
:100B50008C919589892B8C93ACCF868D8160868F03
:100B6000F1CF90E0FC01E151FF4F2491FC01EB5CDF
:100B7000FE4F3491FC01EF5DFE4FE491EE23C9F08E
:100B8000222339F0233001F1A8F4213019F1223069
:100B900029F1F0E0EE0FFF1FE95EFE4FA591B49141
:100BA0008FB7F894EC91611126C030953E233C93A9
:100BB0008FBF08952730A9F02830C9F0243049F7B5
:100BC000809180008F7D03C0809180008F7780931B
:100BD0008000DFCF84B58F7784BDDBCF84B58F7D78
:100BE000FBCF8091B0008F778093B000D2CF8091FF
:100BF000B0008F7DF9CF3E2BDACF0F931F93CF93A9
:100C0000DF9310927E0110927D0188EE93E0A0E0C8
:100C1000B0E080937F0190938001A0938101B09315
:100C200082012AE031E030937C0120937B0125ECA6
:100C300030E0309388012093870124EC30E030933A
:100C40008A012093890120EC30E030938C012093BD
:100C50008B0121EC30E030938E0120938D0122EC4A
:100C600030E03093900120938F0126EC30E03093F8
:100C7000920120939101109294011092950110928B
:100C80009601109297011092530210925202809393
:100C9000540290935502A0935602B09357028CE1F0
:100CA00091E090935102809350021092670210924B
:100CB0006602109269021092680210926B02109202
:100CC0006A0210926D0210926C0260916E026E7F49
:100CD0006D7F60936E026695617081E0682783E0A6
:100CE0000E94B10548E351E0FA01649184E291E089
:100CF000FC012491222399F030E0220F331FF901E7
:100D0000E35FFE4FA591B491F901E95EFE4F259195
:100D100034912FB7F8943C91632B6C932FBFFA0159
:100D2000449140936002FC018491E82FF0E0EE0FC3
:100D3000FF1FE95EFE4F859194919093620280932C
:100D4000610207E311E0F8012491C3E2D1E0FE0162
:100D500084918823C9F090E0880F991FFC01E35F1C
:100D6000FE4FA591B491FC01E95EFE4F459154916F
:100D70003FB7F8949C91822F809598239C93FA0119
:100D80009081892380833FBF80916E0281FD04C0E2
:100D900061E082E00E94B10580E592E022E02093CC
:100DA0005C02F801049100935D02FE01C491EC2FF6
:100DB000F0E0EE0FFF1FED5FFE4F25913491309371
:100DC0005F0220935E0210921F0210921E02109288
:100DD00021021092200220E430E03093230220937D
:100DE000220210922502109224024FEF5FEFBA0107
:100DF00040932602509327026093280270932902A1
:100E000030932B0220932A0220E031EE30932D0202
:100E100020932C0210922E0210922F021092300278
:100E200010923102409332025093330260933402A5
:100E30007093350210924F0210924E0290934D0221
:100E400080934C0290934B0280934A02DF91CF91A2
:100E50001F910F910895CF93DF93CDB7DEB7CF5495
:100E6000D1090FB6F894DEBF0FBECDBF789484B51C
:100E7000826084BD84B5816084BD85B5826085BD96
:100E800085B5816085BD80916E00816080936E0024
:100E90001092810080918100826080938100809116
:100EA00081008160809381008091800081608093C7
:100EB00080008091B10084608093B1008091B00087
:100EC00081608093B00080917A00846080937A0082
:100ED00080917A00826080937A0080917A008160AC
:100EE00080937A0080917A00806880937A001092D3
:100EF000C100E0918B01F0918C0102E00083E09150
:100F00008701F09188011082E0918901F0918A01B6
:100F10008FEC808310929301E0918F01F09190010A
:100F200016E01083E0918D01F0918E018081806147
:100F30008083E0918D01F0918E01808188608083B3
:100F4000E0918D01F0918E01808180688083E09135
:100F50008D01F0918E0180818F7D808368EE73E03A
:100F600080E090E00E94A901E0914E02F0914F02D2
:100F7000309731F1A089B1890C93A089B1891C9275
:100F8000A485B5851C92A685B78580E18C93108ECB
:100F9000A489B5891C93A289B3898C9180618C93B3
:100FA000A289B3898C9188608C93A289B3898C9132
:100FB00080688C930288F389E02D80818F7D808307
:100FC000E0914C02F0914D02309709F477C0138EF6
:100FD000128E118E108E178A168A82E490E0958FF9
:100FE000848F8485863108F03DC02FE030E0378B58
:100FF000268B20E430E0318F208F27E230E0338FE2
:10100000228F90916800883008F484C021E08E30EF
:1010100008F420E081E001C0880F2A95EAF7892BC7
:101020008093680094852DE630E0983050F02BE6F0
:1010300030E09E3030F02CE630E0963110F030E0B9
:1010400020E0348B238B292F30E0983008F064C0E7
:1010500081E001C0880F9A95EAF7858B848D958D84
:101060000197F1F7828D938D892B41F140917001A9
:1010700050917101E417F50709F14115510569F027
:10108000DA0153962D913C91D9019C91DA01559644
:101090008C9180958923D9018C93868D8E7F868F44
:1010A00010926F0110926E01F0937101E093700144
:1010B000A389B4898C919589892B8C9390912E0268
:1010C00020912F02309130024091310261E07FEE99
:1010D0007A83698381E08F8365E070E07987688730
:1010E0008FEF8B838C838D838E8383E18A874B87FD
:1010F0003C872D879E87CE0101960E94D100CE01AC
:1011000001960E94DB018823A1F086E990E00E940D
:101110008B04FFCF84E083CF9E3040F42850310908
:1011200081E001C0880F2A95EAF797CF2E50310948
:10113000F7CF8F81873049F78A858111E6CF88E61E
:1011400090E00E948B0401E01FEE66246394EE247D
:10115000E394F12C90E0C92E90E0D92E22E0A22E4B
:10116000B12C32E0532E46E0842E912C77247A94D1
:101170001A8309836F82F986E8867B827C827D826E
:101180007E826A86CE0101960E94D100CE01019630
:101190000E94DB01811185C08F81873009F081C0F9
:1011A0008A8581117EC01A8309836F82B986A886D9
:1011B0007B827C827D827E825A866B86CE010196FE
:1011C0000E94D100CE0101960E94DB01811169C00D
:1011D0008F81873009F065C08A85811162C086E001
:1011E000E0E0F1E0DE01A65BBF4F01900D928A9531
:1011F000E1F71A8309836F82998688867B827C82D5
:101200007D827E8286E0FE01E65BFF4FDE011A965C
:1012100001900D928A95E1F7CE0101960E94D100CE
:10122000CE0101960E94DB01811147C08F8187307A
:1012300009F043C08B859C85982789279827909330
:101240001902809318028D859E85982789279827F3
:1012500090931B0280931A028A8581112EC086ED1D
:1012600090E00E944B03609118027091190290E087
:1012700080E04AE00E94350489EC90E00E944B0334
:1012800060911A0270911B0290E080E04AE00E9497
:1012900035040E94830468EE73E080E090E00E94D1
:1012A000A901C114D10409F463CF0E94C8028823A4
:1012B00009F45CCF0E94000059CF86EB90E00E94B9
:1012C0008B04E9CF8CE191E090935102809350021E
:1012D00080917001909171018055924071F4E0917C
:1012E0006302F09164029081809165028095892368
:1012F000808310927101109270010895A1E21A2E5C
:10130000AA1BBB1BFD010DC0AA1FBB1FEE1FFF1FA9
:10131000A217B307E407F50720F0A21BB30BE40BF9
:10132000F50B661F771F881F991F1A9469F7609540
:101330007095809590959B01AC01BD01CF010895FA
:10134000EE0FFF1F0590F491E02D099410E0C6EA1E
:10135000D0E004C0FE010E94A0092196C73AD1073F
:06136000C9F7F894FFCF6D
:101366001B01000000A300000000FE025E028B02CB
:101376006603BC029A02AE02000000009F035E02F2
:0E13860032049E03FB03110486030D0A0000CF
:00000001FF
