:100000000C9477000C949F000C949F000C949F001C
:100010000C949F000C949F000C949F000C949F00E4
:100020000C949F000C949F000C949F000C949F00D4
:100030000C949F000C949F000C949F000C949F00C4
:100040000C9463030C949F000C94D3030C94AD03A5
:100050000C949F000C949F000C949F000C949F00A4
:100060000C949F000C949F000000000024002700C7
:100070002A005B36375D204750325931303130200D
:1000800070726574002075672F6D33002056202034
:10009000506F757373696572653A200054656E73AD
:1000A000696F6E3A200000000000250028002B0038
:1000B000040404040404040402020202020203030E
:1000C0000303030301020408102040800102040816
:1000D00010200102040810200000000800020100A6
:1000E0000003040700000000000000004C0511247C
:1000F0001FBECFEFD8E0DEBFCDBF11E0A0E0B1E082
:10010000EEEBFFE002C005900D92A232B107D9F7E5
:1001100021E0A2E2B1E001C01D92A83CB207E1F7E4
:1001200010E0C7E7D0E004C02197FE010E94D70786
:10013000C637D107C9F70E9405040C94DD070C945B
:100140000000EAEDF0E02491E6ECF0E09491E2EBBF
:10015000F0E0E491EE23C9F0222339F0233001F1DD
:10016000A8F4213019F1223029F1F0E0EE0FFF1F41
:10017000EA55FF4FA591B4912FB7F894EC918111F6
:1001800026C090959E239C932FBF08952730A9F0F9
:100190002830C9F0243049F7209180002F7D03C01A
:1001A000209180002F7720938000DFCF24B52F7718
:1001B00024BDDBCF24B52F7DFBCF2091B0002F775E
:1001C0002093B000D2CF2091B0002F7DF9CF9E2B8D
:1001D000DACF3FB7F8948091270190912801A09140
:1001E0002901B0912A0126B5A89B05C02F3F19F01F
:1001F0000196A11DB11D3FBFBA2FA92F982F8827A7
:10020000BC01CD01620F711D811D911D42E0660F81
:10021000771F881F991F4A95D1F70895AF92BF9213
:10022000CF92DF92EF92FF920F931F93CF93DF93C2
:100230006C017B018B01040F151FEB015E01AE18F1
:10024000BF08C017D10759F06991D601ED91FC9113
:100250000190F081E02DC6010995892B79F7C50140
:10026000DF91CF911F910F91FF90EF90DF90CF9092
:10027000BF90AF900895FC01538D448D252F30E041
:10028000842F90E0821B930B541710F0CF960895A3
:1002900001970895FC01918D828D981761F0A28DD0
:1002A000AE0FBF2FB11D5D968C91928D9F5F9F7396
:1002B000928F90E008958FEF9FEF0895FC01918D4C
:1002C000828D981731F0828DE80FF11D858D90E0B9
:1002D00008958FEF9FEF0895FC01918D228D892F56
:1002E00090E0805C9F4F821B91098F73992708953E
:1002F0008BE291E00E946C0121E0892B09F420E05F
:10030000822F089580E090E0892B29F00E947801E7
:1003100081110C9400000895FC01A48DA80FB92F41
:10032000B11DA35ABF4F2C91848D90E001968F731D
:100330009927848FA689B7892C93A089B1898C913C
:10034000837080648C93938D848D981306C002888B
:10035000F389E02D80818F7D80830895EF92FF9255
:100360000F931F93CF93DF93EC0181E0888F9B8DD8
:100370008C8D98131AC0E889F989808185FF15C092
:100380009FB7F894EE89FF896083E889F9898081B5
:100390008370806480839FBF81E090E0DF91CF9184
:1003A0001F910F91FF90EF900895F62E0B8D10E0A6
:1003B0000F5F1F4F0F731127E02E8C8D8E110CC015
:1003C0000FB607FCFACFE889F989808185FFF5CF60
:1003D000CE010E948C01F1CFEB8DEC0FFD2FF11DB2
:1003E000E35AFF4FF0829FB7F8940B8FEA89FB899D
:1003F00080818062CFCF0F931F93CF93DF938C01C7
:10040000D0E0C0E0F801EC0FFD1F6491662341F0DD
:100410008BE291E00E94AE01892B11F02196F2CF80
:10042000CE01DF91CF911F910F910895CF93DF936C
:10043000EC01888D8823B9F0AA89BB89E889F989FC
:100440008C9185FD03C0808186FD0DC00FB607FC31
:10045000F7CF8C9185FFF2CF808185FFEDCFCE0164
:100460000E948C01E9CFDF91CF910895FC010190AA
:100470000020E9F73197AF01481B590BBC018BE213
:1004800091E00C940E018F929F92AF92BF920F93C6
:100490001F93CF93DF93CDB7DEB7A1970FB6F89434
:1004A000DEBF0FBECDBF19A2423008F44AE08E0174
:1004B0000F5D1F4F842E912CB12CA12CA50194010E
:1004C0000E94B507E62FB901CA01EA30F4F4E05DF5
:1004D000D801EE938D01232B242B252B79F790E067
:1004E00080E0109719F0CD010E943602A1960FB658
:1004F000F894DEBF0FBECDBFDF91CF911F910F915A
:10050000BF90AF909F908F900895E95CE1CF4F929C
:100510005F926F927F928F929F92AF92BF92CF9293
:10052000DF92EF92FF920F931F93CF936B017C01A9
:10053000742EAC019B010E94B007882399F082E1E0
:1005400091E0CF911F910F91FF90EF90DF90CF90AE
:10055000BF90AF909F908F907F906F905F904F90E3
:100560000C94360246015701E894B7F82FEF3FEF9D
:100570004FE75FE7C501B4010E94B00781110DC0CC
:100580002FEF3FEF4FE75FE7C501B4010E94E6059B
:1005900018161CF486E191E0D4CF2FEF3FEF4FE720
:1005A0005FE4C701B6010E943E0718161CF48AE1F9
:1005B00091E0C7CF2FEF3FEF4FE75FECC701B601E8
:1005C0000E94E60587FDF3CF20E030E0A901C701D6
:1005D000B6010E94E60510E000E087FF0AC06DE268
:1005E0008BE291E00E94AE018C01F7FAF094F7F8EB
:1005F000F094C0E060E070E080E09FE37C1641F0A2
:1006000020E030E040E251E40E94EB05CF5FF6CFFE
:10061000A70196010E947A052B013C010E945D060C
:100620004B015C014AE00E9443027C01E00EF11E96
:10063000CC23C1F1C501B4010E948C069B01AC0121
:10064000C301B2010E9479054B015C016EE28BE2AD
:1006500091E00E94AE01E80EF91EC15018F120E0B1
:1006600030E040E251E4C501B4010E9443072B0190
:100670003C010E945D064B01B12CA12C4AE0C50152
:10068000B4010E944302E80EF91EC501B4010E94A4
:100690008C069B01AC01C301B2010E9479054B019C
:1006A0005C01DBCFC701CF911F910F91FF90EF90BD
:1006B000DF90CF90BF90AF909F908F907F906F9082
:1006C0005F904F9008951F920F920FB60F921124D2
:1006D0002F933F938F939F93AF93BF938091230169
:1006E00090912401A0912501B09126013091220121
:1006F00023E0230F2D3758F50196A11DB11D20933E
:1007000022018093230190932401A0932501B093AB
:1007100026018091270190912801A0912901B09193
:100720002A010196A11DB11D8093270190932801F4
:10073000A0932901B0932A01BF91AF919F918F910E
:100740003F912F910F900FBE0F901F90189526E8A4
:10075000230F0296A11DB11DD2CF1F920F920FB68B
:100760000F9211242F933F934F935F936F937F9337
:100770008F939F93AF93BF93EF93FF938BE291E09F
:100780000E948C01FF91EF91BF91AF919F918F914A
:100790007F916F915F914F913F912F910F900FBE7D
:1007A0000F901F9018951F920F920FB60F92112461
:1007B0002F938F939F93EF93FF93E0913B01F091E1
:1007C0003C018081E0914101F091420182FD1BC01A
:1007D0009081809144018F5F8F7320914501821732
:1007E00041F0E0914401F0E0E55DFE4F958F80938C
:1007F0004401FF91EF919F918F912F910F900FBE28
:100800000F901F9018958081F4CF789484B5826002
:1008100084BD84B5816084BD85B5826085BD85B5A4
:10082000816085BD80916E00816080936E00109222
:10083000810080918100826080938100809181009D
:10084000816080938100809180008160809380002E
:100850008091B10084608093B1008091B00081608C
:100860008093B00080917A00846080937A008091B8
:100870007A00826080937A0080917A008160809310
:100880007A0080917A00806880937A001092C1008B
:10089000E6ECF0E02491E2EBF0E08491882399F01B
:1008A00090E0880F991FFC01E859FF4FA591B49182
:1008B000FC01EA55FF4F859194918FB7F894EC9124
:1008C000E22BEC938FBF81E00E94A100E0913B01FD
:1008D000F0913C0182E08083E0913701F091380192
:1008E0001082E0913901F0913A018FEC80831092EF
:1008F0004301E0913F01F091400186E08083E09167
:100900003D01F0913E01808180618083E0913D0155
:10091000F0913E01808188608083E0913D01F091FB
:100920003E01808180688083E0913D01F0913E012D
:1009300080818F7D808382E790E00E94FB018EE1C1
:1009400091E00E9436029BE5892E94E0992E20E4E6
:10095000322ECBE9D0E00BE317E930E0A32E30E0F4
:10096000B32E80E00E94A100C4010197F1F73092FC
:100970007C0080917A00806480937A0080917A0074
:1009800086FDFCCFE0907800F0907900CE010197D1
:10099000F1F781E00E94A100C8010197F1F7B701CA
:1009A000FF0C880B990B0E948E0620E030E040EA95
:1009B00050E40E94430720E030EC4FE754E40E94EB
:1009C000EB052B013C012BE734E14EE25EE30E9494
:1009D00043072DEC3CEC4CEC5DE30E9479056B0188
:1009E0007C0120E030E0A9010E94E60587FF03C0FA
:1009F000C12CD12C76018CE990E00E94FB0142E0F1
:100A0000C301B2010E9487028CE890E00E94FB01C2
:100A100020E030E04AE754E4C701B6010E944307F2
:100A200040E00E94870285E890E00E94FB018EE191
:100A300091E00E9436020E94E9002B013C0188EE01
:100A4000C82E83E0D82EE12CF12C0E94E900641915
:100A5000750986099709683E734081059105A8F3D9
:100A600021E0C21AD108E108F10888EE480E83E0BF
:100A7000581E611C711CC114D104E104F10429F752
:100A8000A114B10409F46DCF0E947801882309F400
:100A900068CF0E94000065CFEBE2F1E01382128282
:100AA00088EE93E0A0E0B0E084839583A683B783CB
:100AB00084E091E09183808385EC90E09587848742
:100AC00084EC90E09787868780EC90E0918B808B18
:100AD00081EC90E0938B828B82EC90E0958B848B01
:100AE00086EC90E0978B868B118E128E138E148E6F
:100AF00008955058BB27AA270E9491050C9404071B
:100B00000E94F60638F00E94FD0620F039F49F3F5F
:100B100019F426F40C94F3060EF4E095E7FB0C941C
:100B2000ED06E92F0E94150758F3BA1762077307FD
:100B30008407950720F079F4A6F50C9437070EF496
:100B4000E0950B2EBA2FA02D0B01B90190010C01DD
:100B5000CA01A0011124FF27591B99F0593F50F4F5
:100B6000503E68F11A16F040A22F232F342F44274D
:100B7000585FF3CF469537952795A795F040539545
:100B8000C9F77EF41F16BA0B620B730B840BBAF015
:100B90009150A1F0FF0FBB1F661F771F881FC2F780
:100BA0000EC0BA0F621F731F841F48F48795779594
:100BB0006795B795F7959E3F08F0B0CF9395880F4E
:100BC00008F09927EE0F9795879508950E94C9061A
:100BD00008F481E008950E94FF050C9404070E9428
:100BE000FD0658F00E94F60640F029F45F3F29F018
:100BF0000C94ED0651110C9438070C94F3060E94E6
:100C0000150768F39923B1F3552391F3951B550B01
:100C1000BB27AA2762177307840738F09F5F5F4FCF
:100C2000220F331F441FAA1FA9F335D00E2E3AF00E
:100C3000E0E832D091505040E695001CCAF72BD026
:100C4000FE2F29D0660F771F881FBB1F2617370777
:100C50004807AB07B0E809F0BB0B802DBF01FF27A9
:100C600093585F4F3AF09E3F510578F00C94ED0693
:100C70000C9438075F3FE4F3983ED4F3869577955C
:100C80006795B795F7959F5FC9F7880F911D969562
:100C9000879597F90895E1E0660F771F881FBB1FBE
:100CA000621773078407BA0720F0621B730B840B6B
:100CB000BA0BEE1F88F7E09508950E941D0788F093
:100CC0009F5798F0B92F9927B751B0F0E1F0660F10
:100CD000771F881F991F1AF0BA95C9F714C0B13051
:100CE00091F00E943707B1E008950C943707672F01
:100CF000782F8827B85F39F0B93FCCF38695779580
:100D00006795B395D9F73EF4909580957095619568
:100D10007F4F8F4F9F4F0895E89409C097FB3EF493
:100D200090958095709561957F4F8F4F9F4F992338
:100D3000A9F0F92F96E9BB279395F69587957795B6
:100D40006795B795F111F8CFFAF4BB0F11F460FF76
:100D50001BC06F5F7F4F8F4F9F4F16C0882311F0CE
:100D600096E911C0772321F09EE8872F762F05C0E2
:100D7000662371F096E8862F70E060E02AF09A957D
:100D8000660F771F881FDAF7880F9695879597F972
:100D90000895990F0008550FAA0BE0E8FEEF16160C
:100DA0001706E807F907C0F012161306E407F5075F
:100DB00098F0621B730B840B950B39F40A2661F0D3
:100DC000232B242B252B21F408950A2609F4A14076
:100DD000A6958FEF811D811D089597F99F6780E883
:100DE00070E060E008959FEF80EC089500240A947D
:100DF0001616170618060906089500240A941216F6
:100E00001306140605060895092E0394000C11F428
:100E1000882352F0BB0F40F4BF2B11F460FF04C0D5
:100E20006F5F7F4F8F4F9F4F089557FD9058440F2E
:100E3000551F59F05F3F71F04795880F97FB991F39
:100E400061F09F3F79F087950895121613061406F6
:100E5000551FF2CF4695F1DF08C016161706180683
:100E6000991FF1CF86957105610508940895E8945E
:100E7000BB2766277727CB0197F908950E94C906FB
:100E800008F48FEF08950E9456070C9404070E94FF
:100E9000F60638F00E94FD0620F0952311F00C9420
:100EA000ED060C94F30611240C9438070E941507E4
:100EB00070F3959FC1F3950F50E0551F629FF001AD
:100EC000729FBB27F00DB11D639FAA27F00DB11DC6
:100ED000AA1F649F6627B00DA11D661F829F22274F
:100EE000B00DA11D621F739FB00DA11D621F839FD6
:100EF000A00D611D221F749F3327A00D611D231FAC
:100F0000849F600D211D822F762F6A2F11249F57F9
:100F100050409AF0F1F088234AF0EE0FFF1FBB1FFC
:100F2000661F771F881F91505040A9F79E3F5105BB
:100F300080F00C94ED060C9438075F3FE4F3983E84
:100F4000D4F3869577956795B795F795E7959F5F65
:100F5000C1F7FE2B880F911D9695879597F90895F7
:100F60000E94C906880B990B0895A1E21A2EAA1BAC
:100F7000BB1BFD010DC0AA1FBB1FEE1FFF1FA21749
:100F8000B307E407F50720F0A21BB30BE40BF50B46
:100F9000661F771F881F991F1A9469F760957095CF
:100FA000809590959B01AC01BD01CF010895EE0F96
:0E0FB000FF1F0590F491E02D0994F894FFCFF7
:100FBE0000000000AE010E013B0116026C014A0159
:100FCE005E016E616E00696E66006F7666000D0AD8
:020FDE00000011
:00000001FF
