:100000000C948C000C94B4000C94B4000C94B400C8
:100010000C94B4000C94B4000C94B4000C94B40090
:100020000C94B4000C94B4000C94B4000C94B40080
:100030000C94B4000C94B4000C94B4000C94B40070
:100040000C9469020C94B4000C94D9020C94B30281
:100050000C94B4000C94B4000C94B4000C94B40050
:100060000C94B4000C94B40000000000240027009D
:100070002A005B37305D204D512D34203A207072BC
:10008000656368617566666167652031206120324D
:10009000206D696E757465732E2E2E0000000000B1
:1000A00023002600290020206E6F726D616C0020F5
:1000B00020414C455254452047415A2021004D656E
:1000C0007468616E65202862727574293A20000098
:1000D000000000250028002B00040404040404048C
:1000E00004020202020202030303030303010204E7
:1000F00008102040800102040810200102040810AA
:1001000020000000080002010000030407000000B6
:100110000000000000009A0411241FBECFEFD8E0B9
:10012000DEBFCDBF11E0A0E0B1E0E2EEF9E002C039
:1001300005900D92A631B107D9F721E0A6E1B1E013
:1001400001C01D92AC3BB207E1F710E0CCE8D0E073
:1001500004C02197FE010E94E904CB38D107C9F7FA
:100160000E940B030C94EF040C940000833081F088
:1001700028F4813099F08230A9F008958730A9F0F1
:100180008830C9F08430B1F4809180008F7D03C045
:10019000809180008F7780938000089584B58F7759
:1001A00084BD089584B58F7DFBCF8091B0008F779B
:1001B0008093B00008958091B0008F7DF9CF1F9398
:1001C000CF93DF93EEE0F1E09491EAEFF0E0D49189
:1001D000E6EEF0E0C491CC23B9F0182F992319F082
:1001E000892F0E94B600EC2FF0E0EE0FFF1FE153C5
:1001F000FF4FA591B4918FB7F894EC91111108C0FD
:10020000D095DE23DC938FBFDF91CF911F910895AE
:10021000DE2BF8CF3FB7F89480911B0190911C0121
:10022000A0911D01B0911E0126B5A89B05C02F3FCE
:1002300019F00196A11DB11D3FBFBA2FA92F982F0C
:100240008827BC01CD01620F711D811D911D42E007
:10025000660F771F881F991F4A95D1F70895AF92AF
:10026000BF92CF92DF92EF92FF920F931F93CF93A3
:10027000DF936C017B018B01040F151FEB015E0105
:10028000AE18BF08C017D10759F06991D601ED919A
:10029000FC910190F081E02DC6010995892B79F739
:1002A000C501DF91CF911F910F91FF90EF90DF90EB
:1002B000CF90BF90AF900895FC01538D448D252FB2
:1002C00030E0842F90E0821B930B541710F0CF96F0
:1002D000089501970895FC01918D828D981761F022
:1002E000A28DAE0FBF2FB11D5D968C91928D9F5F39
:1002F0009F73928F90E008958FEF9FEF0895FC0118
:10030000918D828D981731F0828DE80FF11D858DCA
:1003100090E008958FEF9FEF0895FC01918D228D5D
:10032000892F90E0805C9F4F821B91098F739927E2
:1003300008958FE191E00E948D0121E0892B09F45D
:1003400020E0822F089580E090E0892B29F00E9420
:10035000990181110C9400000895FC01A48DA80F4F
:10036000B92FB11DA35ABF4F2C91848D90E00196F7
:100370008F739927848FA689B7892C93A089B18917
:100380008C91837080648C93938D848D981306C0B8
:100390000288F389E02D80818F7D80830895EF921C
:1003A000FF920F931F93CF93DF93EC0181E0888F2F
:1003B0009B8D8C8D98131AC0E889F989808185FFFF
:1003C00015C09FB7F894EE89FF896083E889F989A1
:1003D00080818370806480839FBF81E090E0DF91A3
:1003E000CF911F910F91FF90EF900895F62E0B8DF6
:1003F00010E00F5F1F4F0F731127E02E8C8D8E11B1
:100400000CC00FB607FCFACFE889F989808185FF17
:10041000F5CFCE010E94AD01F1CFEB8DEC0FFD2F9A
:10042000F11DE35AFF4FF0829FB7F8940B8FEA89D2
:10043000FB8980818062CFCF0F931F93CF93DF938F
:100440008C01D0E0C0E0F801EC0FFD1F6491662341
:1004500041F08FE191E00E94CF01892B11F02196AC
:10046000F2CFCE01DF91CF911F910F910895CF93DD
:10047000DF93EC01888D8823B9F0AA89BB89E889CC
:10048000F9898C9185FD03C0808186FD0DC00FB672
:1004900007FCF7CF8C9185FFF2CF808185FFEDCFF0
:1004A000CE010E94AD01E9CFDF91CF910895CF93A6
:1004B000DF930E941C02EC0142E050E062E171E037
:1004C0008FE191E00E942F018C0F9D1FDF91CF9152
:1004D00008951F920F920FB60F9211242F933F93FE
:1004E0008F939F93AF93BF938091170190911801C1
:1004F000A0911901B0911A013091160123E0230F48
:100500002D3758F50196A11DB11D2093160180933A
:10051000170190931801A0931901B0931A018091CB
:100520001B0190911C01A0911D01B0911E0101962B
:10053000A11DB11D80931B0190931C01A0931D016F
:10054000B0931E01BF91AF919F918F913F912F91D9
:100550000F900FBE0F901F90189526E8230F02965C
:10056000A11DB11DD2CF1F920F920FB60F92112471
:100570002F933F934F935F936F937F938F939F93AB
:10058000AF93BF93EF93FF938FE191E00E94AD0192
:10059000FF91EF91BF91AF919F918F917F916F915B
:1005A0005F914F913F912F910F900FBE0F901F9031
:1005B00018951F920F920FB60F9211242F938F93BD
:1005C0009F93EF93FF93E0912F01F0913001808191
:1005D000E0913501F091360182FD1BC09081809140
:1005E00038018F5F8F7320913901821741F0E091BC
:1005F0003801F0E0E15EFE4F958F80933801FF9166
:10060000EF919F918F912F910F900FBE0F901F90A0
:1006100018958081F4CFCF93DF93CDB7DEB7A19744
:100620000FB6F894DEBF0FBECDBF789484B582605C
:1006300084BD84B5816084BD85B5826085BD85B586
:10064000816085BD80916E00816080936E00109204
:10065000810080918100826080938100809181007F
:100660008160809381008091800081608093800010
:100670008091B10084608093B1008091B00081606E
:100680008093B00080917A00846080937A0080919A
:100690007A00826080937A0080917A0081608093F2
:1006A0007A0080917A00806880937A001092C1006D
:1006B000EFEEF0E024915BED252E50E0352EF101B8
:1006C00084918823C9F090E0880F991FFC01E859B4
:1006D000FF4FA591B491FC01E153FF4F4591549117
:1006E0003FB7F8949C91822F809598239C93FA01B0
:1006F0009081892380833FBFEAEFF0E02491E6EE0A
:10070000F0E08491882399F090E0880F991FFC0114
:10071000E859FF4FA591B491FC01E153FF4F85913A
:1007200094918FB7F894EC91E22BEC938FBFE0910A
:100730002F01F091300182E08083E0912B01F09154
:100740002C011082E0912D01F0912E018FEC80831D
:1007500010923701E0913301F091340186E08083FB
:10076000E0913101F0913201808180618083E091DC
:100770003101F0913201808188608083E091310104
:10078000F0913201808180688083E0913101F091A5
:10079000320180818F7D808382E790E00E94570242
:1007A0002AE0422E512C612C712CF0E4F0937C0055
:1007B00080917A00806480937A0080917A0086FD2F
:1007C000FCCFC0907800D0907900E3E0F1E0849114
:1007D000EFEEF0E00491F1011491F12CE12C1123E2
:1007E00099F081110E94B600E12FF0E0EE0FFF1F9B
:1007F000E456FF4FA591B4918C91082391E080E0DD
:1008000009F490E0E92EF82E8EEB90E00E941C0295
:1008100046010D2C000CAA08BB08B7FE6FC06DE2A4
:100820008FE191E00E94CF0122273327A9012819E7
:1008300039094A095B0919A28E010F5D1F4FCA01D0
:10084000B901A30192010E94C704605DF80162939F
:100850008F01211531054105510589F70115110554
:1008600061F001900020E9F73197AF01401B510B77
:10087000B8018FE191E00E942F01F1E9CF16F1E07C
:10088000DF061CF4EF2809F04FC08FEA90E00E94C9
:10089000570281E00E94DF000E940A014B015C01C7
:1008A00084EFC82EDD24D394E12CF12C0E940A01A0
:1008B000681979098A099B09683E73408105910589
:1008C000A8F321E0C21AD108E108F10888EE880EE9
:1008D00083E0981EA11CB11CC114D104E104F104F1
:1008E00029F780E090E0892B09F45FCF0E949901FD
:1008F000882309F45ACF0E94000057CFA501940124
:1009000019A28E010F5D1F4FCA01B901A301920107
:100910000E94C704605DF80162938F0121153105C3
:100920004105510589F79ACF86EA90E00E94570267
:1009300080E0B0CFEFE1F1E01382128288EE93E025
:10094000A0E0B0E084839583A683B78384E091E040
:100950009183808385EC90E09587848784EC90E098
:100960009787868780EC90E0918B808B81EC90E07C
:10097000938B828B82EC90E0958B848B86EC90E05D
:10098000978B868B118E128E138E148E0895A1E292
:100990001A2EAA1BBB1BFD010DC0AA1FBB1FEE1FF9
:1009A000FF1FA217B307E407F50720F0A21BB30B44
:1009B000E40BF50B661F771F881F991F1A9469F7C0
:1009C00060957095809590959B01AC01BD01CF011C
:1009D0000895EE0FFF1F0590F491E02D0994F8940F
:0209E000FFCF47
:1009E20000000000CF012F015C0137028D016B0175
:0609F2007F010D0A000068
:00000001FF
