:100000000C947B000C94A3000C94A3000C94A3000C
:100010000C94A3000C94A3000C94A3000C94A300D4
:100020000C94A3000C94A3000C94A3000C94A300C4
:100030000C94A3000C94A3000C94A3000C94A300B4
:100040000C942C020C94A3000C949C020C94760249
:100050000C94A3000C94A3000C94A3000C94A30094
:100060000C94A3000C94A3000000000024002700BF
:100070002A005B31325D204D512D32203A207072C2
:100080006563686175666661676520323020732E2E
:100090002E2E0000000000250028002B0004040480
:1000A0000404040404020202020202030303030321
:1000B00003010204081020408001020408102001FE
:1000C00002040810200000000800020100000304E0
:1000D00007000000000000000020204F4B002020FF
:1000E00021212120414C41524D4520212121004711
:1000F000617A3D00510411241FBECFEFD8E0DEBF6E
:10010000CDBF11E0A0E0B1E0E0E5F9E002C005906C
:100110000D92A631B107D9F721E0A6E1B1E001C007
:100120001D92AC3BB207E1F710E0CBE7D0E004C092
:100130002197FE010E94A004CA37D107C9F70E9487
:10014000CE020C94A6040C9400003FB7F894809162
:100150001B0190911C01A0911D01B0911E0126B5BB
:10016000A89B05C02F3F19F00196A11DB11D3FBFEF
:10017000BA2FA92F982F8827BC01CD01620F711DBE
:10018000811D911D42E0660F771F881F991F4A95B8
:10019000D1F708958F929F92AF92BF92CF92DF9244
:1001A000EF92FF924B015C010E94A5006B017C0164
:1001B0000E94A5006C197D098E099F09683E734055
:1001C00081059105A8F321E0821A9108A108B108E0
:1001D00088EEC80E83E0D81EE11CF11C8114910446
:1001E000A104B10429F7FF90EF90DF90CF90BF906A
:1001F000AF909F908F900895AF92BF92CF92DF9271
:10020000EF92FF920F931F93CF93DF936C017B01CB
:100210008B01040F151FEB015E01AE18BF08C0175C
:10022000D10759F06991D601ED91FC910190F081CF
:10023000E02DC6010995892B79F7C501DF91CF9192
:100240001F910F91FF90EF90DF90CF90BF90AF90F4
:100250000895FC01538D448D252F30E0842F90E0CC
:10026000821B930B541710F0CF96089501970895B1
:10027000FC01918D828D981761F0A28DAE0FBF2F7A
:10028000B11D5D968C91928D9F5F9F73928F90E0D0
:1002900008958FEF9FEF0895FC01918D828D98173F
:1002A00031F0828DE80FF11D858D90E008958FEF7C
:1002B0009FEF0895FC01918D228D892F90E0805C45
:1002C0009F4F821B91098F73992708958FE191E0C9
:1002D0000E945A0121E0892B09F420E0822F089521
:1002E00080E090E0892B29F00E94660181110C9436
:1002F00000000895FC01A48DA80FB92FB11DA35AC9
:10030000BF4F2C91848D90E001968F739927848F35
:10031000A689B7892C93A089B1898C918370806458
:100320008C93938D848D981306C00288F389E02DF9
:1003300080818F7D80830895EF92FF920F931F93AA
:10034000CF93DF93EC0181E0888F9B8D8C8D981388
:100350001AC0E889F989808185FF15C09FB7F89494
:10036000EE89FF896083E889F989808183708064E0
:1003700080839FBF81E090E0DF91CF911F910F912B
:10038000FF90EF900895F62E0B8D10E00F5F1F4F3A
:100390000F731127E02E8C8D8E110CC00FB607FC49
:1003A000FACFE889F989808185FFF5CFCE010E94D7
:1003B0007A01F1CFEB8DEC0FFD2FF11DE35AFF4FCA
:1003C000F0829FB7F8940B8FEA89FB898081806265
:1003D000CFCF0F931F93CF93DF938C01D0E0C0E07A
:1003E000F801EC0FFD1F6491662341F08FE191E06D
:1003F0000E949C01892B11F02196F2CFCE01DF9152
:10040000CF911F910F910895CF93DF93EC01888DC9
:100410008823B9F0AA89BB89E889F9898C9185FD7F
:1004200003C0808186FD0DC00FB607FCF7CF8C910D
:1004300085FFF2CF808185FFEDCFCE010E947A014A
:10044000E9CFDF91CF91089542E050E062E171E0A1
:100450008FE191E00C94FC001F920F920FB60F9267
:1004600011242F933F938F939F93AF93BF938091CA
:10047000170190911801A0911901B0911A013091C2
:10048000160123E0230F2D3758F50196A11DB11D4C
:10049000209316018093170190931801A0931901DE
:1004A000B0931A0180911B0190911C01A0911D0134
:1004B000B0911E010196A11DB11D80931B01909367
:1004C0001C01A0931D01B0931E01BF91AF919F919C
:1004D0008F913F912F910F900FBE0F901F90189505
:1004E00026E8230F0296A11DB11DD2CF1F920F92B5
:1004F0000FB60F9211242F933F934F935F936F93F7
:100500007F938F939F93AF93BF93EF93FF938FE16D
:1005100091E00E947A01FF91EF91BF91AF919F917D
:100520008F917F916F915F914F913F912F910F909C
:100530000FBE0F901F9018951F920F920FB60F923B
:1005400011242F938F939F93EF93FF93E0912F01AB
:10055000F09130018081E0913501F091360182FD0A
:100560001BC09081809138018F5F8F73209139017A
:10057000821741F0E0913801F0E0E15EFE4F958F87
:1005800080933801FF91EF919F918F912F910F9060
:100590000FBE0F901F9018958081F4CFCF93DF93FB
:1005A000CDB7DEB7A1970FB6F894DEBF0FBECDBFB3
:1005B000789484B5826084BD84B5816084BD85B53E
:1005C000826085BD85B5816085BD80916E0081604A
:1005D00080936E00109281008091810082608093F0
:1005E00081008091810081608093810080918000F2
:1005F0008160809380008091B10084608093B1001D
:100600008091B00081608093B00080917A00846016
:1006100080937A0080917A00826080937A00809142
:100620007A00816080937A0080917A00806880935C
:100630007A001092C100E9EBF0E0249155EAC52E52
:1006400050E0D52EF6018491882399F090E0880F30
:10065000991FFC01E859FF4FA591B491FC01ED569B
:10066000FF4F859194918FB7F8949C91292B2C93EF
:100670008FBFE0912F01F091300182E08083E09103
:100680002B01F0912C011082E0912D01F0912E01AF
:100690008FEC808310923701E0913301F0913401A7
:1006A00086E08083E0913101F091320180818061A8
:1006B0008083E0913101F0913201808188608083F4
:1006C000E0913101F0913201808180688083E09176
:1006D0003101F091320180818F7D808382E790E04B
:1006E0000E94E9010E94240260E27EE480E090E042
:1006F0000E94CA002DEC222E20E0322E3AE0432E3A
:10070000512C612C712CF0E4F0937C0080917A00E4
:10071000806480937A0080917A0086FDFCCFE0901F
:100720007800F0907900F1019491E9EBF0E0849188
:10073000F6012491222311F1992359F0933009F401
:1007400081C008F074C0913009F482C0923009F47D
:1007500083C0E22FF0E0EE0FFF1FED56FF4FA59193
:10076000B4919FB7F8942C91F1E9EF16F1E0FF06F0
:100770000CF07FC0809582238C939FBF8FEE90E01A
:100780000E94E90147010F2C000CAA08BB08B7FE24
:1007900072C06DE28FE191E00E949C012227332715
:1007A000A901281939094A095B0919A28E010F5DAF
:1007B0001F4FCA01B901A30192010E947E04605D2E
:1007C000F80162938F01211531054105510589F723
:1007D0000115110561F001900020E9F73197AF0193
:1007E000401B510BB8018FE191E00E94FC0089EDA4
:1007F00090E0F1E9EF16F1E0FF0614F08EED90E0E5
:100800000E94E9010E94240264EF71E080E090E020
:100810000E94CA0080E090E0892B09F474CF0E9406
:100820006601882309F46FCF0E9400006CCF9730D7
:10083000B1F09830D1F0943009F08BCF90918000D6
:100840009F7D03C0909180009F779093800081CF1F
:1008500094B59F7794BD7DCF94B59F7DFBCF90914C
:10086000B0009F779093B00074CF9091B0009F7DBF
:10087000F9CF822B81CFA501940119A28E010F5DC2
:100880001F4FCA01B901A30192010E947E04605D5D
:10089000F80162938F01211531054105510589F752
:1008A00097CFEFE1F1E01382128288EE93E0A0E0AF
:1008B000B0E084839583A683B78384E091E091833D
:1008C000808385EC90E09587848784EC90E097871F
:1008D000868780EC90E0918B808B81EC90E0938B0D
:1008E000828B82EC90E0958B848B86EC90E0978BEA
:1008F000868B118E128E138E148E0895A1E21A2EFD
:10090000AA1BBB1BFD010DC0AA1FBB1FEE1FFF1FB3
:10091000A217B307E407F50720F0A21BB30BE40B03
:10092000F50B661F771F881F991F1A9469F760954A
:100930007095809590959B01AC01BD01CF01089504
:10094000EE0FFF1F0590F491E02D0994F894FFCF6E
:10095000000000009C01FC00290104025A0138013A
:060960004C010D0A00002D
:00000001FF
