:100000000C9473000C949B000C949B000C949B002C
:100010000C949B000C949B000C949B000C949B00F4
:100020000C949B000C949B000C949B000C949B00E4
:100030000C949B000C949B000C949B000C949B00D4
:100040000C94F6010C949B000C9466020C944002F4
:100050000C949B000C949B000C949B000C949B00B4
:100060000C949B000C949B000000000024002700CF
:100070002A005B33335D2053572D353230442070D6
:1000800072657400000000002300260029000000B3
:100090000000250028002B000404040404040404C8
:1000A0000202020202020303030303030102040823
:1000B00010204080010204081020010204081020D2
:1000C0000000000800020100000304070000000017
:1000D0000000000044726F697400496E636C696EC1
:1000E00065202100050411241FBECFEFD8E0DEBF3C
:1000F000CDBF11E0A0E0B1E0E4E7F8E002C0059078
:100100000D92AA31B107D9F721E0AAE1B1E001C00F
:100110001D92A43CB207E1F710E0C3E7D0E004C0B1
:100120002197FE010E943204C237D107C9F70E940D
:1001300098020C9438040C940000833081F028F469
:10014000813099F08230A9F008958730A9F0883085
:10015000C9F08430B1F4809180008F7D03C080911C
:1001600080008F7780938000089584B58F7784BD59
:10017000089584B58F7DFBCF8091B0008F778093F9
:10018000B00008958091B0008F7DF9CFAF92BF92FB
:10019000CF92DF92EF92FF920F931F93CF93DF9353
:1001A0006C017B018B01040F151FEB015E01AE1882
:1001B000BF08C017D10759F06991D601ED91FC91A4
:1001C0000190F081E02DC6010995892B79F7C501D1
:1001D000DF91CF911F910F91FF90EF90DF90CF9023
:1001E000BF90AF90089542E050E066E171E087E291
:1001F00091E00C94C600FC01538D448D252F30E016
:10020000842F90E0821B930B541710F0CF96089523
:1002100001970895FC01918D828D981761F0A28D50
:10022000AE0FBF2FB11D5D968C91928D9F5F9F7316
:10023000928F90E008958FEF9FEF0895FC01918DCC
:10024000828D981731F0828DE80FF11D858D90E039
:1002500008958FEF9FEF0895FC01918D228D892FD6
:1002600090E0805C9F4F821B91098F7399270895BE
:1002700087E291E00E942C0121E0892B09F420E023
:10028000822F089580E090E0892B29F00E943801A8
:1002900081110C9400000895FC01A48DA80FB92FC2
:1002A000B11DA35ABF4F2C91848D90E001968F739E
:1002B0009927848FA689B7892C93A089B1898C91BD
:1002C000837080648C93938D848D981306C002880C
:1002D000F389E02D80818F7D80830895EF92FF92D6
:1002E0000F931F93CF93DF93EC0181E0888F9B8D59
:1002F0008C8D98131AC0E889F989808185FF15C013
:100300009FB7F894EE89FF896083E889F989808135
:100310008370806480839FBF81E090E0DF91CF9104
:100320001F910F91FF90EF900895F62E0B8D10E026
:100330000F5F1F4F0F731127E02E8C8D8E110CC095
:100340000FB607FCFACFE889F989808185FFF5CFE0
:10035000CE010E944C01F1CFEB8DEC0FFD2FF11D72
:10036000E35AFF4FF0829FB7F8940B8FEA89FB891D
:1003700080818062CFCF0F931F93CF93DF938C0147
:10038000D0E0C0E0F801EC0FFD1F6491662341F05E
:1003900087E291E00E946E01892B11F02196F2CF45
:1003A000CE01DF91CF911F910F910895CF93DF93ED
:1003B000EC01888D8823B9F0AA89BB89E889F9897D
:1003C0008C9185FD03C0808186FD0DC00FB607FCB2
:1003D000F7CF8C9185FFF2CF808185FFEDCFCE01E5
:1003E0000E944C01E9CFDF91CF9108951F920F92A7
:1003F0000FB60F9211242F933F938F939F93AF9338
:10040000BF938091230190912401A0912501B09187
:1004100026013091220123E0230F2D3758F5019654
:10042000A11DB11D209322018093230190932401EB
:10043000A0932501B093260180911E0190911F0188
:10044000A0912001B09121010196A11DB11D8093C1
:100450001E0190931F01A0932001B0932101BF9131
:10046000AF919F918F913F912F910F900FBE0F9061
:100470001F90189526E8230F0296A11DB11DD2CF1B
:100480001F920F920FB60F9211242F933F934F9309
:100490005F936F937F938F939F93AF93BF93EF93EC
:1004A000FF9387E291E00E944C01FF91EF91BF9191
:1004B000AF919F918F917F916F915F914F913F91FC
:1004C0002F910F900FBE0F901F9018951F920F92B3
:1004D0000FB60F9211242F938F939F93EF93FF9357
:1004E000E0913701F09138018081E0913D01F09178
:1004F0003E0182FD1BC09081809140018F5F8F7310
:1005000020914101821741F0E0914001F0E0E95D66
:10051000FE4F958F80934001FF91EF919F918F91B6
:100520002F910F900FBE0F901F9018958081F4CFE0
:10053000789484B5826084BD84B5816084BD85B5BE
:10054000826085BD85B5816085BD80916E008160CA
:1005500080936E0010928100809181008260809370
:100560008100809181008160809381008091800072
:100570008160809380008091B10084608093B1009D
:100580008091B00081608093B00080917A00846097
:1005900080937A0080917A00826080937A008091C3
:1005A0007A00816080937A0080917A0080688093DD
:1005B0007A001092C100EEEACE2EE0E0DE2EF601C7
:1005C0002491FAE9AF2EF0E0BF2EF5018491882343
:1005D000C1F090E0880F991FFC01E859FF4FA591E9
:1005E000B491FC01E257FF4FC591D4919FB7F894A5
:1005F0003C91822F809583238C938881282B28839C
:100600009FBF09EB10E0F801249165EAE62E60E057
:10061000F62EF7018491882399F090E0880F991FB6
:10062000FC01E859FF4FA591B491FC01E257FF4F3F
:10063000859194918FB7F8949C91292B2C938FBF1F
:10064000E0913701F091380182E08083E09133013D
:10065000F09134011082E0913501F09136018FEC78
:10066000808310923F01E0913B01F0913C0186E0D4
:100670008083E0913901F0913A018081806180832B
:10068000E0913901F0913A01808188608083E091A6
:100690003901F0913A01808180688083E0913901CD
:1006A000F0913A0180818F7D808382E790E00E9403
:1006B000BB010E94F30022EC422E20E0522E3DECC2
:1006C000632E30E0732E40E0842E40E0942EF20141
:1006D0008491F601C491F501D491DD2309F48DC014
:1006E00081110E949D00ED2FF0E0EE0FFF1FEC57EF
:1006F000FF4FA591B4918C91C82391E080E009F45B
:1007000090E0C92FD82F80910201909103018C179E
:100710009D0799F02FB7F8948091230190912401BF
:10072000A0912501B09126012FBF80931A019093CB
:100730001B01A0931C01B0931D012FB7F894809169
:10074000230190912401A0912501B09126012FBF92
:1007500040911A0150911B0160911C0170911D0183
:10076000841B950BA60BB70BC397A105B10508F425
:1007700034C080910001909101018C179D0769F1AF
:10078000D0930101C0930001F3018491F8013490EA
:10079000F70124902220A9F081110E949D00E22DF2
:1007A000F0E0EE0FFF1FE257FF4FA591B4918FB716
:1007B000F8949C91C130D10519F1309439223C92C2
:1007C0008FBF80910001909101010197D9F084EDD4
:1007D00090E00E94BB010E94F300D0930301C093FC
:1007E00002018114910409F472CF0E943801882318
:1007F00009F46DCF0E9400006ACFD0E0C0E083CF43
:10080000392ADDCF8AED90E0E4CFE7E2F1E0138210
:10081000128288EE93E0A0E0B0E084839583A68303
:10082000B78388E091E09183808385EC90E09587A1
:10083000848784EC90E09787868780EC90E0918BAA
:10084000808B81EC90E0938B828B82EC90E0958B97
:10085000848B86EC90E0978B868B118E128E138E94
:10086000148E0895EE0FFF1F0590F491E02D09946A
:04087000F894FFCF2A
:1008740001000100000000006E01C600FB00D6016B
:0A0884002C010A011E010D0A0000FC
:00000001FF
