:100000000C9466000C948E000C948E000C948E0060
:100010000C948E000C948E000C948E000C94B40200
:100020000C948E000C948E000C948E000C948E0018
:100030000C948E000C948E000C948E000C948E0008
:100040000C946A020C948E000C9436030C941003EA
:100050000C948E000C948E000C948E000C948E00E8
:100060000C948E000C948E00000000080002010029
:100070000003040700000000000000005B31315D58
:100080002042757A7A6572207072657400000000F3
:1000900000240027002A00010204081020408001EB
:1000A00002040810200102040810200000000025AE
:1000B0000028002B000404040404040404020202C7
:1000C000020202030303030303022D0611241FBED1
:1000D000CFEFD8E0DEBFCDBF11E0A0E0B1E0E4E6B5
:1000E000FDE002C005900D92A632B107D9F721E0DC
:1000F000A6E2B1E001C01D92AD3DB207E1F710E00C
:10010000C6E6D0E004C02197FE010E94AA06C536CB
:10011000D107C9F70E9468030C94B0060C94000044
:100120003FB7F8948091D9019091DA01A091DB0159
:10013000B091DC0126B5A89B05C02F3F19F00196B0
:10014000A11DB11D3FBFBA2FA92F982F8827BC0131
:10015000CD01620F711D811D911D42E0660F771F59
:10016000881F991F4A95D1F708958F929F92AF9259
:10017000BF92CF92DF92EF92FF924B015C010E94FF
:1001800090006B017C010E9490006C197D098E0922
:100190009F09683E734081059105A8F321E0821A0A
:1001A0009108A108B10888EEC80E83E0D81EE11CB2
:1001B000F11C81149104A104B10429F7FF90EF9080
:1001C000DF90CF90BF90AF909F908F9008959091C7
:1001D000000189130DC0E9ECF0E0E4919FEF9093EA
:1001E0000001E13009F431C068F1E23009F433C0B4
:1001F00090E0FC01E859FF4F2491FC01E956FF4FC4
:100200003491FC01EB54FF4FE491EE23D1F0222313
:1002100051F0233009F43AC078F5213009F43CC09C
:10022000223009F43DC0F0E0EE0FFF1FE555FF4F0F
:10023000A591B4918FB7F894EC9130953E233C93FF
:100240008FBF089510926E00D3CF90916F009D7F65
:1002500090936F00CDCF909170009D7F9093700030
:1002600091E09093B0009091B100987F946090934A
:10027000B1001092B300BCCF2730A9F02830C9F0EC
:10028000243089F6809180008F7D03C080918000AA
:100290008F7780938000C7CF84B58F7784BDC3CF1D
:1002A00084B58F7DFBCF8091B0008F778093B000B5
:1002B000BACF8091B0008F7DF9CFAF92BF92CF922D
:1002C000DF92EF92FF920F931F93CF93DF936C0116
:1002D0007B018B01040F151FEB015E01AE18BF08F7
:1002E000C017D10759F06991D601ED91FC910190A9
:1002F000F081E02DC6010995892B79F7C501DF91C1
:10030000CF911F910F91FF90EF90DF90CF90BF9012
:10031000AF900895FC01538D448D252F30E0842F3C
:1003200090E0821B930B541710F0CF96089501971D
:100330000895FC01918D828D981761F0A28DAE0F0A
:10034000BF2FB11D5D968C91928D9F5F9F73928F91
:1003500090E008958FEF9FEF0895FC01918D828DBD
:10036000981731F0828DE80FF11D858D90E008958A
:100370008FEF9FEF0895FC01918D228D892F90E0E2
:10038000805C9F4F821B91098F739927089586E2A5
:1003900091E00E94BB0121E0892B09F420E0822F2B
:1003A000089580E090E0892B29F00E94C701811117
:1003B0000C9400000895FC01A48DA80FB92FB11D65
:1003C000A35ABF4F2C91848D90E001968F7399278B
:1003D000848FA689B7892C93A089B1898C91837069
:1003E00080648C93938D848D981306C00288F38962
:1003F000E02D80818F7D80830895EF92FF920F938F
:100400001F93CF93DF93EC0181E0888F9B8D8C8DC0
:1004100098131AC0E889F989808185FF15C09FB7B4
:10042000F894EE89FF896083E889F9898081837077
:10043000806480839FBF81E090E0DF91CF911F9126
:100440000F91FF90EF900895F62E0B8D10E00F5F47
:100450001F4F0F731127E02E8C8D8E110CC00FB61D
:1004600007FCFACFE889F989808185FFF5CFCE01B5
:100470000E94DB01F1CFEB8DEC0FFD2FF11DE35A54
:10048000FF4FF0829FB7F8940B8FEA89FB89808138
:100490008062CFCFCF93DF93EC01888D8823B9F0B2
:1004A000AA89BB89E889F9898C9185FD03C080817F
:1004B00086FD0DC00FB607FCF7CF8C9185FFF2CFFC
:1004C000808185FFEDCFCE010E94DB01E9CFDF9176
:1004D000CF9108951F920F920FB60F9211242F9370
:1004E0003F938F939F93AF93BF938091D50190914A
:1004F000D601A091D701B091D8013091D40123E069
:10050000230F2D3758F50196A11DB11D2093D4015D
:100510008093D5019093D601A093D701B093D801D1
:100520008091D9019091DA01A091DB01B091DC01B9
:100530000196A11DB11D8093D9019093DA01A0937A
:10054000DB01B093DC01BF91AF919F918F913F91FF
:100550002F910F900FBE0F901F90189526E8230F34
:100560000296A11DB11DD2CF1F920F920FB60F920E
:1005700011242F933F934F935F936F937F938F93A8
:100580009F93AF93BF93EF93FF938091C801909196
:10059000C901A091CA01B091CB01892B8A2B8B2B69
:1005A000D1F19091C301E091C401F091C501808126
:1005B000892780838091C8019091C901A091CA01C7
:1005C000B091CB01181619061A061B069CF48091EF
:1005D000C8019091C901A091CA01B091CB010197C6
:1005E000A109B1098093C8019093C901A093CA01E0
:1005F000B093CB01FF91EF91BF91AF919F918F91FC
:100600007F916F915F914F913F912F910F900FBE0E
:100610000F901F901895809100010E94E700EACF8B
:100620001F920F920FB60F9211242F933F934F9367
:100630005F936F937F938F939F93AF93BF93EF934A
:10064000FF9386E291E00E94DB01FF91EF91BF9161
:10065000AF919F918F917F916F915F914F913F915A
:100660002F910F900FBE0F901F9018951F920F9211
:100670000FB60F9211242F938F939F93EF93FF93B5
:10068000E0913601F09137018081E0913C01F091D9
:100690003D0182FD1BC0908180913F018F5F8F7370
:1006A00020914001821741F0E0913F01F0E0EA5DC6
:1006B000FE4F958F80933F01FF91EF919F918F9116
:1006C0002F910F900FBE0F901F9018958081F4CF3F
:1006D000CF93DF9300D000D01F92CDB7DEB77894D0
:1006E00084B5826084BD84B5816084BD85B5826037
:1006F00085BD85B5816085BD80916E0081608093E8
:100700006E00109281008091810082608093810050
:100710008091810081608093810080918000816060
:10072000809380008091B10084608093B1008091BB
:10073000B00081608093B00080917A0084608093E3
:100740007A0080917A00826080937A0080917A00AA
:10075000816080937A0080917A00806880937A002B
:100760001092C100E0913601F091370182E0808360
:10077000E0913201F09133011082E0913401F09167
:1007800035018FEC808310923E01E0913A01F091A7
:100790003B0186E08083E0913801F091390180814E
:1007A00080618083E0913801F09139018081886017
:1007B0008083E0913801F0913901808180688083E5
:1007C000E0913801F091390180818F7D80830CE7C1
:1007D00010E0F8016491662341F086E291E00E9406
:1007E000FD010F5F1F4F892BA1F742E050E063E24C
:1007F00071E086E291E00E945D01B8E44B2EB8EE14
:100800005B2E66246394712C03E111E0F8012190C2
:1008100031908F0180910001883031F5E9ECF0E0F2
:10082000F491FD83FD81F7FF6CC065E471E080E029
:1008300090E00E94B500E3E2F1E0E017F10731F744
:1008400088E00E94E70060ED77E080E090E00E94A1
:10085000B50080E090E0892BB9F20E94C70188239F
:1008600099F20E940000D0CF8F3FF9F688E0809384
:100870000001E9ECF0E0F491FD83FF3FB1F2F130CB
:1008800009F4D7C028F1F23069F61092B000109246
:10089000B1008091B00082608093B0008091B1007F
:1008A00081608093B100EDEBF0E08491E82FF0E0FF
:1008B000EE0FFF1FE555FF4F859194919093C50171
:1008C0008093C401EFE9F0E084918093C30119C0E3
:1008D00014BC15BC84B5826084BD85B5816085BDBE
:1008E000EDEBF0E08491E82FF0E0EE0FFF1FE5550F
:1008F000FF4F85919491EFE9F0E084918093C701D7
:100900001D82EFE9F0E04491EDEBF0E08491882363
:1009100099F090E0880F991FFC01E357FF4FA591D4
:10092000B491FC01E555FF4F259134918FB7F894B0
:100930009C91492B4C938FBF4101B12CA12C60E0BD
:1009400072E18AE790E0A50191010E947C0629836B
:100950003A834B835C8369017A01F1E0CF1AD108B5
:10096000E108F1088D818D7F09F0EBC08FEFC8168B
:10097000D104E104F10409F00CF4B5C060E472E4C0
:100980008FE090E0A50191010E947C0669017A0147
:1009900091E0C91AD108E108F108ED81E23009F0CF
:1009A00067C082E0FFEFCF16D104E104F10409F043
:1009B0000CF419C160E970ED83E090E0A5019101AC
:1009C0000E947C0669017A0181E0C81AD108E10819
:1009D000F10883E09FEFC916D104E104F10409F0A6
:1009E0000CF401C1C301B201A50191010E947C0672
:1009F00069017A0191E0C91AD108E108F10884E09F
:100A0000EFEFCE16D104E104F10409F00CF4EBC0D1
:100A100064E274EF80E090E0A50194010E947C06FE
:100A200069017A0191E0C91AD108E108F10885E06D
:100A300039C01092800010928100809181008860FE
:100A40008093810080918100816080938100EDEB33
:100A5000F0E08491E82FF0E0EE0FFF1FE555FF4F27
:100A600085919491EFE9F0E084918093C60149CF9C
:100A7000EFEFCE16D104E104F10409F00CF45FC0ED
:100A8000C301B201A50191010E947C0669017A01AE
:100A9000F1E0CF1AD108E108F1088D81882309F42B
:100AA000A9C084E0EFEFCE16D104E104F10409F00F
:100AB00008F499C062E17AE780E090E0A501940132
:100AC0000E947C0669017A01F1E0CF1AD108E108A1
:100AD000F1088FEFC816D104E104F10411F008F019
:100AE00071C086E080C081E09D8191117CC095B588
:100AF000987F892B85BD9101220F331FAAEFB0E0AB
:100B00000E949B0628EE33E040E050E00E945A0627
:100B10009D819130A9F1923009F444C0911185CEA4
:100B2000C7BC2093D0013093D1014093D2015093A0
:100B3000D30180916E00826080936E0076CE82E059
:100B4000D3CF91E0C114D104E1E0EE06F10474F0DA
:100B5000C301B201A50191010E947C0669017A01DD
:100B6000F1E0CF1AD108E108F10893E08D818130DE
:100B700011F680918100887F892B80938100BBCF03
:100B8000D0928900C09288002093CC013093CD018F
:100B90004093CE015093CF0180916F00826080938B
:100BA0006F0043CEC092B3002093C8013093C901B7
:100BB0004093CA015093CB01809170008260809372
:100BC000700033CEC980DA80EB80FC808AE0F59437
:100BD000E794D794C7948A95D1F781E0C81AD108D1
:100BE000E108F10887E09091B100987F892B80930C
:100BF000B10081CF83E09FEFC916D104E104F10475
:100C000009F00CF474CF62E17AE780E090E0A5018E
:100C100094010E947C0669017A01E1E0CE1AD108B4
:100C2000E108F10884E0FFEFCF16D104E104F104FC
:100C300009F008F45CCFC980DA80EB80FC809AE090
:100C4000F594E794D794C7949A95D1F7F1E0CF1A29
:100C5000D108E108F10885E04ACFE6E2F1E013822D
:100C6000128288EE93E0A0E0B0E084839583A683AF
:100C7000B78385E091E09183808385EC90E0958750
:100C8000848784EC90E09787868780EC90E0918B56
:100C9000808B81EC90E0938B828B82EC90E0958B43
:100CA000848B86EC90E0978B868B118E128E138E40
:100CB000148E0895A1E21A2EAA1BBB1BFD010DC0C4
:100CC000AA1FBB1FEE1FFF1FA217B307E407F507FC
:100CD00020F0A21BB30BE40BF50B661F771F881FD8
:100CE000991F1A9469F760957095809590959B016E
:100CF000AC01BD01CF010895052E97FB1EF40094B1
:100D00000E94930657FD07D00E945A0607FC03D0A5
:100D10004EF40C94930650954095309521953F4F95
:100D20004F4F5F4F089590958095709561957F4FD7
:100D30008F4F9F4F0895A29FB001B39FC001A39F03
:100D4000700D811D1124911DB29F700D811D112404
:100D5000911D0895EE0FFF1F0590F491E02D099469
:040D6000F894FFCF35
:100D6400FF00000000FD015D018A014A02BB0199F8
:100D740001AD01060126014A015D018801B801EEB9
:060D8400010B020D0A0044
:00000001FF
