:100000000C9480000C94A8000C94A8000C94A800F8
:100010000C94A8000C94A8000C94A8000C94A800C0
:100020000C94A8000C94A8000C94A8000C94A800B0
:100030000C94A8000C94A8000C94A8000C94A800A0
:100040000C9428020C94A8000C9498020C94720250
:100050000C94A8000C94A8000C94A8000C94A80080
:100060000C94A8000C94A8000000000024002700B5
:100070002A005B34305D20544352543530303020F8
:100080007072657400000000002300260029000043
:10009000000000250028002B0004040404040404CC
:1000A0000402020202020203030303030301020427
:1000B00008102040800102040810200102040810EA
:1000C00020000000080002010000030407000000F7
:1000D000000000000020202D3E20626C616E630055
:1000E00020202D3E204C49474E45204E4F49524539
:1000F00000416E616C6F67697175653A2000730429
:1001000011241FBECFEFD8E0DEBFCDBF11E0A0E0CD
:10011000B1E0E4E9F9E002C005900D92A631B10723
:10012000D9F721E0A6E1B1E001C01D92AC3BB207D6
:10013000E1F710E0C0E8D0E004C02197FE010E9482
:10014000C204CF37D107C9F70E94CA020C94C80471
:100150000C940000833081F028F4813099F08230D3
:10016000A9F008958730A9F08830C9F08430B1F43F
:10017000809180008F7D03C0809180008F77809375
:100180008000089584B58F7784BD089584B58F7DF0
:10019000FBCF8091B0008F778093B000089580915D
:1001A000B0008F7DF9CF3FB7F89480911B019091FB
:1001B0001C01A0911D01B0911E0126B5A89B05C090
:1001C0002F3F19F00196A11DB11D3FBFBA2FA92FD6
:1001D000982F8827BC01CD01620F711D811D911DD3
:1001E00042E0660F771F881F991F4A95D1F708953F
:1001F000AF92BF92CF92DF92EF92FF920F931F9335
:10020000CF93DF936C017B018B01040F151FEB0172
:100210005E01AE18BF08C017D10759F06991D60129
:10022000ED91FC910190F081E02DC6010995892B9B
:1002300079F7C501DF91CF911F910F91FF90EF905A
:10024000DF90CF90BF90AF900895FC01538D448D07
:10025000252F30E0842F90E0821B930B541710F071
:10026000CF96089501970895FC01918D828D98177E
:1002700061F0A28DAE0FBF2FB11D5D968C91928D56
:100280009F5F9F73928F90E008958FEF9FEF089587
:10029000FC01918D828D981731F0828DE80FF11D50
:1002A000858D90E008958FEF9FEF0895FC01918D6B
:1002B000228D892F90E0805C9F4F821B91098F7364
:1002C000992708958FE191E00E94560121E0892B42
:1002D00009F420E0822F089580E090E0892B29F036
:1002E0000E94620181110C9400000895FC01A48D0C
:1002F000A80FB92FB11DA35ABF4F2C91848D90E048
:1003000001968F739927848FA689B7892C93A0892A
:10031000B1898C91837080648C93938D848D9813B4
:1003200006C00288F389E02D80818F7D8083089547
:10033000EF92FF920F931F93CF93DF93EC0181E035
:10034000888F9B8D8C8D98131AC0E889F9898081DC
:1003500085FF15C09FB7F894EE89FF896083E8890F
:10036000F98980818370806480839FBF81E090E001
:10037000DF91CF911F910F91FF90EF900895F62E8E
:100380000B8D10E00F5F1F4F0F731127E02E8C8D28
:100390008E110CC00FB607FCFACFE889F98980816D
:1003A00085FFF5CFCE010E947601F1CFEB8DEC0FEA
:1003B000FD2FF11DE35AFF4FF0829FB7F8940B8F8A
:1003C000EA89FB8980818062CFCF0F931F93CF93FF
:1003D000DF938C01D0E0C0E0F801EC0FFD1F6491C9
:1003E000662341F08FE191E00E949801892B11F082
:1003F0002196F2CFCE01DF91CF911F910F910895F9
:10040000CF93DF93EC01888D8823B9F0AA89BB894B
:10041000E889F9898C9185FD03C0808186FD0DC036
:100420000FB607FCF7CF8C9185FFF2CF808185FF57
:10043000EDCFCE010E947601E9CFDF91CF910895F3
:1004400042E050E062E171E08FE191E00C94F8004D
:100450001F920F920FB60F9211242F933F938F93F9
:100460009F93AF93BF938091170190911801A09132
:100470001901B0911A013091160123E0230F2D3795
:1004800058F50196A11DB11D209316018093170107
:1004900090931801A0931901B0931A0180911B0148
:1004A00090911C01A0911D01B0911E010196A11D0A
:1004B000B11D80931B0190931C01A0931D01B0936B
:1004C0001E01BF91AF919F918F913F912F910F90FE
:1004D0000FBE0F901F90189526E8230F0296A11DBE
:1004E000B11DD2CF1F920F920FB60F9211242F93EE
:1004F0003F934F935F936F937F938F939F93AF93AC
:10050000BF93EF93FF938FE191E00E947601FF91FB
:10051000EF91BF91AF919F918F917F916F915F917B
:100520004F913F912F910F900FBE0F901F901895F4
:100530001F920F920FB60F9211242F938F939F93B8
:10054000EF93FF93E0912F01F09130018081E091D2
:100550003501F091360182FD1BC0908180913801F8
:100560008F5F8F7320913901821741F0E09138013C
:10057000F0E0E15EFE4F958F80933801FF91EF919F
:100580009F918F912F910F900FBE0F901F901895F4
:100590008081F4CFCF93DF93CDB7DEB7A1970FB6AD
:1005A000F894DEBF0FBECDBF789484B5826084BD61
:1005B00084B5816084BD85B5826085BD85B5816067
:1005C00085BD80916E00816080936E0010928100E5
:1005D00080918100826080938100809181008160A0
:1005E0008093810080918000816080938000809161
:1005F000B10084608093B1008091B00081608093ED
:10060000B00080917A00846080937A0080917A00B3
:10061000826080937A0080917A00816080937A0072
:1006200080917A00806880937A001092C100EFEA8E
:10063000F0E024917BE9272E70E0372EF1018491C0
:100640008823C9F090E0880F991FFC01E859FF4FFB
:10065000A591B491FC01E157FF4F459154913FB7EB
:10066000F8949C91822F809598239C93FA01908115
:10067000892380833FBFEAEBF0E02491E6EAF0E0D3
:100680008491882399F090E0880F991FFC01E85924
:10069000FF4FA591B491FC01E157FF4F85919491D3
:1006A0008FB7F8949C91292B2C938FBFE0912F0149
:1006B000F091300182E08083E0912B01F0912C01D8
:1006C0001082E0912D01F0912E018FEC8083109229
:1006D0003701E0913301F091340186E08083E091AD
:1006E0003101F0913201808180618083E09131019C
:1006F000F0913201808188608083E0913101F09136
:100700003201808180688083E0913101F091320173
:1007100080818F7D808382E790E00E94E5010E94C6
:1007200020024AE0442E512C612C712CF0E4F0930D
:100730007C0080917A00806480937A0080917A00B6
:1007400086FDFCCF0091780010917900E3ECF0E099
:100750008491EFEAF0E0E490F101F490F11096C09A
:10076000D12CC12C812CEEECF0E08491EAEBF0E08E
:10077000E490E6EAF0E0F490FF20A1F081110E94FD
:10078000AA00EF2DF0E0EE0FFF1FE157FF4FA591FC
:10079000B4918FB7F8949C9181108DC0E094E922B8
:1007A000EC928FBF81EF90E00E94E5014801110FAC
:1007B000AA08BB08B7FE81C06DE28FE191E00E94FC
:1007C000980122273327A901281939094A095B0909
:1007D00019A2CE0181967C01CA01B901A30192013F
:1007E0000E94A004605DF70162937F01211531052D
:1007F0004105510589F7E114F10461F001900020F1
:10080000E9F73197AF014E195F09B7018FE191E028
:100810000E94F80085ED90E0CA94CD2811F480EE96
:1008200090E00E94E5010E9420020E94D3006B012B
:100830007C0184E6882E912CA12CB12C0E94D3003F
:100840006C197D098E099F09683E734081059105E9
:10085000A8F321E0821A9108A108B10888EEC80E19
:1008600083E0D81EE11CF11C81149104A104B104A1
:1008700029F780E090E0892B09F458CF0E946201AB
:10088000882309F453CF0E94000050CF81110E94A9
:10089000AA00EF2DF0E0EE0FFF1FEB57FF4FA591E1
:1008A000B4918C91E82209F45BCFCC24C394D12C71
:1008B0008824839458CFE92A73CFA501940119A203
:1008C000CE0181967C01CA01B901A30192010E9467
:1008D000A004605DF70162937F0121153105410598
:1008E000510589F788CFEFE1F1E01382128288EE9B
:1008F00093E0A0E0B0E084839583A683B78384E08F
:1009000091E09183808385EC90E09587848784ECE7
:1009100090E09787868780EC90E0918B808B81ECCC
:1009200090E0938B828B82EC90E0958B848B86ECAD
:1009300090E0978B868B118E128E138E148E0895F5
:10094000A1E21A2EAA1BBB1BFD010DC0AA1FBB1FD3
:10095000EE1FFF1FA217B307E407F50720F0A21B45
:10096000B30BE40BF50B661F771F881F991F1A94B2
:1009700069F760957095809590959B01AC01BD01DC
:10098000CF010895EE0FFF1F0590F491E02D09941B
:04099000F894FFCF09
:10099400000000009801F80025010002560134010E
:0609A40048010D0A0000ED
:00000001FF
