:100000000C9479000C94A1000C94A1000C94A10014
:100010000C94A1000C94A1000C94A1000C94A100DC
:100020000C94A1000C94A1000C94A1000C94A100CC
:100030000C94A1000C94A1000C94A1000C94A100BC
:100040000C9421020C94A1000C9491020C946B026C
:100050000C94A1000C94A1000C94A1000C94A1009C
:100060000C94A1000C94A1000000000024002700C3
:100070002A005B33345D2053572D343230207072A8
:100080006574000000000023002600290000000025
:1000900000250028002B00040404040404040402C6
:1000A0000202020202030303030303010204081015
:1000B00020408001020408102001020408102000E2
:1000C0000000080002010000030407000000000017
:1000D000000000566962726174696F6E2064657415
:1000E0006563746565202120546F74616C3A20004B
:1000F000480411241FBECFEFD8E0DEBFCDBF11E012
:10010000A0E0B1E0EEE3F9E002C005900D92A63167
:10011000B107D9F721E0A6E1B1E001C01D92A03CF2
:10012000B207E1F710E0C9E7D0E004C02197FE0173
:100130000E949704C837D107C9F70E94C3020C94E4
:100140009D040C940000833081F028F4813099F0F4
:100150008230A9F008958730A9F08830C9F0843042
:10016000B1F4809180008F7D03C0809180008F77F3
:1001700080938000089584B58F7784BD089584B5F9
:100180008F7DFBCF8091B0008F778093B000089572
:100190008091B0008F7DF9CF3FB7F89480911F0117
:1001A00090912001A0912101B091220126B5A89B38
:1001B00005C02F3F19F00196A11DB11D3FBFBA2FF9
:1001C000A92F982F8827BC01CD01620F711D811DB9
:1001D000911D42E0660F771F881F991F4A95D1F73E
:1001E0000895AF92BF92CF92DF92EF92FF920F935A
:1001F0001F93CF93DF936C017B018B01040F151FBD
:10020000EB015E01AE18BF08C017D10759F0699124
:10021000D601ED91FC910190F081E02DC601099588
:10022000892B79F7C501DF91CF911F910F91FF9035
:10023000EF90DF90CF90BF90AF900895FC01538D69
:10024000448D252F30E0842F90E0821B930B5417B0
:1002500010F0CF96089501970895FC01918D828D3D
:10026000981761F0A28DAE0FBF2FB11D5D968C91D6
:10027000928D9F5F9F73928F90E008958FEF9FEF15
:100280000895FC01918D828D981731F0828DE80FD1
:10029000F11D858D90E008958FEF9FEF0895FC018B
:1002A000918D228D892F90E0805C9F4F821B910958
:1002B0008F739927089583E291E00E944F0121E016
:1002C000892B09F420E0822F089580E090E0892BAB
:1002D00029F00E945B0181110C9400000895FC013B
:1002E000A48DA80FB92FB11DA35ABF4F2C91848D97
:1002F00090E001968F739927848FA689B7892C93F4
:10030000A089B1898C91837080648C93938D848D46
:10031000981306C00288F389E02D80818F7D808349
:100320000895EF92FF920F931F93CF93DF93EC0109
:1003300081E0888F9B8D8C8D98131AC0E889F9898C
:10034000808185FF15C09FB7F894EE89FF8960838F
:10035000E889F98980818370806480839FBF81E010
:1003600090E0DF91CF911F910F91FF90EF90089552
:10037000F62E0B8D10E00F5F1F4F0F731127E02E2D
:100380008C8D8E110CC00FB607FCFACFE889F98965
:10039000808185FFF5CFCE010E946F01F1CFEB8DFB
:1003A000EC0FFD2FF11DE35AFF4FF0829FB7F89439
:1003B0000B8FEA89FB8980818062CFCF0F931F93D7
:1003C000CF93DF938C01D0E0C0E0F801EC0FFD1F6C
:1003D0006491662341F083E291E00E949101892BB0
:1003E00011F02196F2CFCE01DF91CF911F910F91A5
:1003F0000895CF93DF93EC01888D8823B9F0AA8903
:10040000BB89E889F9898C9185FD03C0808186FDCF
:100410000DC00FB607FCF7CF8C9185FFF2CF80811E
:1004200085FFEDCFCE010E946F01E9CFDF91CF9123
:10043000089542E050E062E171E083E291E00C94C3
:10044000F1001F920F920FB60F9211242F933F933A
:100450008F939F93AF93BF9380911B0190911C0149
:10046000A0911D01B0911E0130911A0123E0230FCC
:100470002D3758F50196A11DB11D20931A018093C7
:100480001B0190931C01A0931D01B0931E0180914C
:100490001F0190912001A0912101B09122010196AC
:1004A000A11DB11D80931F0190932001A0932101F4
:1004B000B0932201BF91AF919F918F913F912F9166
:1004C0000F900FBE0F901F90189526E8230F0296ED
:1004D000A11DB11DD2CF1F920F920FB60F92112402
:1004E0002F933F934F935F936F937F938F939F933C
:1004F000AF93BF93EF93FF9383E291E00E946F016C
:10050000FF91EF91BF91AF919F918F917F916F91EB
:100510005F914F913F912F910F900FBE0F901F90C1
:1005200018951F920F920FB60F9211242F938F934D
:100530009F93EF93FF93E0913301F0913401808119
:10054000E0913901F0913A0182FD1BC090818091C8
:100550003C018F5F8F7320913D01821741F0E09144
:100560003C01F0E0ED5DFE4F958F80933C01FF91E3
:10057000EF919F918F912F910F900FBE0F901F9031
:1005800018958081F4CFCF93DF93CDB7DEB7A197D5
:100590000FB6F894DEBF0FBECDBF789484B58260ED
:1005A00084BD84B5816084BD85B5826085BD85B517
:1005B000816085BD80916E00816080936E00109295
:1005C0008100809181008260809381008091810010
:1005D00081608093810080918000816080938000A1
:1005E0008091B10084608093B1008091B0008160FF
:1005F0008093B00080917A00846080937A0080912B
:100600007A00826080937A0080917A008160809382
:100610007A0080917A00806880937A001092C100FD
:10062000EDEAF0E02491E9E9F0E084918823C9F053
:1006300090E0880F991FFC01E859FF4FA591B491F4
:10064000FC01E357FF4F459154913FB7F8949C91BB
:10065000822F809598239C93FA019081892380832F
:100660003FBFE8EBF0E02491E4EAF0E084918823D6
:1006700099F090E0880F991FFC01E859FF4FA59170
:10068000B491FC01E357FF4F859194918FB7F89493
:100690009C91292B2C938FBFE0913301F091340171
:1006A00082E08083E0912F01F09130011082E0918F
:1006B0003101F09132018FEC808310923B01E09187
:1006C0003701F091380186E08083E0913501F091A7
:1006D0003601808180618083E0913501F09136019F
:1006E000808188608083E0913501F09136018081BE
:1006F00080688083E0913501F091360180818F7DA3
:10070000808382E790E00E94DE010E9419023AE0B5
:10071000432E512C612C712C40E0242E40E0342ECD
:10072000E1ECF0E08491EDEAF0E00491E9E9F0E039
:100730001491112309F4A7C081110E94A300E12F95
:10074000F0E0EE0FFF1FED57FF4FA591B4918C9194
:10075000082391E080E009F490E0092F182FECECD9
:10076000F0E08491E8EBF0E0E490E4EAF0E0F4906B
:10077000FF20A1F081110E94A300EF2DF0E0EE0F09
:10078000FF1FE357FF4FA591B4918FB7F8949C9149
:1007900001117CC0E094E922EC928FBF0130110579
:1007A00009F061C08091180190911901892B09F01D
:1007B0005AC0E0901601F0901701FFEFEF1AFF0A00
:1007C000F0921701E092160183ED90E00E94DE01A5
:1007D000970150E040E019A26E0181E2C80ED11CE1
:1007E000CA01B901A30192010E947504605DF6017E
:1007F00062936F01211531054105510589F7309745
:1008000061F001900020E9F73197AF014C195D09C3
:10081000B60183E291E00E94F1000E9419020E9459
:10082000CC004B015C0184E6C82ED12CE12CF12CCC
:100830000E94CC00681979098A099B09683E7340B7
:1008400081059105A8F3F1E0CF1AD108E108F1087C
:1008500028EE820E23E0921EA11CB11CC114D1040B
:10086000E104F10429F710931901009318012114F0
:10087000310409F455CF0E945B01882309F450CF5D
:100880000E9400004DCF10E000E069CFE92A84CF3C
:10089000E3E2F1E01382128288EE93E0A0E0B0E0A0
:1008A00084839583A683B78384E091E091838083DA
:1008B00085EC90E09587848784EC90E09787868725
:1008C00080EC90E0918B808B81EC90E0938B828B1D
:1008D00082EC90E0958B848B86EC90E0978B868BF6
:1008E000118E128E138E148E0895A1E21A2EAA1B59
:1008F000BB1BFD010DC0AA1FBB1FEE1FFF1FA217D0
:10090000B307E407F50720F0A21BB30BE40BF50BCC
:10091000661F771F881F991F1A9469F76095709555
:10092000809590959B01AC01BD01CF010895EE0F1C
:0E093000FF1F0590F491E02D0994F894FFCF7D
:10093E00000000009101F1001E01F9014F012D018F
:06094E0041010D0A00004A
:00000001FF
