:100000000C9482000C94AA000C94AA000C94AA00F0
:100010000C94AA000C94AA000C94AA000C94AA00B8
:100020000C94AA000C94AA000C94AA000C94AA00A8
:100030000C94AA000C94AA000C94AA000C94AA0098
:100040000C9458020C94AA000C94C8020C94A202BE
:100050000C94AA000C94AA000C94AA000C94AA0078
:100060000C94AA000C94AA0008000000BE92244937
:10007000123EABAAAA2ABECDCCCC4C3E00000080DA
:10008000BEABAAAAAA3E00000000BF000000803F4D
:100090000000000000084178D3BB4387D1133D190D
:1000A0000E3CC3BD4282AD2B3E68EC8276BED98F3A
:1000B000E1A93E4C80EFFFBE01C4FF7F3F0000007E
:1000C00000005B32325D20546865726D6973746143
:1000D0006E6365204E544320707265746500204342
:1000E0000054656D70657261747572653A200045E3
:1000F0007272657572206465206C656374757265D3
:1001000000008C0411241FBECFEFD8E0DEBFCDBFAE
:1001100011E0A0E0B1E0E8E4FFE002C005900D923C
:10012000AE31B107D9F721E0AEE1B1E001C01D92D7
:10013000A43CB207E1F710E0C2E8D0E004C0219788
:10014000FE010E949C07C138D107C9F70E94FA023C
:100150000C94A2070C9400003FB7F89480912301FF
:1001600090912401A0912501B091260126B5A89B6C
:1001700005C02F3F19F00196A11DB11D3FBFBA2F39
:10018000A92F982F8827BC01CD01620F711D811DF9
:10019000911D42E0660F771F881F991F4A95D1F77E
:1001A0000895AF92BF92CF92DF92EF92FF920F939A
:1001B0001F93CF93DF936C017B018B01040F151FFD
:1001C000EB015E01AE18BF08C017D10759F0699165
:1001D000D601ED91FC910190F081E02DC6010995C9
:1001E000892B79F7C501DF91CF911F910F91FF9076
:1001F000EF90DF90CF90BF90AF900895FC01538DAA
:10020000448D252F30E0842F90E0821B930B5417F0
:1002100010F0CF96089501970895FC01918D828D7D
:10022000981761F0A28DAE0FBF2FB11D5D968C9116
:10023000928D9F5F9F73928F90E008958FEF9FEF55
:100240000895FC01918D828D981731F0828DE80F11
:10025000F11D858D90E008958FEF9FEF0895FC01CB
:10026000918D228D892F90E0805C9F4F821B910998
:100270008F739927089587E291E00E942F0121E072
:10028000892B09F420E0822F089580E090E0892BEB
:1002900029F00E943B0181110C9400000895FC019B
:1002A000A48DA80FB92FB11DA35ABF4F2C91848DD7
:1002B00090E001968F739927848FA689B7892C9334
:1002C000A089B1898C91837080648C93938D848D87
:1002D000981306C00288F389E02D80818F7D80838A
:1002E0000895EF92FF920F931F93CF93DF93EC014A
:1002F00081E0888F9B8D8C8D98131AC0E889F989CD
:10030000808185FF15C09FB7F894EE89FF896083CF
:10031000E889F98980818370806480839FBF81E050
:1003200090E0DF91CF911F910F91FF90EF90089592
:10033000F62E0B8D10E00F5F1F4F0F731127E02E6D
:100340008C8D8E110CC00FB607FCFACFE889F989A5
:10035000808185FFF5CFCE010E944F01F1CFEB8D5B
:10036000EC0FFD2FF11DE35AFF4FF0829FB7F89479
:100370000B8FEA89FB8980818062CFCF0F931F9317
:10038000CF93DF938C01D0E0C0E0F801EC0FFD1FAC
:100390006491662341F087E291E00E947101892B0C
:1003A00011F02196F2CFCE01DF91CF911F910F91E5
:1003B0000895CF93DF93EC01888D8823B9F0AA8943
:1003C000BB89E889F9898C9185FD03C0808186FD10
:1003D0000DC00FB607FCF7CF8C9185FFF2CF80815F
:1003E00085FFEDCFCE010E944F01E9CFDF91CF9184
:1003F0000895FC0101900020E9F73197AF01481BF7
:10040000590BBC0187E291E00C94D100CF93DF93AC
:100410000E94BE01EC0182E191E00E94F9018C0F83
:100420009D1FDF91CF9108958F929F92AF92BF92BF
:100430000F931F93CF93DF93CDB7DEB7A1970FB67E
:10044000F894DEBF0FBECDBF19A2423008F44AE0D7
:100450008E010F5D1F4F842E912CB12CA12CA50174
:1004600094010E947A07E62FB901CA01EA30F4F438
:10047000E05DD801EE938D01232B242B252B79F7FA
:1004800090E080E0109719F0CD010E94F901A1964B
:100490000FB6F894DEBF0FBECDBFDF91CF911F9195
:1004A0000F91BF90AF909F908F900895E95CE1CF3E
:1004B0001F920F920FB60F9211242F933F938F9399
:1004C0009F93AF93BF9380911F0190912001A091C2
:1004D0002101B091220130911E0123E0230F2D371D
:1004E00058F50196A11DB11D20931E0180931F0197
:1004F00090932001A0932101B093220180912301C8
:1005000090912401A0912501B09126010196A11D91
:10051000B11D8093230190932401A0932501B093F2
:100520002601BF91AF919F918F913F912F910F9095
:100530000FBE0F901F90189526E8230F0296A11D5D
:10054000B11DD2CF1F920F920FB60F9211242F938D
:100550003F934F935F936F937F938F939F93AF934B
:10056000BF93EF93FF9387E291E00E944F01FF91C9
:10057000EF91BF91AF919F918F917F916F915F911B
:100580004F913F912F910F900FBE0F901F90189594
:100590001F920F920FB60F9211242F938F939F9358
:1005A000EF93FF93E0913701F09138018081E09162
:1005B0003D01F0913E0182FD1BC090818091400180
:1005C0008F5F8F7320914101821741F0E0914001CC
:1005D000F0E0E95DFE4F958F80934001FF91EF9130
:1005E0009F918F912F910F900FBE0F901F90189594
:1005F0008081F4CF789484B5826084BD84B58160B5
:1006000084BD85B5826085BD85B5816085BD8091DD
:100610006E00816080936E00109281008091810055
:10062000826080938100809181008160809381004D
:10063000809180008160809380008091B10084600F
:100640008093B1008091B00081608093B000809170
:100650007A00846080937A0080917A00826080932F
:100660007A0080917A00816080937A0080917A008C
:10067000806880937A001092C100E0913701F09178
:10068000380182E08083E0913301F09134011082DF
:10069000E0913501F09136018FEC808310923F019B
:1006A000E0913B01F0913C0186E08083E0913901CB
:1006B000F0913A01808180618083E0913901F0916D
:1006C0003A01808188608083E0913901F0913A019C
:1006D000808180688083E0913901F0913A018081C6
:1006E0008F7D808382EC90E00E94060210E4C0E0DF
:1006F000D0E010937C0080917A00806480937A002F
:1007000080917A0086FDFCCF60917800709179002D
:10071000CB0101978E3F934008F04AC0072E000C92
:10072000880B990B0E94CE056B017C0120E030E420
:100730004CE156E40E94D3064B015C01A7019601EF
:1007400060E070EC8FE794E40E94B9049B01AC0177
:10075000C501B4010E942B0520E030E44CE156E4D1
:100760000E942B050E948B0620E030EE46E755E400
:100770000E942B052FE03FEC4BE55BE30E94BA049F
:100780009B01AC0160E070E080E89FE30E942B05D4
:1007900023E333E948E853E40E94B9046B017C0188
:1007A0004B015C01AC019B010E9440078823A1F131
:1007B0008FEE90E00E9406020E94AC006B017C016B
:1007C00088EE882E83E0982EA12CB12C0E94AC00DC
:1007D0006C197D098E099F09683E7340810591055A
:1007E000A8F381E0881A9108A108B10828EEC20E8A
:1007F00023E0D21EE11CF11C81149104A104B10478
:1008000029F7209709F475CF0E943B01882309F44A
:1008100070CF0E9400006DCF81EE90E00E94BE017B
:1008200026013701E89477F82FEF3FEF4FE75FE7B6
:10083000C301B2010E944007811111C02FEF3FEFA9
:100840004FE75FE7C301B2010E94260518163CF48A
:1008500085E191E00E94F9018EED90E0ABCF2FEFA2
:100860003FEF4FE75FE4C701B6010E947E0618160E
:100870001CF489E191E0EECF2FEF3FEF4FE75FEC03
:10088000C701B6010E94260587FDF3CF20E030E0C6
:10089000A901C701B6010E94260587FF0BC06DE2C2
:1008A00087E291E00E94710146015701B7FAB094C6
:1008B000B7F8B0942DEC3CEC4CE45DE3C501B40119
:1008C0000E94BA044B015C010E949D056B017C01F2
:1008D0000E94CC059B01AC01C501B4010E94B90482
:1008E0004B015C014AE0C701B6010E9414026EE2AE
:1008F00087E291E00E94710120E030E040E251E4A3
:10090000C501B4010E94D3060E949D0590E080E0DD
:100910004AE00E941402A0CFE7E2F1E013821282C3
:1009200088EE93E0A0E0B0E084839583A683B7834C
:1009300084E091E09183808385EC90E095878487C3
:1009400084EC90E09787868780EC90E0918B808B99
:1009500081EC90E0938B828B82EC90E0958B848B82
:1009600086EC90E0978B868B118E128E138E148EF0
:1009700008955058BB27AA270E94D1040C9444061E
:100980000E94360638F00E943D0620F039F49F3F61
:1009900019F426F40C9433060EF4E095E7FB0C945E
:1009A0002D06E92F0E94550658F3BA176207730700
:1009B0008407950720F079F4A6F50C9477060EF4D9
:1009C000E0950B2EBA2FA02D0B01B90190010C015F
:1009D000CA01A0011124FF27591B99F0593F50F477
:1009E000503E68F11A16F040A22F232F342F4427CF
:1009F000585FF3CF469537952795A795F0405395C7
:100A0000C9F77EF41F16BA0B620B730B840BBAF096
:100A10009150A1F0FF0FBB1F661F771F881FC2F701
:100A20000EC0BA0F621F731F841F48F48795779515
:100A30006795B795F7959E3F08F0B0CF9395880FCF
:100A400008F09927EE0F9795879508950E9409065B
:100A500008F481E008950E943F050C9444060E942A
:100A60003D0658F00E94360640F029F45F3F29F019
:100A70000C942D0651110C9478060C9433060E94A8
:100A8000550668F39923B1F3552391F3951B550B44
:100A9000BB27AA2762177307840738F09F5F5F4F51
:100AA000220F331F441FAA1FA9F335D00E2E3AF090
:100AB000E0E832D091505040E695001CCAF72BD0A8
:100AC000FE2F29D0660F771F881FBB1F26173707F9
:100AD0004807AB07B0E809F0BB0B802DBF01FF272B
:100AE00093585F4F3AF09E3F510578F00C942D06D5
:100AF0000C9478065F3FE4F3983ED4F3869577959F
:100B00006795B795F7959F5FC9F7880F911D9695E3
:100B1000879597F90895E1E0660F771F881FBB1F3F
:100B2000621773078407BA0720F0621B730B840BEC
:100B3000BA0BEE1F88F7E09508950E945D0688F0D5
:100B40009F5798F0B92F9927B751B0F0E1F0660F91
:100B5000771F881F991F1AF0BA95C9F714C0B130D2
:100B600091F00E947706B1E008950C947706672F04
:100B7000782F8827B85F39F0B93FCCF38695779501
:100B80006795B395D9F73EF49095809570956195EA
:100B90007F4F8F4F9F4F0895E89409C097FB3EF415
:100BA00090958095709561957F4F8F4F9F4F9923BA
:100BB000A9F0F92F96E9BB279395F6958795779538
:100BC0006795B795F111F8CFFAF4BB0F11F460FFF8
:100BD0001BC06F5F7F4F8F4F9F4F16C0882311F050
:100BE00096E911C0772321F09EE8872F762F05C064
:100BF000662371F096E8862F70E060E02AF09A95FF
:100C0000660F771F881FDAF7880F9695879597F9F3
:100C10000895990F0008550FAA0BE0E8FEEF16168D
:100C20001706E807F907C0F012161306E407F507E0
:100C300098F0621B730B840B950B39F40A2661F054
:100C4000232B242B252B21F408950A2609F4A140F7
:100C5000A6958FEF811D811D089597F99F6780E804
:100C600070E060E008959FEF80EC089500240A94FE
:100C70001616170618060906089500240A94121677
:100C80001306140605060895092E0394000C11F4AA
:100C9000882352F0BB0F40F4BF2B11F460FF04C057
:100CA0006F5F7F4F8F4F9F4F089557FD9058440FB0
:100CB000551F59F05F3F71F04795880F97FB991FBB
:100CC00061F09F3F79F08795089512161306140678
:100CD000551FF2CF4695F1DF08C016161706180605
:100CE000991FF1CF86957105610508940895E894E0
:100CF000BB2766277727CB0197F908950E9409063D
:100D000008F48FEF089516F00C9445070C94330601
:100D100068940C942D060E945D06A8F39923C1F3F4
:100D2000AEF3DF93CF931F930F93FF92C92FDD276D
:100D300088232AF02197660F771F881FDAF720E0B3
:100D400030E040E85FEB9FE3883920F0803E38F0E8
:100D500021968F770E94BA04E8E6F0E004C00E9472
:100D6000BA04E5E9F0E00E9453078B01BE01EC01F3
:100D7000FB2E6F5771097595771F880B990B0E9491
:100D8000CE0528E132E741E35FE30E94E606AF2D9E
:100D90009801AE01FF900F911F91CF91DF910E94BA
:100DA000D1040C9444060E94E6060C9444060E946A
:100DB000360638F00E943D0620F0952311F00C9481
:100DC0002D060C94330611240C9478060E945506C7
:100DD00070F3959FC1F3950F50E0551F629FF0018E
:100DE000729FBB27F00DB11D639FAA27F00DB11DA7
:100DF000AA1F649F6627B00DA11D661F829F222730
:100E0000B00DA11D621F739FB00DA11D621F839FB6
:100E1000A00D611D221F749F3327A00D611D231F8C
:100E2000849F600D211D822F762F6A2F11249F57DA
:100E300050409AF0F1F088234AF0EE0FFF1FBB1FDD
:100E4000661F771F881F91505040A9F79E3F51059C
:100E500080F00C942D060C9478065F3FE4F3983EE6
:100E6000D4F3869577956795B795F795E7959F5F46
:100E7000C1F7FE2B880F911D9695879597F90895D8
:100E80000E940906880B990B08959F3F31F09150FD
:100E900020F4879577956795B795880F911D96955E
:100EA000879597F90895DF93CF931F930F93FF9240
:100EB000EF92DF927B018C01689406C0DA2EEF017D
:100EC0000E94E606FE01E894A59125913591459191
:100ED0005591A6F3EF010E94D104FE019701A801EC
:100EE000DA9469F7DF90EF90FF900F911F91CF9107
:100EF000DF910895A1E21A2EAA1BBB1BFD010DC0B4
:100F0000AA1FBB1FEE1FFF1FA217B307E407F507B9
:100F100020F0A21BB30BE40BF50B661F771F881F95
:100F2000991F1A9469F760957095809590959B012B
:100F3000AC01BD01CF010895EE0FFF1F0590F491A4
:080F4000E02D0994F894FFCFA5
:100F4800000000007101D100FE00D9012F010D0140
:0E0F580021010D0A00696E66006F76660000CA
:00000001FF
