:100000000C9485000C94AD000C94AD000C94AD00E4
:100010000C94AD000C94AD000C94AD000C94AD00AC
:100020000C94AD000C94AD000C94AD000C94AD009C
:100030000C94AD000C94AD000C94AD000C94AD008C
:100040000C9457090C94AD000C94C7090C94A109A9
:100050000C94AD000C94AD000C94AD000C94AD006C
:100060000C94F9090C94AD005B32355D2041485485
:100070003230207072657400414854323020696E0D
:1000800074726F757661626C652C20766572696634
:10009000696572206C65206361626C616765002030
:1000A000250048756D69646974653A200020432015
:1000B000200054656D70657261747572653A200038
:1000C00000000000250028002B00040404040404A0
:1000D00004040202020202020303030303030102F7
:1000E00004081020408001020408102001020408C6
:1000F00010200000000800020100000304070000B7
:10010000000000000000180B0F0D11241FBECFEFE0
:10011000D8E0DEBFCDBF11E0A0E0B1E0EEE9F1E252
:1001200002C005900D92A836B107D9F722E0A8E6E3
:10013000B1E001C01D92AA3EB207E1F710E0C4E8A9
:10014000D0E004C02197FE010E94880FC338D10778
:10015000C9F70E94590B0C94C2100C94000090E057
:10016000FC01EE50FF4F2491FC01E252FF4F34910D
:10017000FC01E653FF4FE491EE23C9F0222339F04E
:10018000233001F1A8F4213019F1223029F1F0E0F7
:10019000EE0FFF1FE054FF4FA591B4918FB7F89475
:1001A000EC91611126C030953E233C938FBF08959A
:1001B0002730A9F02830C9F0243049F78091800019
:1001C0008F7D03C0809180008F7780938000DFCF88
:1001D00084B58F7784BDDBCF84B58F7DFBCF8091D5
:1001E000B0008F778093B000D2CF8091B0008F7D28
:1001F000F9CF3E2BDACF3FB7F8948091B5019091BB
:10020000B601A091B701B091B80126B5A89B05C071
:100210002F3F19F00196A11DB11D3FBFBA2FA92F85
:10022000982F8827BC01CD01620F711D811D911D82
:1002300042E0660F771F881F991F4A95D1F70895EE
:100240008F929F92AF92BF92CF92DF92EF92FF92E6
:100250004B015C010E94FB006B017C010E94FB00D2
:100260006C197D098E099F09683E734081059105CF
:10027000A8F321E0821A9108A108B10888EEC80EFF
:1002800083E0D81EE11CF11C81149104A104B10487
:1002900029F7FF90EF90DF90CF90BF90AF909F90A5
:1002A0008F90089508950895AF92BF92CF92DF92F4
:1002B000EF92FF920F931F93CF93DF936C017B011B
:1002C0008B01040F151FEB015E01AE18BF08C017AC
:1002D000D10759F06991D601ED91FC910190F0811F
:1002E000E02DC6010995892B79F7C501DF91CF91E2
:1002F0001F910F91FF90EF90DF90CF90BF90AF9044
:100300000895FC01538D448D252F30E0842F90E01B
:10031000821B930B541710F0CF9608950197089500
:10032000FC01918D828D981761F0A28DAE0FBF2FC9
:10033000B11D5D968C91928D9F5F9F73928F90E01F
:1003400008958FEF9FEF0895FC01918D828D98178E
:1003500031F0828DE80FF11D858D90E008958FEFCB
:100360009FEF0895FC01918D228D892F90E0805C94
:100370009F4F821B91098F73992708958BE292E01A
:100380000E94B20121E0892B09F420E0822F089518
:1003900080E090E0892B29F00E94BE0181110C942D
:1003A00000000895FC01A48DA80FB92FB11DA35A18
:1003B000BF4F2C91848D90E001968F739927848F85
:1003C000A689B7892C93A089B1898C9183708064A8
:1003D0008C93938D848D981306C00288F389E02D49
:1003E00080818F7D80830895EF92FF920F931F93FA
:1003F000CF93DF93EC0181E0888F9B8D8C8D9813D8
:100400001AC0E889F989808185FF15C09FB7F894E3
:10041000EE89FF896083E889F9898081837080642F
:1004200080839FBF81E090E0DF91CF911F910F917A
:10043000FF90EF900895F62E0B8D10E00F5F1F4F89
:100440000F731127E02E8C8D8E110CC00FB607FC98
:10045000FACFE889F989808185FFF5CFCE010E9426
:10046000D201F1CFEB8DEC0FFD2FF11DE35AFF4FC1
:10047000F0829FB7F8940B8FEA89FB8980818062B4
:10048000CFCF0F931F93CF93DF938C01D0E0C0E0C9
:10049000F801EC0FFD1F6491662341F08BE292E0BE
:1004A0000E94F401892B11F02196F2CFCE01DF9149
:1004B000CF911F910F910895CF93DF93EC01888D19
:1004C0008823B9F0AA89BB89E889F9898C9185FDCF
:1004D00003C0808186FD0DC00FB607FCF7CF8C915D
:1004E00085FFF2CF808185FFEDCFCE010E94D20142
:1004F000E9CFDF91CF910895089508952091890162
:10050000260F3327331F21323105ECF420910102ED
:10051000FC0190E080E0243069F082E00895A09131
:1005200089012191AC0147595E4FA40FB52FB11D30
:100530002C930196861798F380918901680F609338
:10054000890180E0089581E008951092010281E020
:10055000809300021092DB0161E082E10E94AF0013
:1005600061E083E10E94AF00E9EBF0E080818E7FE3
:10057000808380818D7F808388E48093B80085E4C8
:100580008093BC000895CF93DF9391E0909368012E
:100590008823B9F0C091B800D091BA008091BC0016
:1005A0008A7B8093BC0060E082E10E94AF0060E043
:1005B00083E10E94AF000E94A502D093BA00C093CD
:1005C000B800DF91CF9108958F929F92AF92BF9222
:1005D000CF92DF92EF92FF920F931F93CF93DF930F
:1005E000D0912A02D13208F0D7C0182FC091290229
:1005F0000E94FB006B017C018091010281116BC0A4
:1006000082E080930102109300028FEF8093FF013C
:100610001092FE01D093FD01A9E0B2E0EDEDF1E012
:1006200080E0D81391C01092DC018091DC01CC0FE6
:10063000C82BC093DC018091DB01813009F088C0B8
:100640001092DB010E94FB006B017C018091DC01B8
:100650008093BB008091030290910402A091050257
:10066000B0910602892B8A2B8B2BA1F00E94FB00F4
:1006700000910302109104022091050230910602BC
:100680006C197D098E099F09061717072807390776
:1006900008F442C08091BC0083FDD8CF85EC8093E4
:1006A000BC000E94FB006B017C0180910102823042
:1006B00009F450C08091FF018F3F09F46FC0809111
:1006C000FF01803209F46CC08091FF01803309F48E
:1006D00069C084E026C08091030290910402A09139
:1006E0000502B0910602892B8A2B8B2B09F484CF4B
:1006F0000E94FB008090030290900402A0900502EB
:10070000B09006026C197D098E099F09861697061E
:10071000A806B90608F070CF809102020E94C302B9
:1007200085E01092080210922A0210920702DF91CF
:10073000CF911F910F91FF90EF90DF90CF90BF90DE
:10074000AF909F908F9008959D9191938F5F69CF07
:1007500085EEA5CF8091030290910402A09105023D
:10076000B0910602892B8A2B8B2B09F49ECF0E9415
:10077000FB000091030210910402209105023091C8
:1007800006026C197D098E099F09061717072807AD
:10079000390708F08ACFC0CF81E0C3CF80E0C1CF56
:1007A00082E0BFCF83E0BDCFCF93DF93EA01DC01CE
:1007B00011968D919C91DC01ED91FC910280F38169
:1007C000E02D0995C817D90729F481E00E94E402B9
:1007D00091E0811190E0892FDF91CF910895CF931F
:1007E000DF93EC018B818823A1F0888191E09093C5
:1007F0000702809329021092080210922A0281E0D7
:100800000E94E40291E0811190E0892FDF91CF9165
:1008100008951092BA011092B90110920802109234
:100820002A020E94A50282E591E09093AD01809397
:10083000AC0183E591E09093AF018093AE0181E03C
:100840008B83CE010E94EF03982F8111CECFDDCF95
:100850000895E091BA018091B901E81730F4F0E011
:10086000E554FE4F808190E008958FEF9FEF08954B
:100870009091BA018091B9012FEF3FEF981748F49A
:10088000E92FF0E0E554FE4F208130E09F5F909328
:10089000BA01C90108958091B9019091BA01891BEB
:1008A000990B0895CF92DF92EF92FF920F931F93CF
:1008B000CF93DF937C01CB018A0120910702222391
:1008C00089F0EB016B01C40ED51ECC15DD0569F076
:1008D0006991D701ED91FC910190F081E02DC70164
:1008E0000995F3CF642F0E947E02C801DF91CF915A
:1008F0001F910F91FF90EF90DF90CF900895CF93CD
:10090000DF931F92CDB7DEB76983209107022223C0
:10091000F9F020912A02203258F021E030E0FC0169
:100920003383228390E080E00F90DF91CF91089590
:1009300080910802E82FF0E0E75FFD4F99819083F6
:100940008F5F8093080280932A0281E090E0ECCFD1
:1009500061E0CE0101960E947E02F7CF90E080E038
:100960000895FC0101900020E9F73197AF01481B81
:10097000590BBC018BE292E00C945401CF93DF93AE
:100980000E944102EC0189E491E00E94B1048C0FC5
:100990009D1FDF91CF9108958F929F92AF92BF924A
:1009A0000F931F93CF93DF93CDB7DEB7A1970FB609
:1009B000F894DEBF0FBECDBF19A2423008F44AE062
:1009C0008E010F5D1F4F842E912CB12CA12CA501FF
:1009D00094010E94660FE62FB901CA01EA30F4F4CF
:1009E000E05DD801EE938D01232B242B252B79F785
:1009F00090E080E0109719F0CD010E94B104A1961B
:100A00000FB6F894DEBF0FBECDBFDF91CF911F911F
:100A10000F91BF90AF909F908F900895E95CE1CFC8
:100A20002F923F924F925F926F927F928F929F92FE
:100A3000AF92BF92CF92DF92EF92FF920F931F93EC
:100A4000CF93DF935C011B016A01F12CE12CD501EE
:100A500014968D919C9186010E191F09801791079C
:100A600008F48C01F501D0810E94FB002B013C01B0
:100A700080910102811172C0C02F013208F0C0E2E2
:100A8000F1E0F093010221E0C601801B910BE81612
:100A9000F90608F420E0209300028FEF8093FF0115
:100AA0001092FE018C0F8093FD01A1E0A093DC0168
:100AB0008091DC01DD0FD82BD093DC018091DB012C
:100AC000813009F090C01092DB010E94FB002B01E5
:100AD0003C018091DC018093BB00809103029091E6
:100AE0000402A0910502B0910602892B8A2B8B2B60
:100AF000A1F00E94FB00209103023091040240917A
:100B0000050250910602641975098609970926178E
:100B100037074807590708F442C08091BC0083FD9D
:100B2000D8CFB5ECB093BC000E94FB002B013C0178
:100B300080910102813009F45AC08091FE018C1726
:100B400010F4C091FE01ADEDB1E0EBEBF1E080E01F
:100B50008C1751F19D9191938F5FFACF8091030291
:100B600090910402A0910502B0910602892B8A2B74
:100B70008B2B09F47DCF0E94FB0020910302309162
:100B80000402409105025091060264197509860914
:100B90009709261737074807590708F069CF80914A
:100BA00002020E94C302C0E01092BA01C093B901D0
:100BB000C017110609F057C041018E0C9F1CE401BB
:100BC000CE01881999098017910798F5D5011196DA
:100BD0008D919C91DC01ED91FC910284F385E02DD7
:100BE00009958993EDCFE5EEE093BC009DCF809110
:100BF000030290910402A0910502B0910602892B94
:100C00008A2B8B2B09F494CF0E94FB0020910302C6
:100C10003091040240910502509106026419750951
:100C200086099709261737074807590708F080CF24
:100C3000B6CFE00EF11EEC14FD0408F408CF81E0FD
:100C4000DF91CF911F910F91FF90EF90DF90CF90A8
:100C5000BF90AF909F908F907F906F905F904F90DC
:100C60003F902F90089580E0EBCFCF93DF931F92BA
:100C7000CDB7DEB741E050E0BE016F5F7F4FFC01B2
:100C8000848595850E941005882329F089810F901D
:100C9000DF91CF9108958FEFFACF4F925F926F92CD
:100CA0007F928F929F92AF92BF92CF92DF92EF92FC
:100CB000FF920F931F93CF936B017C01742EAC01B5
:100CC0009B010E94610F882399F08CE491E0CF9101
:100CD0001F910F91FF90EF90DF90CF90BF90AF905A
:100CE0009F908F907F906F905F904F900C94B10485
:100CF00046015701E894B7F82FEF3FEF4FE75FE762
:100D0000C501B4010E94610F81110DC02FEF3FEFAB
:100D10004FE75FE7C501B4010E94970D18161CF458
:100D200080E591E0D4CF2FEF3FEF4FE75FE4C701BD
:100D3000B6010E94EF0E18161CF484E591E0C7CFAF
:100D40002FEF3FEF4FE75FECC701B6010E94970D11
:100D500087FDF3CF20E030E0A901C701B6010E9472
:100D6000970D10E000E087FF0AC06DE28BE292E091
:100D70000E94F4018C01F7FAF094F7F8F094C0E0C7
:100D800060E070E080E09FE37C1641F020E030E01E
:100D900040E251E40E949C0DCF5FF6CFA70196017F
:100DA0000E942B0D2B013C010E940E0E4B015C0199
:100DB0004AE00E94CC047C01E00EF11ECC23C1F17C
:100DC000C501B4010E943D0E9B01AC01C301B201FB
:100DD0000E942A0D4B015C016EE28BE292E00E94C0
:100DE000F401E80EF91EC15018F120E030E040E2B5
:100DF00051E4C501B4010E94F40E2B013C010E9494
:100E00000E0E4B01B12CA12C4AE0C501B4010E9489
:100E1000CC04E80EF91EC501B4010E943D0E9B01F1
:100E2000AC01C301B2010E942A0D4B015C01DBCF72
:100E3000C701CF911F910F91FF90EF90DF90CF905E
:100E4000BF90AF909F908F907F906F905F904F90EA
:100E500008950C942A100C942A100F931F93CF938B
:100E6000DF938C01EB0188E2FB0111928A95E9F78F
:100E70004BE050E068E571E0CE010E94B3101B86A4
:100E800081E090E0A0E0B0E08C879D87AE87BF87CF
:100E9000F80182819381092E000CAA0BBB0B888B71
:100EA000998BAA8BBB8B8DE090E0A0E0B0E08C8B9F
:100EB0009D8BAE8BBF8B1CA21DA21EA21FA280E029
:100EC00090E0A0E2B2EC8C8F9D8FAE8FBF8F80E060
:100ED00090E0AAEAB2E4888F998FAA8FBB8F8AE943
:100EE00099E9A9E9BEE388A399A3AAA3BBA3DF91CB
:100EF000CF911F910F9108950F931F93CF93DF937D
:100F00008C01EB0188E2FB0111928A95E9F74BE035
:100F100050E060E671E0CE010E94B3101B8681E0D4
:100F200090E0A0E0B0E08C879D87AE87BF87F80196
:100F300082819381092E000CAA0BBB0B888B998BA5
:100F4000AA8BBB8B8CE090E0A0E0B0E08C8B9D8BFB
:100F5000AE8BBF8B1CA21DA21EA21FA21C8E1D8EBB
:100F60001E8E1F8E80E090E0A8ECB2E4888F998FEF
:100F7000AA8FBB8F80E090E0A0E0B0E488A399A3A3
:100F8000AAA3BBA3DF91CF911F910F9108954F9218
:100F90005F926F927F92AF92BF92CF92DF92EF9269
:100FA000FF920F931F93CF93DF93CDB7DEB72997AF
:100FB0000FB6F894DEBF0FBECDBF2FB7F8944090A8
:100FC000B1015090B2016090B3017090B4012FBF95
:100FD000C0900601D0900701E0900801CF82D8862A
:100FE000E986DC011C96ED91FC912481358123304A
:100FF0003105B8F4B12C8B2D29960FB6F894DEBFCD
:101000000FBECDBFDF91CF911F910F91FF90EF9059
:10101000DF90CF90BF90AF907F906F905F904F9098
:1010200008956A017B018C01808191E09093070211
:10103000809329021092080210922A0243E050E0A5
:10104000BE01695F7F4FCF010E94D403882391F2D4
:10105000C8010E94350687FF07C06AE070E080E0A3
:1010600090E00E942001F4CF46E050E0BE016F5FA7
:101070007F4FF801848595850E941005B82E88233E
:1010800009F4B8CF6A817B81762767277627CB0161
:10109000B0E0A0E09C01AD0184E0220F331F441FAB
:1010A000551F8A95D1F7AC808A2D90E064E0959524
:1010B00087956A95E1F7092E000CAA0BBB0BBC01C2
:1010C000CD01622B732B842B952B0E943D0E20E0CB
:1010D00030E048EC52E40E94F40E20E030E040E8BA
:1010E00055E30E94F40ED80114966D937D938D9371
:1010F0009C9317976A2D6F7070E090E080E0982FB6
:10110000872F762F66272D81622B982F872F762F9A
:1011100066272E81622B0E943D0E20E030E048E4DD
:1011200053E40E94F40E20E030E040E855E30E94D2
:10113000F40E20E030E048E452E40E942A0DF80169
:101140006083718382839383C114D10481F1F6019A
:10115000349680E2DF011D928A95E9F784E290E0FF
:10116000A0E0B0E0F60180839183A283B383D8012D
:101170001A968D919C91B0E0A0E084839583A6831C
:10118000B7838DE090E0A0E0B0E080879187A287F0
:10119000B387408A518A628A738AF801808191817B
:1011A000A281B381F601848B958BA68BB78BE1145A
:1011B000F10409F420CFF701349680E2DF011D929B
:1011C0008A95E9F784E290E0A0E0B0E0F70180833F
:1011D0009183A283B383D80118968D919C91B0E03E
:1011E000A0E084839583A683B7838DE090E0A0E0A0
:1011F000B0E080879187A287B387408A518A628A4C
:10120000738AF80184819581A681B781F701848B67
:10121000958BA68BB78BEFCEAB0170E060E0FC0145
:10122000848195810E94C70781E0089550E040E0E5
:10123000FC01848195810E94C70781E0089585EDB6
:101240008093BC008091030290910402A09105025A
:10125000B09106020796A11DB11D23E0B695A79592
:10126000979587952A95D1F72091BC0024FD03C05E
:10127000109201020895409103025091040260917E
:10128000050270910602452B462B472B69F3009708
:10129000A105B10541F02AE22A95F1F700C00197B6
:1012A000A109B109E1CF809102020C94C3021F92FF
:1012B0000F920FB60F9211242F933F938F939F930A
:1012C000AF93BF938091B1019091B201A091B3010E
:1012D000B091B4013091B00123E0230F2D3758F5C0
:1012E0000196A11DB11D2093B0018093B10190938F
:1012F000B201A093B301B093B4018091B501909174
:10130000B601A091B701B091B8010196A11DB11D20
:101310008093B5019093B601A093B701B093B80143
:10132000BF91AF919F918F913F912F910F900FBEE1
:101330000F901F90189526E8230F0296A11DB11D4E
:10134000D2CF1F920F920FB60F9211242F933F937B
:101350004F935F936F937F938F939F93AF93BF93BD
:10136000EF93FF938BE292E00E94D201FF91EF9105
:10137000BF91AF919F918F917F916F915F914F91AD
:101380003F912F910F900FBE0F901F9018951F92B5
:101390000F920FB60F9211242F938F939F93EF9379
:1013A000FF93E0913B02F0913C028081E091410289
:1013B000F091420282FD1BC09081809144028F5FB8
:1013C0008F7320914502821741F0E0914402F0E0D2
:1013D000E55DFD4F958F80934402FF91EF919F91C2
:1013E0008F912F910F900FBE0F901F9018958081B5
:1013F000F4CF1F920F920FB60F9211242F933F93A9
:101400004F935F936F937F938F939F93AF93BF930C
:10141000EF93FF938091B900887F803609F44AC02A
:10142000F0F5883209F4A7C018F5803109F49BC0A3
:10143000B8F4882309F4F9C0883009F494C0FF9106
:10144000EF91BF91AF919F918F917F916F915F913C
:101450004F913F912F910F900FBE0F901F901895B5
:10146000883109F488C0803251F78093FF0114C09D
:10147000803409F49DC040F48033B9F38833F9F621
:101480008093FF0185ECB0C0803509F485C08835B4
:1014900009F496C0883499F60E941F09D0CF883984
:1014A00009F48CC038F5883729F050F4883611F0EB
:1014B000803729F683E0809301021092AB0157C078
:1014C000883809F47BC0803919F0803809F0B7CF2B
:1014D0008091AB01803208F071C0E091AB0181E0F6
:1014E0008E0F8093AB018091BB00F0E0E557FE4F7B
:1014F00080833DC0803B39F0E0F4803A09F479C044
:10150000883A09F09CCF84E08093010210928A010E
:1015100010928901E091AC01F091AD0109958091A3
:10152000890181110FC081E08093890110926901C6
:1015300009C0803C09F4A6CF883C09F4A3CF883BBE
:1015400009F07DCFE0918A0181E08E0F80938A01BE
:10155000F0E0E759FE4F80818093BB0090918A01B3
:101560008091890129C08091DC018093BB0085ECCA
:101570008093BC0064CF9091FE018091FD0198178B
:1015800058F5E091FE0181E08E0F8093FE01F0E0BE
:10159000E352FE4F8081E9CFE091FE0181E08E0FA2
:1015A0008093FE018091BB00F0E0E352FE4F808308
:1015B0009091FE018091FD019817C8F285E8D8CF7F
:1015C000E091FE0181E08E0F8093FE018091BB00CF
:1015D000F0E0E352FE4F80838091000281115CCFE6
:1015E00081E08093DB0184EA8093BC0010920102C9
:1015F00026CF85EC8093BC00109201028091AB0154
:10160000803230F4E091AB01F0E0E557FE4F1082FC
:101610006091AB0170E0E091AE01F091AF018BE819
:1016200091E009951092AB010ACF1092FF0134CFDF
:10163000EBE2F2E01382128288EE93E0A0E0B0E0E9
:1016400084839583A683B78329E231E031832083A5
:1016500025EC30E03587248724EC30E03787268777
:1016600020EC30E0318B208B21EC30E0338B228B6F
:1016700022EC30E0358B248B26EC30E0378B268B48
:10168000118E128E138E148EE8ECF2E01382128209
:1016900084839583A683B7838BE391E091838083D2
:1016A000E4EDF2E01586148617861686118A108AF4
:1016B0000895CF93DF93CDB7DEB7C854D1090FB6E5
:1016C000F894DEBF0FBECDBF789484B5826084BD30
:1016D00084B5816084BD85B5826085BD85B5816036
:1016E00085BD80916E00816080936E0010928100B4
:1016F000809181008260809381008091810081606F
:10170000809381008091800081608093800080912F
:10171000B10084608093B1008091B00081608093BB
:10172000B00080917A00846080937A0080917A0082
:10173000826080937A0080917A00816080937A0041
:1017400080917A00806880937A001092C100E091C5
:101750003B02F0913C0282E08083E0913702F091FD
:1017600038021082E0913902F0913A028FEC8083C6
:1017700010924302E0913F02F091400286E08083A4
:10178000E0913D02F0913E02808180618083E09192
:101790003D02F0913E02808188608083E0913D02AD
:1017A000F0913E02808180688083E0913D02F0915B
:1017B0003E0280818F7D808364E170E080E090E074
:1017C0000E9420018091E0029091E102009711F0C7
:1017D0000E942A1086E090E00E948E0F8C0188E320
:1017E000D8018C9388EC92E012969C938E9311977B
:1017F00013961C92139780E290E015969C938E931B
:1018000014971093E1020093E0021092BA01109233
:10181000B9011092080210922A020E94A50282E5E4
:1018200091E09093AD018093AC0183E591E09093BA
:10183000AF018093AE01FF24F394F801F382C80155
:101840000E94EF03882309F4E5C08AEB8983809125
:10185000E0029091E102DC0114962D913C911597E4
:10186000232B09F4D7C02C91F09207022093290270
:101870001092080210922A0241E050E0BE016F5F10
:101880007F4F0E94D403882309F4C4C064E170E050
:1018900080E090E00E94200184ED92E00E943506F5
:1018A00087FF05C06AE070E080E090E0F3CF81EE52
:1018B000898388E08A831B828091E0029091E10213
:1018C000FC01248135812330310588F0208131E00D
:1018D00030930702209329021092080210922A02E4
:1018E00043E050E0BE016F5F7F4F0E94D40384ED60
:1018F00092E00E94350687FF07C06AE070E080E052
:1019000090E00E942001F3CF84ED92E00E94350622
:1019100083FF80C08091E4029091E502009739F046
:10192000DC01ED91FC910280F381E02D099580911D
:10193000E2029091E302009739F0DC01ED91FC9115
:101940000280F381E02D099586E090E00E948E0FE1
:10195000FC018BE191E09183808380E290E19383AD
:10196000828304ED12E015830483F093E502E09393
:10197000E40286E090E00E948E0FFC018DE091E091
:101980009183808381E290E1938382831583048332
:10199000F093E302E093E20288E690E00E94BE0446
:1019A00000E010E0AE014F5F5F4FBE016B5D7F4F07
:1019B00084ED92E00E94C70782EB90E00E94410212
:1019C0006D897E898F89988D41E00E944D068DEA50
:1019D00090E00E94410282EA90E00E94410269ADDB
:1019E0007AAD8BAD9CAD41E00E944D068FE990E051
:1019F0000E94BE0468EE73E080E090E00E94200147
:101A00000115110579F20E94BE01882359F20E9446
:101A10000000C8CF88E790E00E94BE04FFCF80910D
:101A2000E2029091E302009739F0DC01ED91FC9124
:101A30000280F381E02D09958091E4029091E50206
:101A4000009739F0DC01ED91FC910280F381E02DEB
:101A5000099408955058BB27AA270E94420D0C9460
:101A6000B50E0E94A70E38F00E94AE0E20F039F499
:101A70009F3F19F426F40C94A40E0EF4E095E7FBB6
:101A80000C949E0EE92F0E94C60E58F3BA176207F7
:101A900073078407950720F079F4A6F50C94E80EF7
:101AA0000EF4E0950B2EBA2FA02D0B01B901900179
:101AB0000C01CA01A0011124FF27591B99F0593FBD
:101AC00050F4503E68F11A16F040A22F232F342F05
:101AD0004427585FF3CF469537952795A795F04053
:101AE0005395C9F77EF41F16BA0B620B730B840B68
:101AF000BAF09150A1F0FF0FBB1F661F771F881F20
:101B0000C2F70EC0BA0F621F731F841F48F4879577
:101B100077956795B795F7959E3F08F0B0CF939569
:101B2000880F08F09927EE0F9795879508950E94E2
:101B30007A0E08F481E008950E94B00D0C94B50E61
:101B40000E94AE0E58F00E94A70E40F029F45F3FAD
:101B500029F00C949E0E51110C94E90E0C94A40ED5
:101B60000E94C60E68F39923B1F3552391F3951B98
:101B7000550BBB27AA2762177307840738F09F5FAE
:101B80005F4F220F331F441FAA1FA9F335D00E2E1B
:101B90003AF0E0E832D091505040E695001CCAF788
:101BA0002BD0FE2F29D0660F771F881FBB1F26174B
:101BB00037074807AB07B0E809F0BB0B802DBF0122
:101BC000FF2793585F4F3AF09E3F510578F00C94F1
:101BD0009E0E0C94E90E5F3FE4F3983ED4F3869595
:101BE00077956795B795F7959F5FC9F7880F911D12
:101BF0009695879597F90895E1E0660F771F881FFE
:101C0000BB1F621773078407BA0720F0621B730BB0
:101C1000840BBA0BEE1F88F7E09508950E94CE0E54
:101C200088F09F5798F0B92F9927B751B0F0E1F09D
:101C3000660F771F881F991F1AF0BA95C9F714C04D
:101C4000B13091F00E94E80EB1E008950C94E80ED6
:101C5000672F782F8827B85F39F0B93FCCF3869586
:101C600077956795B395D9F73EF4909580957095E3
:101C700061957F4F8F4F9F4F0895E89409C097FB60
:101C80003EF490958095709561957F4F8F4F9F4F53
:101C90009923A9F0F92F96E9BB279395F695879597
:101CA00077956795B795F111F8CFFAF4BB0F11F45A
:101CB00060FF1BC06F5F7F4F8F4F9F4F16C0882301
:101CC00011F096E911C0772321F09EE8872F762F37
:101CD00005C0662371F096E8862F70E060E02AF078
:101CE0009A95660F771F881FDAF7880F9695879564
:101CF00097F90895990F0008550FAA0BE0E8FEEF39
:101D000016161706E807F907C0F012161306E407BF
:101D1000F50798F0621B730B840B950B39F40A26B8
:101D200061F0232B242B252B21F408950A2609F496
:101D3000A140A6958FEF811D811D089597F99F679A
:101D400080E870E060E008959FEF80EC0895002443
:101D50000A941616170618060906089500240A9410
:101D600012161306140605060895092E0394000C96
:101D700011F4882352F0BB0F40F4BF2B11F460FF25
:101D800004C06F5F7F4F8F4F9F4F089557FD90584E
:101D9000440F551F59F05F3F71F04795880F97FB2F
:101DA000991F61F09F3F79F08795089512161306E9
:101DB0001406551FF2CF4695F1DF08C01616170618
:101DC0001806991FF1CF869571056105089408954D
:101DD000E894BB2766277727CB0197F908950E94DF
:101DE0007A0E08F48FEF08950E94070F0C94B50E39
:101DF0000E94A70E38F00E94AE0E20F0952311F03D
:101E00000C949E0E0C94A40E11240C94E90E0E94C6
:101E1000C60E70F3959FC1F3950F50E0551F629F5A
:101E2000F001729FBB27F00DB11D639FAA27F00D33
:101E3000B11DAA1F649F6627B00DA11D661F829F5A
:101E40002227B00DA11D621F739FB00DA11D621F3F
:101E5000839FA00D611D221F749F3327A00D611D5C
:101E6000231F849F600D211D822F762F6A2F11243E
:101E70009F5750409AF0F1F088234AF0EE0FFF1F71
:101E8000BB1F661F771F881F91505040A9F79E3FC8
:101E9000510580F00C949E0E0C94E90E5F3FE4F324
:101EA000983ED4F3869577956795B795F795E7951E
:101EB0009F5FC1F7FE2B880F911D9695879597F927
:101EC00008950E947A0E880B990B0895A1E21A2EAC
:101ED000AA1BBB1BFD010DC0AA1FBB1FEE1FFF1FCE
:101EE000A217B307E407F50720F0A21BB30BE40B1E
:101EF000F50B661F771F881F991F1A9469F7609565
:101F00007095809590959B01AC01BD01CF0108951E
:101F1000EE0FFF1F0590F491E02D09940F931F938E
:101F2000CF93DF938230910510F482E090E0E0914E
:101F3000E802F091E90230E020E0B0E0A0E0309764
:101F400099F42115310509F44AC0281B390B2430B6
:101F50003105D8F58A819B816115710589F1FB01F5
:101F600093838283FE0111C04081518102811381DC
:101F700048175907E0F04817590799F4109761F08E
:101F800012960C93129713961C933296CF01DF9101
:101F9000CF911F910F9108950093E8021093E902E9
:101FA000F4CF2115310551F04217530738F0A9013C
:101FB000DB019A01BD01DF01F801C1CFEF01F9CFCB
:101FC0009093E9028093E802CDCFFE01E20FF31F68
:101FD000819391932250310939832883D7CF20915F
:101FE000E6023091E702232B41F420910201309167
:101FF00003013093E7022093E60220910001309123
:1020000001012115310541F42DB73EB7409104017E
:1020100050910501241B350BE091E602F091E70297
:10202000E217F307A0F42E1B3F0B2817390778F0AF
:10203000AC014E5F5F4F2417350748F04E0F5F1F0E
:102040005093E7024093E602819391939FCFF0E093
:10205000E0E09CCFCF93DF930097E9F0FC0132974B
:1020600013821282A091E802B091E902ED0130E002
:1020700020E01097A1F420813181820F931F2091DD
:10208000E6023091E7022817390709F061C0F093A2
:10209000E702E093E602DF91CF910895EA01CE17BF
:1020A000DF07E8F54A815B819E0141155105B1F7D3
:1020B000E901FB83EA8349915991C40FD51FEC17BD
:1020C000FD0761F4808191810296840F951FE901DB
:1020D00099838883828193819B838A83F0E0E0E007
:1020E00012968D919C9113970097B9F52D913C9183
:1020F0001197CD010296820F931F2091E602309135
:10210000E7022817390739F6309751F51092E9029E
:102110001092E802B093E702A093E602BCCFD3830B
:10212000C28340815181840F951FC817D90761F47C
:102130004E5F5F4F88819981480F591F51834083BB
:102140008A819B81938382832115310509F0B0CF69
:10215000F093E902E093E8029ECFFD01DC01C0CFDD
:1021600013821282D7CFFB01DC014150504048F06E
:1021700001900D920020C9F701C01D9241505040BE
:10218000E0F7089510E0C4E8D0E004C0FE010E942A
:0E219000880F2196C538D107C9F7F894FFCF04
:10219E000000EA028000AC3300000000007C022B3D
:1021AE00077D020C092D07000000007C0229077D27
:1021BE000216097C0700000000F401540181015C45
:1021CE0002B2019001A401000000007F045204AE8F
:1021DE000428044B04380429040D0A006E616E00B5
:1021EE00696E66006F76660041485478305F540021
:0821FE0041485478305F4800AD
:00000001FF
