:100000000C946C000C9494000C9494000C94940048
:100010000C9494000C9494000C9494000C94940010
:100020000C9494000C9494000C9494000C94940000
:100030000C9494000C9494000C9494000C949400F0
:100040000C94EB010C9494000C945B020C9435021C
:100050000C9494000C9494000C9494000C949400D0
:100060000C9494000C9494000000000024002700DD
:100070002A005B38385D2042617267726170686582
:1000800020707265740000000000250028002B001D
:10009000040404040404040402020202020203032E
:1000A0000303030301020408102040800102040836
:1000B00010200102040810200000000800020100C6
:1000C0000003040700000000000000004E69766590
:1000D00061753A2000003C0411241FBECFEFD8E028
:1000E000DEBFCDBF11E0A0E0B1E0E0E9F9E002C081
:1000F00005900D92A032B107D9F721E0A0E2B1E05E
:1001000001C01D92A63CB207E1F710E0CCE6D0E0BA
:1001100004C02197FE010E94C004CB36D107C9F765
:100120000E948D020C94C6040C9400003FB7F89412
:100130008091250190912601A0912701B09128017D
:1001400026B5A89B05C02F3F19F00196A11DB11D32
:100150003FBFBA2FA92F982F8827BC01CD01620F6E
:10016000711D811D911D42E0660F771F881F991F29
:100170004A95D1F70895AF92BF92CF92DF92EF9256
:10018000FF920F931F93CF93DF936C017B018B0141
:10019000040F151FEB015E01AE18BF08C017D10791
:1001A00059F06991D601ED91FC910190F081E02D1B
:1001B000C6010995892B79F7C501DF91CF911F9170
:1001C0000F91FF90EF90DF90CF90BF90AF90089588
:1001D000FC01538D448D252F30E0842F90E0821B4D
:1001E000930B541710F0CF96089501970895FC01D2
:1001F000918D828D981761F0A28DAE0FBF2FB11D2A
:100200005D968C91928D9F5F9F73928F90E0089581
:100210008FEF9FEF0895FC01918D828D981731F03B
:10022000828DE80FF11D858D90E008958FEF9FEF8F
:100230000895FC01918D228D892F90E0805C9F4F65
:10024000821B91098F739927089589E291E00E949A
:10025000190121E0892B09F420E0822F089580E024
:1002600090E0892B29F00E94250181110C94000057
:100270000895FC01A48DA80FB92FB11DA35ABF4F3B
:100280002C91848D90E001968F739927848FA68995
:10029000B7892C93A089B1898C91837080648C93E9
:1002A000938D848D981306C00288F389E02D808198
:1002B0008F7D80830895EF92FF920F931F93CF93CA
:1002C000DF93EC0181E0888F9B8D8C8D98131AC091
:1002D000E889F989808185FF15C09FB7F894EE8978
:1002E000FF896083E889F9898081837080648083D5
:1002F0009FBF81E090E0DF91CF911F910F91FF9020
:10030000EF900895F62E0B8D10E00F5F1F4F0F73C7
:100310001127E02E8C8D8E110CC00FB607FCFACF82
:10032000E889F989808185FFF5CFCE010E943901E6
:10033000F1CFEB8DEC0FFD2FF11DE35AFF4FF08253
:100340009FB7F8940B8FEA89FB8980818062CFCFB9
:100350000F931F93CF93DF938C01D0E0C0E0F8019F
:10036000EC0FFD1F6491662341F089E291E00E9449
:100370005B01892B11F02196F2CFCE01DF91CF9155
:100380001F910F910895CF93DF93EC01888D8823FF
:10039000B9F0AA89BB89E889F9898C9185FD03C0E8
:1003A000808186FD0DC00FB607FCF7CF8C9185FFCD
:1003B000F2CF808185FFEDCFCE010E943901E9CFD8
:1003C000DF91CF91089542E050E06CE171E089E265
:1003D00091E00C94BB001F920F920FB60F92112464
:1003E0002F933F938F939F93AF93BF93809121015E
:1003F00090912201A0912301B0912401309120011C
:1004000023E0230F2D3758F50196A11DB11D209330
:1004100020018093210190932201A0932301B093A6
:1004200024018091250190912601A0912701B0918E
:1004300028010196A11DB11D8093250190932601ED
:10044000A0932701B0932801BF91AF919F918F9105
:100450003F912F910F900FBE0F901F90189526E897
:10046000230F0296A11DB11DD2CF1F920F920FB67E
:100470000F9211242F933F934F935F936F937F932A
:100480008F939F93AF93BF93EF93FF9389E291E094
:100490000E943901FF91EF91BF91AF919F918F9190
:1004A0007F916F915F914F913F912F910F900FBE70
:1004B0000F901F9018951F920F920FB60F92112454
:1004C0002F938F939F93EF93FF93E0913901F091D6
:1004D0003A018081E0913F01F091400182FD1BC013
:1004E0009081809142018F5F8F7320914301821729
:1004F00041F0E0914201F0E0E75DFE4F958F80937F
:100500004201FF91EF919F918F912F910F900FBE1C
:100510000F901F9018958081F4CFCF93DF93CDB7C4
:10052000DEB7A1970FB6F894DEBF0FBECDBF7894AB
:1005300084B5826084BD84B5816084BD85B58260E8
:1005400085BD85B5816085BD80916E008160809399
:100550006E00109281008091810082608093810002
:100560008091810081608093810080918000816012
:10057000809380008091B10084608093B10080916D
:10058000B00081608093B00080917A008460809395
:100590007A0080917A00826080937A0080917A005C
:1005A000816080937A0080917A00806880937A00DD
:1005B0001092C1002CE131E0A2E1B1E08D9190E018
:1005C000FC01EC55FF4F649180579F4FFC018491D3
:1005D0008823A1F090E0880F991FFC01E859FF4F94
:1005E00045915491FC01EA57FF4F859194918FB743
:1005F000F894FA019081962B90838FBF2A173B07BE
:10060000E9F6E0913901F0913A0182E08083E091CE
:100610003501F09136011082E0913701F0913801F7
:100620008FEC808310924101E0913D01F0913E01F9
:1006300086E08083E0913B01F0913C018081806104
:100640008083E0913B01F0913C0180818860808350
:10065000E0913B01F0913C01808180688083E091D2
:100660003B01F0913C0180818F7D808382E790E0A7
:100670000E94A8010E94E3012AE0822E912CA12C65
:10068000B12C30E0232E30E0332EF0E4F0937C00E8
:1006900080917A00806480937A0080917A0086FD50
:1006A000FCCFA0917800B09179002AE030E00E9460
:1006B000B9042FEF33E040E050E00E946904690183
:1006C0007A01A901A2E1B1E030E020E08D9190E053
:1006D000FC01E854FF4F6491FC01EC55FF4F14916D
:1006E000FC01E057FF4FE491EE2301F1662359F03E
:1006F000633009F492C008F085C0613009F493C0FA
:10070000623009F494C0F0E0EE0FFF1FEA57FF4F8C
:10071000659174918FB7F894FB0190812417350788
:100720000CF492C01095192310838FBF2F5F3F4F99
:100730002A30310509F0CACF8CEC90E00E94A80164
:10074000F7FE84C06DE289E291E00E945B012227FE
:100750003327A9012C193D094E095F0919A28E0101
:100760000F5D1F4FCA01B901A50194010E948804C1
:10077000605DF80162938F01211531054105510536
:1007800089F70115110561F001900020E9F7319713
:10079000AF01401B510BB80189E291E00E94BB0000
:1007A0000E94E3010E9496002B013C0184E6C82EC2
:1007B000D12CE12CF12C0E94960064197509860950
:1007C0009709683E734081059105A8F3F1E0CF1ABF
:1007D000D108E108F10828EE420E23E0521E611C08
:1007E000711CC114D104E104F10429F7211431046E
:1007F00009F44BCF0E942501882309F446CF0E94BB
:10080000000043CF6730B1F06830D1F0643009F0B8
:100810007ACF809180008F7D03C0809180008F7798
:100820008093800070CF84B58F7784BD6CCF84B502
:100830008F7DFBCF8091B0008F778093B00063CF26
:100840008091B0008F7DF9CF192B6ECFA701960153
:1008500019A28E010F5D1F4FCA01B901A5019401B4
:100860000E948804605DF80162938F0121153105B3
:100870004105510589F785CFE9E2F1E01382128243
:1008800088EE93E0A0E0B0E084839583A683B783ED
:1008900084E091E09183808385EC90E09587848764
:1008A00084EC90E09787868780EC90E0918B808B3A
:1008B00081EC90E0938B828B82EC90E0958B848B23
:1008C00086EC90E0978B868B118E128E138E148E91
:1008D0000895052E97FB1EF400940E94800457FD96
:1008E00007D00E94880407FC03D04EF40C948004C7
:1008F00050954095309521953F4F4F4F5F4F08954C
:1009000090958095709561957F4F8F4F9F4F08957B
:10091000A1E21A2EAA1BBB1BFD010DC0AA1FBB1F03
:10092000EE1FFF1FA217B307E407F50720F0A21B75
:10093000B30BE40BF50B661F771F881F991F1A94E2
:1009400069F760957095809590959B01AC01BD010C
:10095000CF010895A29FB001B39FC001A39F700D66
:10096000811D1124911DB29F700D811D1124911DB7
:1009700008950E94AA04B7FF0895821B930B08955F
:10098000EE0FFF1F0590F491E02D0994F894FFCF2E
:10099000000000005B01BB00E800C3011901F70083
:1009A0000B0102030405060708090A0B0D0A0000E3
:00000001FF
