:100000000C947A000C94A2000C94A2000C94A20010
:100010000C94A2000C94A2000C94A2000C94A200D8
:100020000C94A2000C94A2000C94A2000C94A200C8
:100030000C94A2000C94A2000C94A2000C94A200B8
:100040000C9431070C94A2000C94A1070C947B072C
:100050000C94A2000C94A2000C94A2000C94A20098
:100060000C94D3070C94A2005B36385D204D4C589D
:1000700039303631342070726574004D4C58393047
:1000800036313420696E74726F757661626C65000A
:10009000204300204320204F626A65743A200041CB
:1000A0006D6269616E74653A2000000000002500F1
:1000B00028002B00040404040404040402020202C5
:1000C000020203030303030301020408102040801B
:1000D000010204081020010204081020000000089A
:1000E00000020100000304070000000000000000FF
:1000F000F2087A0A11241FBECFEFD8E0DEBFCDBFD1
:1001000011E0A0E0B1E0E2E3FCE102C005900D9255
:10011000AA33B107D9F722E0AAE3B1E001C01D92EA
:10012000AD3AB207E1F710E0C9E7D0E004C021978B
:10013000FE010E94E10CC837D107C9F70E942F09C0
:100140000C940C0E0C94000090E0FC01E452FF4F64
:100150002491FC01E853FF4F3491FC01EC54FF4F14
:10016000E491EE23C9F0222339F0233001F1A8F401
:10017000213019F1223029F1F0E0EE0FFF1FE65592
:10018000FF4FA591B4918FB7F894EC91611126C0FF
:1001900030953E233C938FBF08952730A9F0283037
:1001A000C9F0243049F7809180008F7D03C0809191
:1001B00080008F7780938000DFCF84B58F7784BDF8
:1001C000DBCF84B58F7DFBCF8091B0008F7780939C
:1001D000B000D2CF8091B0008F7DF9CF3E2BDACF27
:1001E0003FB7F8948091870190918801A09189018F
:1001F000B0918A0126B5A89B05C02F3F19F0019642
:10020000A11DB11D3FBFBA2FA92F982F8827BC0170
:10021000CD01620F711D811D911D42E0660F771F98
:10022000881F991F4A95D1F7089508950895AF92B0
:10023000BF92CF92DF92EF92FF920F931F93CF93D3
:10024000DF936C017B018B01040F151FEB015E0135
:10025000AE18BF08C017D10759F06991D601ED91CA
:10026000FC910190F081E02DC6010995892B79F769
:10027000C501DF91CF911F910F91FF90EF90DF901B
:10028000CF90BF90AF900895FC01538D448D252FE2
:1002900030E0842F90E0821B930B541710F0CF9620
:1002A000089501970895FC01918D828D981761F052
:1002B000A28DAE0FBF2FB11D5D968C91928D9F5F69
:1002C0009F73928F90E008958FEF9FEF0895FC0148
:1002D000918D828D981731F0828DE80FF11D858DFB
:1002E00090E008958FEF9FEF0895FC01918D228D8E
:1002F000892F90E0805C9F4F821B91098F73992713
:1003000008958DEF91E00E94750121E0892B09F499
:1003100020E0822F089580E090E0892B29F00E9450
:10032000810181110C9400000895FC01A48DA80F97
:10033000B92FB11DA35ABF4F2C91848D90E0019627
:100340008F739927848FA689B7892C93A089B18947
:100350008C91837080648C93938D848D981306C0E8
:100360000288F389E02D80818F7D80830895EF924C
:10037000FF920F931F93CF93DF93EC0181E0888F5F
:100380009B8D8C8D98131AC0E889F989808185FF2F
:1003900015C09FB7F894EE89FF896083E889F989D1
:1003A00080818370806480839FBF81E090E0DF91D3
:1003B000CF911F910F91FF90EF900895F62E0B8D26
:1003C00010E00F5F1F4F0F731127E02E8C8D8E11E1
:1003D0000CC00FB607FCFACFE889F989808185FF48
:1003E000F5CFCE010E949501F1CFEB8DEC0FFD2FE3
:1003F000F11DE35AFF4FF0829FB7F8940B8FEA8903
:10040000FB8980818062CFCF0F931F93CF93DF93BF
:100410008C01D0E0C0E0F801EC0FFD1F6491662371
:1004200041F08DEF91E00E94B701892B11F02196E8
:10043000F2CFCE01DF91CF911F910F910895CF930D
:10044000DF93EC01888D8823B9F0AA89BB89E889FC
:10045000F9898C9185FD03C0808186FD0DC00FB6A2
:1004600007FCF7CF8C9185FFF2CF808185FFEDCF20
:10047000CE010E949501E9CFDF91CF91089520919F
:100480005B01260F3327331F21323105ECF4209115
:10049000D301FC0190E080E0243069F082E008950F
:1004A000A0915B012191AC01455C5E4FA40FB52F7B
:1004B000B11D2C930196861798F380915B01680F0C
:1004C00060935B0180E0089581E008951092D3016C
:1004D00081E08093D2011092AD0161E082E10E943F
:1004E000A40061E083E10E94A400E9EBF0E08081D8
:1004F0008E7F808380818D7F808388E48093B800A5
:1005000085E48093BC000895CF93DF9391E09093AE
:100510003A018823B9F0C091B800D091BA00809117
:10052000BC008A7B8093BC0060E082E10E94A40052
:1005300060E083E10E94A4000E946602D093BA00AA
:10054000C093B800DF91CF9108958F929F92AF92A0
:10055000BF92CF92DF92EF92FF920F931F93CF93B0
:10056000DF93D091FC01D13208F0D7C0182FC09191
:10057000FB010E94F0006B017C018091D30181118D
:100580006BC082E08093D3011093D2018FEF8093F0
:10059000D1011092D001D093CF01ABEDB1E0EFEAE1
:1005A000F1E080E0D81391C01092AE018091AE01CD
:1005B000CC0FC82BC093AE018091AD01813009F002
:1005C00088C01092AD010E94F0006B017C01809107
:1005D000AE018093BB008091D5019091D601A0918E
:1005E000D701B091D801892B8A2B8B2BA1F00E94C7
:1005F000F0000091D5011091D6012091D7013091E2
:10060000D8016C197D098E099F090617170728075D
:10061000390708F442C08091BC0083FDD8CF85EC37
:100620008093BC000E94F0006B017C018091D3019B
:10063000823009F450C08091D1018F3F09F46FC01E
:100640008091D101803209F46CC08091D101803356
:1006500009F469C084E026C08091D5019091D6014B
:10066000A091D701B091D801892B8A2B8B2B09F44B
:1006700084CF0E94F0008090D5019090D601A09088
:10068000D701B090D8016C197D098E099F09861693
:100690009706A806B90608F070CF8091D4010E9491
:1006A000840285E01092DA011092FC011092D901C7
:1006B000DF91CF911F910F91FF90EF90DF90CF903E
:1006C000BF90AF909F908F9008959D9191938F5F71
:1006D00069CF85EEA5CF8091D5019091D601A091EB
:1006E000D701B091D801892B8A2B8B2B09F49ECF8F
:1006F0000E94F0000091D5011091D6012091D70100
:100700003091D8016C197D098E099F0906171707CA
:100710002807390708F08ACFC0CF81E0C3CF80E037
:10072000C1CF82E0BFCF83E0BDCFCF93DF93EC0199
:100730008B818823A1F0888191E09093D9018093E7
:10074000FB011092DA011092FC0181E00E94A502E7
:1007500091E0811190E0892FDF91CF91089510925F
:100760008C0110928B011092DA011092FC010E9410
:10077000660285E191E0909381018093800186E19A
:1007800091E090937F0180937E0181E08B83CE0185
:100790000E949503982F8111CECFDDCF0895E0916F
:1007A0008C0180918B01E81730F4F0E0E357FE4FA5
:1007B000808190E008958FEF9FEF089590918C01D4
:1007C00080918B012FEF3FEF981748F4E92FF0E06D
:1007D000E357FE4F208130E09F5F90938C01C90169
:1007E000089580918B0190918C01891B990B08953C
:1007F000CF92DF92EF92FF920F931F93CF93DF93ED
:100800007C01CB018A012091D901222389F0EB01DF
:100810006B01C40ED51ECC15DD0569F06991D701B9
:10082000ED91FC910190F081E02DC7010995F3CF86
:10083000642F0E943F02C801DF91CF911F910F9159
:10084000FF90EF90DF90CF900895CF93DF931F92AA
:10085000CDB7DEB769832091D9012223F9F0209129
:10086000FC01203258F021E030E0FC013383228388
:1008700090E080E00F90DF91CF9108958091DA01B0
:10088000E82FF0E0E552FE4F998190838F5F8093CF
:10089000DA018093FC0181E090E0ECCF61E0CE01D1
:1008A00001960E943F02F7CF90E080E00895FC019E
:1008B00001900020E9F73197AF01481B590BBC01AB
:1008C0008DEF91E00C941701CF93DF930E94040207
:1008D000EC018AE291E00E9457048C0F9D1FDF918A
:1008E000CF9108958F929F92AF92BF920F931F93D3
:1008F000CF93DF93CDB7DEB7A1970FB6F894DEBFE5
:100900000FBECDBF19A2423008F44AE08E010F5D40
:100910001F4F842E912CB12CA12CA50194010E9473
:10092000BF0CE62FB901CA01EA30F4F4E05DD8014A
:10093000EE938D01232B242B252B79F790E080E07B
:10094000109719F0CD010E945704A1960FB6F894A4
:10095000DEBF0FBECDBFDF91CF911F910F91BF9032
:10096000AF909F908F900895E95CE1CF4F925F9296
:100970006F927F928F929F92AF92BF92CF92DF92AF
:10098000EF92FF920F931F93CF936B017C01742E14
:10099000AC019B010E94BA0C882399F08DE291E092
:1009A000CF911F910F91FF90EF90DF90CF90BF906C
:1009B000AF909F908F907F906F905F904F900C942E
:1009C000570446015701E894B7F82FEF3FEF4FE780
:1009D0005FE7C501B4010E94BA0C81110DC02FEF71
:1009E0003FEF4FE75FE7C501B4010E94F00A181618
:1009F0001CF481E391E0D4CF2FEF3FEF4FE75FE4AA
:100A0000C701B6010E94480C18161CF485E391E05A
:100A1000C7CF2FEF3FEF4FE75FECC701B6010E9452
:100A2000F00A87FDF3CF20E030E0A901C701B6014D
:100A30000E94F00A10E000E087FF0AC06DE28DEF2F
:100A400091E00E94B7018C01F7FAF094F7F8F09466
:100A5000C0E060E070E080E09FE37C1641F020E0C1
:100A600030E040E251E40E94F50ACF5FF6CFA701E3
:100A700096010E94840A2B013C010E94670B4B01E6
:100A80005C014AE00E9472047C01E00EF11ECC235E
:100A9000C1F1C501B4010E94960B9B01AC01C301D9
:100AA000B2010E94830A4B015C016EE28DEF91E07E
:100AB0000E94B701E80EF91EC15018F120E030E0A5
:100AC00040E251E4C501B4010E944D0C2B013C01F0
:100AD0000E94670B4B01B12CA12C4AE0C501B40167
:100AE0000E947204E80EF91EC501B4010E94960B23
:100AF0009B01AC01C301B2010E94830A4B015C015E
:100B0000DBCFC701CF911F910F91FF90EF90DF9046
:100B1000CF90BF90AF909F908F907F906F905F909D
:100B20004F9008952F923F924F925F926F927F92D3
:100B30008F929F92AF92BF92CF92DF92EF92FF92ED
:100B40000F931F93CF93DF9300D01F92CDB7DEB7E3
:100B50008983C090A602D090A702D60114968D91E9
:100B60009C911597892B09F42CC111968D919C911C
:100B700012972C9131E03093D9012093FB01109210
:100B8000DA011092FC01DC01ED91FC910280F3810D
:100B9000E02D41E050E0BE016F5F7F4F0995019766
:100BA00009F00FC180E00E94A50281110AC1F12C59
:100BB000E12C23E0822E912C3324339435EC232E28
:100BC000F6018481958184010E191F098017910710
:100BD00008F48C01D601AC900E94F0002B013C017E
:100BE0008091D301811172C0B02EB0E2B01710F421
:100BF00090E2B92E3092D30121E0C401801B910B09
:100C0000E816F90608F420E02093D201EFEFE09314
:100C1000D1011092D0018FEF8B0D8093CF013092D4
:100C2000AE018091AE01AA0CA82AA092AE018091DB
:100C3000AD01813009F095C01092AD010E94F00025
:100C40002B013C018091AE018093BB008091D501C6
:100C50009091D601A091D701B091D801892B8A2B10
:100C60008B2BA1F00E94F0002091D5013091D6018C
:100C70004091D7015091D8016419750986099709E7
:100C8000261737074807590708F441C08091BC0070
:100C900083FDD8CF2092BC000E94F0002B013C01C4
:100CA0008091D301813009F460C08091D0018B150F
:100CB00010F4B090D001AFEAB1E0EDE8F1E080E0EF
:100CC0008B1551F19D9191938F5FFACF8091D50152
:100CD0009091D601A091D701B091D801892B8A2B90
:100CE0008B2B09F47DCF0E94F0002091D50130912B
:100CF000D6014091D7015091D80164197509860930
:100D00009709261737074807590708F069CF8091D8
:100D1000D4010E948402B12C10928C01B0928B01FC
:100D2000B016110609F04DC0AA24A394B12CAC0E44
:100D3000BD1EAE0CBF1C3501C50186199709801771
:100D40009107A8F5D60111968D919C91DC01ED914A
:100D5000FC910284F385E02D0995F50181935F01F3
:100D6000EBCFF5EEF093BC0097CF8091D501909139
:100D7000D601A091D701B091D801892B8A2B8B2B5A
:100D800009F48ECF0E94F0002091D5013091D60158
:100D90004091D7015091D8016419750986099709C6
:100DA000261737074807590708F07ACFB0CFE00E6B
:100DB000F11EF3E0EF16F10408F402CF89819A8165
:100DC00002C090E080E00F900F900F90DF91CF91E4
:100DD0001F910F91FF90EF90DF90CF90BF90AF9059
:100DE0009F908F907F906F905F904F903F902F904B
:100DF000089585ED8093BC008091D5019091D60136
:100E0000A091D701B091D8010796A11DB11D23E093
:100E1000B695A795979587952A95D1F72091BC000F
:100E200024FD03C01092D30108954091D501509143
:100E3000D6016091D7017091D801452B462B472BE5
:100E400069F30097A105B10541F02AE22A95F1F76F
:100E500000C00197A109B109E1CF8091D4010C94A0
:100E600084021F920F920FB60F9211242F933F937B
:100E70008F939F93AF93BF9380918301909184014F
:100E8000A0918501B09186013091820123E0230F6A
:100E90002D3758F50196A11DB11D20938201809335
:100EA000830190938401A0938501B0938601809182
:100EB000870190918801A0918901B0918A010196E2
:100EC000A11DB11D8093870190938801A093890192
:100ED000B0938A01BF91AF919F918F913F912F91D4
:100EE0000F900FBE0F901F90189526E8230F0296C3
:100EF000A11DB11DD2CF1F920F920FB60F921124D8
:100F00002F933F934F935F936F937F938F939F9311
:100F1000AF93BF93EF93FF938DEF91E00E94950104
:100F2000FF91EF91BF91AF919F918F917F916F91C1
:100F30005F914F913F912F910F900FBE0F901F9097
:100F400018951F920F920FB60F9211242F938F9323
:100F50009F93EF93FF93E0910D02F0910E02808139
:100F6000E0911302F091140282FD1BC090818091E8
:100F700016028F5F8F7320911702821741F0E09164
:100F80001602F0E0E350FE4F958F80931602FF911A
:100F9000EF919F918F912F910F900FBE0F901F9007
:100FA00018958081F4CF1F920F920FB60F921124E3
:100FB0002F933F934F935F936F937F938F939F9361
:100FC000AF93BF93EF93FF938091B900887F8036F2
:100FD00009F44AC0F0F5883209F4A7C018F5803149
:100FE00009F49BC0B8F4882309F4F9C0883009F4E7
:100FF00094C0FF91EF91BF91AF919F918F917F919D
:101000006F915F914F913F912F910F900FBE0F9075
:101010001F901895883109F488C0803251F7809369
:10102000D10114C0803409F49DC040F48033B9F379
:101030008833F9F68093D10185ECB0C0803509F48E
:1010400085C0883509F496C0883499F60E94F9065F
:10105000D0CF883909F48CC038F5883729F050F49E
:10106000883611F0803729F683E08093D3011092FF
:101070007D0157C0883809F47BC0803919F0803869
:1010800009F0B7CF80917D01803208F071C0E09106
:101090007D0181E08E0F80937D018091BB00F0E0A7
:1010A000E35AFE4F80833DC0803B39F0E0F4803A44
:1010B00009F479C0883A09F09CCF84E08093D30189
:1010C00010925C0110925B01E0918001F09181012E
:1010D000099580915B0181110FC081E080935B01D4
:1010E00010923B0109C0803C09F4A6CF883C09F46A
:1010F000A3CF883B09F07DCFE0915C0181E08E0FAA
:1011000080935C01F0E0E55CFE4F80818093BB0042
:1011100090915C0180915B0129C08091AE01809328
:10112000BB0085EC8093BC0064CF9091D00180918E
:10113000CF01981758F5E091D00181E08E0F809390
:10114000D001F0E0E155FE4F8081E9CFE091D00180
:1011500081E08E0F8093D0018091BB00F0E0E155DB
:10116000FE4F80839091D0018091CF019817C8F2F3
:1011700085E8D8CFE091D00181E08E0F8093D00137
:101180008091BB00F0E0E155FE4F80838091D20159
:1011900081115CCF81E08093AD0184EA8093BC0033
:1011A0001092D30126CF85EC8093BC001092D3011E
:1011B00080917D01803230F4E0917D01F0E0E35ACE
:1011C000FE4F108260917D0170E0E0917E01F09110
:1011D0007F018DE591E0099510927D010ACF109273
:1011E000D10134CFEDEFF1E01382128288EE93E06B
:1011F000A0E0B0E084839583A683B7832AE031E042
:101200003183208325EC30E03587248724EC30E0DF
:101210003787268720EC30E0318B208B21EC30E0C3
:10122000338B228B22EC30E0358B248B26EC30E0A4
:10123000378B268B118E128E138E148EEAE9F2E014
:101240001382128284839583A683B7838CE191E015
:10125000918380831092A7021092A6020895789439
:1012600084B5826084BD84B5816084BD85B58260AB
:1012700085BD85B5816085BD80916E00816080935C
:101280006E001092810080918100826080938100C5
:1012900080918100816080938100809180008160D5
:1012A000809380008091B10084608093B100809130
:1012B000B00081608093B00080917A008460809358
:1012C0007A0080917A00826080937A0080917A001F
:1012D000816080937A0080917A00806880937A00A0
:1012E0001092C100E0910D02F0910E0282E0808325
:1012F000E0910902F0910A021082E0910B02F09154
:101300000C028FEC808310921502E0911102F09193
:10131000120286E08083E0910F02F091100280813A
:1013200080618083E0910F02F091100280818860DB
:101330008083E0910F02F0911002808180688083A9
:10134000E0910F02F091100280818F7D80838AE509
:101350008093A8028091A6029091A702009711F0B5
:101360000E94830D86E090E00E94E70CEC018AE584
:1013700088838AE992E09A8389831B8280E290E0E5
:101380009D838C83D093A702C093A60210928C01F8
:1013900010928B011092DA011092FC010E946602F9
:1013A00085E191E0909381018093800186E191E055
:1013B00090937F0180937E0181E08B83CE010E9418
:1013C0009503811105C08BE790E00E946404FFCF74
:1013D00088E690E00E946404C0E0D0E08FE990E0ED
:1013E0000E94040286E00E949205BC0190E080E029
:1013F0000E94960B6B017C0120E030E0A9010E9465
:10140000F00A882309F46CC02AE037ED43EA5CE374
:10141000C701B6010E944D0C23E333E948E853E4C9
:101420000E94830A41E00E94B60483E990E00E9492
:10143000040287E00E949205BC0190E080E00E94D7
:10144000960B6B017C0120E030E0A9010E94F00ABC
:10145000882309F44AC02AE037ED43EA5CE3C70178
:10146000B6010E944D0C23E333E948E853E40E949F
:10147000830A41E00E94B60480E990E00E9464047F
:101480000E94F0004B015C0184EFC82EDD24D39450
:10149000E12CF12C0E94F000681979098A099B0956
:1014A000683E734081059105A8F321E0C21AD10876
:1014B000E108F10888EE880E83E0981EA11CB11C9B
:1014C000C114D104E104F10429F7209709F486CF6F
:1014D0000E948101882309F481CF0E9400007ECF01
:1014E00060E070E080EC9FE79DCF60E070E080EC12
:1014F0009FE7BFCF8091A6029091A702009711F0BD
:101500000C94830D08955058BB27AA270E949B0A6C
:101510000C940E0C0E94000C38F00E94070C20F076
:1015200039F49F3F19F426F40C94FD0B0EF4E0956A
:10153000E7FB0C94F70BE92F0E941F0C58F3BA1726
:10154000620773078407950720F079F4A6F50C94D9
:10155000410C0EF4E0950B2EBA2FA02D0B01B90112
:1015600090010C01CA01A0011124FF27591B99F019
:10157000593F50F4503E68F11A16F040A22F232F25
:10158000342F4427585FF3CF469537952795A79575
:10159000F0405395C9F77EF41F16BA0B620B730B1C
:1015A000840BBAF09150A1F0FF0FBB1F661F771F8D
:1015B000881FC2F70EC0BA0F621F731F841F48F442
:1015C000879577956795B795F7959E3F08F0B0CFCB
:1015D0009395880F08F09927EE0F979587950895B2
:1015E0000E94D30B08F481E008950E94090B0C942B
:1015F0000E0C0E94070C58F00E94000C40F029F4D9
:101600005F3F29F00C94F70B51110C94420C0C9491
:10161000FD0B0E941F0C68F39923B1F3552391F33E
:10162000951B550BBB27AA2762177307840738F051
:101630009F5F5F4F220F331F441FAA1FA9F335D0AE
:101640000E2E3AF0E0E832D091505040E695001C62
:10165000CAF72BD0FE2F29D0660F771F881FBB1F1C
:10166000261737074807AB07B0E809F0BB0B802DFA
:10167000BF01FF2793585F4F3AF09E3F510578F026
:101680000C94F70B0C94420C5F3FE4F3983ED4F3B8
:10169000869577956795B795F7959F5FC9F7880FFA
:1016A000911D9695879597F90895E1E0660F771F4C
:1016B000881FBB1F621773078407BA0720F0621BDD
:1016C000730B840BBA0BEE1F88F7E09508950E9408
:1016D000270C88F09F5798F0B92F9927B751B0F091
:1016E000E1F0660F771F881F991F1AF0BA95C9F7A6
:1016F00014C0B13091F00E94410CB1E008950C94F7
:10170000410C672F782F8827B85F39F0B93FCCF3A9
:10171000869577956795B395D9F73EF49095809522
:10172000709561957F4F8F4F9F4F0895E89409C042
:1017300097FB3EF490958095709561957F4F8F4F04
:101740009F4F9923A9F0F92F96E9BB279395F6951A
:10175000879577956795B795F111F8CFFAF4BB0F98
:1017600011F460FF1BC06F5F7F4F8F4F9F4F16C0FC
:10177000882311F096E911C0772321F09EE8872F86
:10178000762F05C0662371F096E8862F70E060E042
:101790002AF09A95660F771F881FDAF7880F9695BB
:1017A000879597F90895990F0008550FAA0BE0E85F
:1017B000FEEF16161706E807F907C0F01216130613
:1017C000E407F50798F0621B730B840B950B39F453
:1017D0000A2661F0232B242B252B21F408950A26B9
:1017E00009F4A140A6958FEF811D811D089597F9F9
:1017F0009F6780E870E060E008959FEF80EC0895B7
:1018000000240A94161617061806090608950024DF
:101810000A9412161306140605060895092E039459
:10182000000C11F4882352F0BB0F40F4BF2B11F4CD
:1018300060FF04C06F5F7F4F8F4F9F4F089557FD2C
:101840009058440F551F59F05F3F71F04795880F2E
:1018500097FB991F61F09F3F79F0879508951216C5
:1018600013061406551FF2CF4695F1DF08C0161671
:1018700017061806991FF1CF869571056105089422
:101880000895E894BB2766277727CB0197F9089539
:101890000E94D30B08F48FEF08950E94600C0C9403
:1018A0000E0C0E94000C38F00E94070C20F09523CB
:1018B00011F00C94F70B0C94FD0B11240C94420CBA
:1018C0000E941F0C70F3959FC1F3950F50E0551FB8
:1018D000629FF001729FBB27F00DB11D639FAA2785
:1018E000F00DB11DAA1F649F6627B00DA11D661FD4
:1018F000829F2227B00DA11D621F739FB00DA11DF5
:10190000621F839FA00D611D221F749F3327A00DAE
:10191000611D231F849F600D211D822F762F6A2F4A
:1019200011249F5750409AF0F1F088234AF0EE0FAF
:10193000FF1FBB1F661F771F881F91505040A9F7DC
:101940009E3F510580F00C94F70B0C94420C5F3FC6
:10195000E4F3983ED4F3869577956795B795F79518
:10196000E7959F5FC1F7FE2B880F911D9695879590
:1019700097F908950E94D30B880B990B0895A1E263
:101980001A2EAA1BBB1BFD010DC0AA1FBB1FEE1FF9
:10199000FF1FA217B307E407F50720F0A21BB30B44
:1019A000E40BF50B661F771F881F991F1A9469F7C0
:1019B00060957095809590959B01AC01BD01CF011C
:1019C0000895EE0FFF1F0590F491E02D09940F93F9
:1019D0001F93CF93DF938230910510F482E090E063
:1019E000E091AB02F091AC0230E020E0B0E0A0E08A
:1019F000309799F42115310509F44AC0281B390B99
:101A000024303105D8F58A819B816115710589F1F2
:101A1000FB0193838283FE0111C0408151810281C9
:101A2000138148175907E0F04817590799F41097A0
:101A300061F012960C93129713961C933296CF0175
:101A4000DF91CF911F910F9108950093AB021093F6
:101A5000AC02F4CF2115310551F04217530738F08D
:101A6000A901DB019A01BD01DF01F801C1CFEF013E
:101A7000F9CF9093AC028093AB02CDCFFE01E20F81
:101A8000F31F819391932250310939832883D7CF53
:101A90002091A9023091AA02232B41F42091020146
:101AA000309103013093AA022093A90220910001F2
:101AB000309101012115310541F42DB73EB7409118
:101AC000040150910501241B350BE091A902F0910E
:101AD000AA02E217F307A0F42E1B3F0B28173907C1
:101AE00078F0AC014E5F5F4F2417350748F04E0F7A
:101AF0005F1F5093AA024093A902819391939FCFB5
:101B0000F0E0E0E09CCFCF93DF930097E9F0FC0199
:101B1000329713821282A091AB02B091AC02ED0118
:101B200030E020E01097A1F420813181820F931FD3
:101B30002091A9023091AA022817390709F061C043
:101B4000F093AA02E093A902DF91CF910895EA01F0
:101B5000CE17DF07E8F54A815B819E0141155105EB
:101B6000B1F7E901FB83EA8349915991C40FD51F6D
:101B7000EC17FD0761F4808191810296840F951F17
:101B8000E90199838883828193819B838A83F0E032
:101B9000E0E012968D919C9113970097B9F52D91E5
:101BA0003C911197CD010296820F931F2091A902BB
:101BB0003091AA022817390739F6309751F510925B
:101BC000AC021092AB02B093AA02A093A902BCCFC0
:101BD000D383C28340815181840F951FC817D907D1
:101BE00061F44E5F5F4F88819981480F591F51837F
:101BF00040838A819B81938382832115310509F07B
:101C0000B0CFF093AC02E093AB029ECFFD01DC01BC
:101C1000C0CF13821282D7CF10E0C9E7D0E004C052
:101C2000FE010E94E10C2196CA37D107C9F7F8944A
:021C3000FFCFE4
:101C32000000AD02800000000000B701170144015E
:101C42001F02750153016701000000002504F8031B
:101C52005404CE03F103DE03CF030D0A006E616E5E
:0A1C620000696E66006F76660000F0
:00000001FF
